:1080000002012C010000FF00FF00FF00FF00FF0045
:108100008EEF40F0FF00FF0055EFC2F0FF00FF00D0
:10811000FF00FF00FF00FF00EFEFCCF08BEFB1F0AE
:1081200000202020203C63646920786D6C6E733AD7
:108130007873693D27687474703A2F2F7777772E9C
:1081400077332E6F72672F323030312F584D4C53AA
:108150006368656D612D696E7374616E6365272058
:108160007873693A6E6F4E616D65737061636553C4
:108170006368656D614C6F636174696F6E3D2768FC
:108180007474703A2F2F6F70656E6C63622E6F720D
:10819000672F7472756E6B2F70726F746F74797055
:1081A00065732F786D6C2F736368656D612F6364E1
:1081B000692E787364273E0A202020203C6964657C
:1081C0006E74696669636174696F6E3E0A2020206F
:1081D00020202020203C6D616E756661637475728D
:1081E00065723E5350524F4720444343204C7464C1
:1081F0003C2F6D616E7566616374757265723E0ABF
:1082000020202020202020203C6D6F64656C3E5390
:108210004552564F494F2D4C43433C2F6D6F64657B
:108220006C3E0A20202020202020203C68617264BF
:108230007761726556657273696F6E3E312E303CA0
:108240002F686172647761726556657273696F6ECB
:108250003E0A20202020202020203C736F66747767
:1082600061726556657273696F6E3E322E323C2FB5
:10827000736F66747761726556657273696F6E3E6F
:108280000A202020203C2F6964656E74696669634A
:108290006174696F6E3E0A202020203C616364692E
:1082A0002F3E0A202020203C7365676D656E742088
:1082B0006F726967696E3D2733272073706163654C
:1082C0003D27323533273E203C212D2D2053706130
:1082D00063652030784644202D2D3E0A2020202042
:1082E000202020203C6E616D653E4E6F6465204409
:1082F00065736372697074696F6E3C2F6E616D6532
:108300003E0A20202020202020203C6465736372D8
:10831000697074696F6E3E557365722D70726F76F9
:1083200069646564206465736372697074696F6EF3
:10833000206F6620746865206E6F64653C2F6465ED
:10834000736372697074696F6E3E0A20202020206A
:108350002020203C737472696E672073697A653DD2
:10836000273633273E3C6E616D653E4E6F64652057
:108370004E616D653C2F6E616D653E3C2F7374726E
:10838000696E673E0A20202020202020203C737444
:1083900072696E672073697A653D273634273E3CE3
:1083A0006E616D653E4E6F646520446573637269EE
:1083B0007074696F6E3C2F6E616D653E3C2F7374F7
:1083C00072696E673E0A202020203C2F7365676D1E
:1083D000656E743E0A0A20203C7365676D656E7495
:1083E000206F726967696E3D2731333027207370C3
:1083F0006163653D27323533273E0A202020203C2B
:108400006E616D653E42616E6B2041203C2F6E6156
:108410006D653E0A202020203C646573637269709C
:1084200074696F6E3E53657420492F4F2066756ED8
:108430006374696F6E616C6974793C2F64657363F2
:1084400072697074696F6E3E0A202020203C696E4C
:10845000742073697A653D2731273E0A2020202049
:1084600020203C6E616D653E42616E6B20547970D8
:10847000653C2F6E616D653E0A2020202020203C47
:1084800064656661756C743E303C2F646566617529
:108490006C743E0A2020202020203C6D61703E0A32
:1084A00020202020202020203C72656C6174696FA0
:1084B0006E3E3C70726F70657274793E303C2F7006
:1084C000726F70657274793E3C76616C75653E4979
:1084D0006E7075742F4F75747075743C2F76616C67
:1084E00075653E3C2F72656C6174696F6E3E0A2043
:1084F000202020202020203C72656C6174696F6E02
:108500003E3C70726F70657274793E313C2F7072B0
:108510006F70657274793E3C76616C75653E53652B
:1085200072766F3C2F76616C75653E3C2F72656C80
:108530006174696F6E3E0A2020202020203C2F6D40
:1085400061703E0A202020203C2F696E743E0A2074
:108550002020203C67726F7570207265706C6963B3
:108560006174696F6E3D2738273E0A202020202045
:10857000203C6E616D653E4368616E6E656C207374
:10858000657475703C2F6E616D653E0A2020202059
:1085900020203C7265706E616D653E413C2F7265B6
:1085A000706E616D653E0A2020202020203C73748F
:1085B00072696E672073697A653D273332273E3CC6
:1085C0006E616D653E4465736372697074696F6E48
:1085D0003C2F6E616D653E3C2F737472696E673E11
:1085E0000A2020202020203C696E742073697A655F
:1085F0003D2731273E0A20202020202020203C6ECD
:10860000616D653E46756E6374696F6E3C2F6E6179
:108610006D653E0A20202020202020203C646566D5
:1086200061756C743E323C2F64656661756C743E96
:108630000A20202020202020203C6D61703E0A204E
:108640002020202020202020203C72656C6174694D
:108650006F6E3E3C70726F70657274793E303C2F65
:1086600070726F70657274793E3C76616C75653EB0
:108670004E6F6E653C2F76616C75653E3C2F726562
:108680006C6174696F6E3E0A20202020202020201B
:1086900020203C72656C6174696F6E3E3C70726F35
:1086A00070657274793E313C2F70726F70657274B0
:1086B000793E3C76616C75653E496E7075743C2FF1
:1086C00076616C75653E3C2F72656C6174696F6E86
:1086D0003E0A202020202020202020203C72656C93
:1086E0006174696F6E3E3C70726F70657274793E32
:1086F000323C2F70726F70657274793E3C76616C9B
:1087000075653E4F75747075743C2F76616C756538
:108710003E3C2F72656C6174696F6E3E0A202020AA
:10872000202020202020203C72656C6174696F6ECF
:108730003E3C70726F70657274793E333C2F70727C
:108740006F70657274793E3C76616C75653E4275FA
:1087500074746F6E2F4C4544202D204F75747075C6
:108760007420776974682073616D706C656420692A
:108770006E7075743C2F76616C75653E3C2F72652A
:108780006C6174696F6E3E0A20202020202020201A
:1087900020203C72656C6174696F6E3E3C70726F34
:1087A00070657274793E343C2F70726F70657274AC
:1087B000793E3C76616C75653E4F757470757420BA
:1087C00073696E676C652070756C73653C2F76619C
:1087D0006C75653E3C2F72656C6174696F6E3E0A04
:1087E000202020202020202020203C72656C6174F5
:1087F000696F6E3E3C70726F70657274793E353C85
:108800002F70726F70657274793E3C76616C75651D
:108810003E4F75747075742073696E676C65207057
:10882000756C73652C207265747269676765726117
:10883000626C653C2F76616C75653E3C2F72656C91
:108840006174696F6E3E0A202020202020202020A5
:10885000203C72656C6174696F6E3E3C70726F7023
:10886000657274793E363C2F70726F7065727479E0
:108870003E3C76616C75653E4F7574707574207200
:108880006570656174696E672070756C7365733CA3
:108890002F76616C75653E3C2F72656C6174696FF3
:1088A0006E3E0A20202020202020203C2F6D617069
:1088B0003E0A2020202020203C2F696E743E0A2092
:1088C00020202020203C696E742073697A653D2742
:1088D00031273E0A20202020202020203C6E616D80
:1088E000653E506F6C61726974793C2F6E616D6585
:1088F0003E0A20202020202020203C6465666175EF
:108900006C743E303C2F64656661756C743E0A2061
:10891000202020202020203C6D61703E0A20202055
:10892000202020202020203C72656C6174696F6ECD
:108930003E3C70726F70657274793E303C2F70727D
:108940006F70657274793E3C76616C75653E4E6FF2
:10895000726D616C3C2F76616C75653E3C2F726563
:108960006C6174696F6E3E0A202020202020202038
:1089700020203C72656C6174696F6E3E3C70726F52
:1089800070657274793E313C2F70726F70657274CD
:10899000793E3C76616C75653E496E7665727465AC
:1089A000643C2F76616C75653E3C2F72656C61741A
:1089B000696F6E3E0A20202020202020203C2F6D51
:1089C00061703E0A2020202020203C2F696E743EDA
:1089D0000A2020202020203C696E742073697A656B
:1089E0003D2732273E0A20202020202020203C6ED8
:1089F000616D653E4F7574707574204F6E205065C3
:108A000072696F643C2F6E616D653E0A20202020E4
:108A100020203C2F696E743E0A2020202020203C1C
:108A2000696E742073697A653D2732273E0A2020DB
:108A30002020202020203C6E616D653E4F757470B3
:108A40007574204F666620506572696F643C2F6EA6
:108A5000616D653E0A2020202020203C2F696E7425
:108A60003E0A2020202020203C696E742073697A01
:108A7000653D2731273E0A20202020202020203C51
:108A80006E616D653E556E6974733C2F6E616D65E8
:108A90003E0A20202020202020203C64656661754D
:108AA0006C743E303C2F64656661756C743E0A20C0
:108AB000202020202020203C6D61703E0A202020B4
:108AC000202020202020203C72656C6174696F6E2C
:108AD0003E3C70726F70657274793E303C2F7072DC
:108AE0006F70657274793E3C76616C75653E4D6958
:108AF0006C6C697365636F6E647320286D73293CB9
:108B00002F76616C75653E3C2F72656C6174696F80
:108B10006E3E0A202020202020202020203C72654C
:108B20006C6174696F6E3E3C70726F7065727479BF
:108B30003E313C2F70726F70657274793E3C766185
:108B40006C75653E5365636F6E6473202873293CB2
:108B50002F76616C75653E3C2F72656C6174696F30
:108B60006E3E0A202020202020202020203C7265FC
:108B70006C6174696F6E3E3C70726F70657274796F
:108B80003E323C2F70726F70657274793E3C766134
:108B90006C75653E4D696E7574657320286D293C52
:108BA0002F76616C75653E3C2F72656C6174696FE0
:108BB0006E3E0A20202020202020203C2F6D617056
:108BC0003E0A2020202020203C2F696E743E0A207F
:108BD00020202020203C67726F7570207265706CB9
:108BE00069636174696F6E3D2736273E0A20202035
:108BF00020202020203C6E616D653E436F6E7375B2
:108C00006D6572733C2F6E616D653E0A20202020D9
:108C1000202020203C7265706E616D653E433C2FC4
:108C20007265706E616D653E0A2020202020202034
:108C3000203C737472696E672073697A653D2733CF
:108C400032273E3C6E616D653E4576656E74204E02
:108C5000616D653C2F6E616D653E3C2F737472696A
:108C60006E673E0A20202020202020203C6576656B
:108C70006E7469643E0A20202020202020202020BD
:108C80003C6E616D653E4576656E743C2F6E616D20
:108C9000653E0A202020202020202020203C6465E2
:108CA000736372697074696F6E3E5768656E207485
:108CB000686973206576656E7420697320636F6ED2
:108CC00073756D65642E2E2E3C2F64657363726917
:108CD0007074696F6E3E0A20202020202020203CE6
:108CE0002F6576656E7469643E0A2020202020205E
:108CF00020203C696E742073697A653D2731273ED8
:108D00000A202020202020202020203C6E616D653C
:108D10003E416374696F6E3C2F6E616D653E0A2043
:108D20002020202020202020203C6465736372696D
:108D30007074696F6E3E2E2E2E746865204F7574A8
:108D40007075742073746174652C20696620492FD6
:108D50004F2069732073657420746F206F75747071
:108D600075742C2077696C6C2062653A3C2F6465C1
:108D7000736372697074696F6E3E0A202020202030
:108D800020202020203C64656661756C743E303C78
:108D90002F64656661756C743E0A202020202020B7
:108DA000202020203C6D61703E0A202020202020C1
:108DB0002020202020203C72656C6174696F6E3E1B
:108DC0003C70726F70657274793E303C2F70726FB8
:108DD00070657274793E3C76616C75653E556E6364
:108DE00068616E6765643C2F76616C75653E3C2FEB
:108DF00072656C6174696F6E3E0A2020202020200D
:108E00002020202020203C72656C6174696F6E3ECA
:108E10003C70726F70657274793E333C2F70726F64
:108E200070657274793E3C76616C75653E4F6E3C40
:108E30002F76616C75653E3C2F72656C6174696F4D
:108E40006E3E0A2020202020202020202020203CB0
:108E500072656C6174696F6E3E3C70726F706572A2
:108E600074793E323C2F70726F70657274793E3C3B
:108E700076616C75653E4F66663C2F76616C7565F4
:108E80003E3C2F72656C6174696F6E3E0A20202033
:108E90002020202020202020203C72656C617469F5
:108EA0006F6E3E3C70726F70657274793E343C2F09
:108EB00070726F70657274793E3C76616C75653E58
:108EC000546F67676C65643C2F76616C75653E3CDA
:108ED0002F72656C6174696F6E3E0A20202020201D
:108EE00020202020203C2F6D61703E0A2020202071
:108EF000202020203C2F696E743E0A202020202054
:108F0000203C2F67726F75703E0A202020202020A1
:108F10003C67726F7570207265706C69636174690B
:108F20006F6E3D2736273E0A20202020202020205B
:108F30003C6E616D653E50726F6475636572733C23
:108F40002F6E616D653E0A20202020202020203CCD
:108F50007265706E616D653E503C2F7265706E611A
:108F60006D653E0A20202020202020203C73747252
:108F7000696E672073697A653D273332273E3C6E00
:108F8000616D653E4576656E74204E616D653C2F62
:108F90006E616D653E3C2F737472696E673E0A2088
:108FA000202020202020203C696E742073697A657F
:108FB0003D2731273E0A202020202020202020206D
:108FC0003C6E616D653E416374696F6E3C2F6E61EE
:108FD0006D653E0A202020202020202020203C6497
:108FE00065736372697074696F6E3E4F6E2074684A
:108FF000697320616374696F6E2E2E2E3C2F646539
:10900000736372697074696F6E3E0A20202020209D
:1090100020202020203C64656661756C743E303CE5
:109020002F64656661756C743E0A20202020202024
:10903000202020203C6D61703E0A2020202020202E
:109040002020202020203C72656C6174696F6E3E88
:109050003C70726F70657274793E303C2F70726F25
:1090600070657274793E3C76616C75653E4E6F6ECC
:109070006520286E6F206576656E742070726F644F
:1090800075636564293C2F76616C75653E3C2F7273
:10909000656C6174696F6E3E0A20202020202020BC
:1090A00020202020203C72656C6174696F6E3E3C0C
:1090B00070726F70657274793E363C2F70726F708B
:1090C000657274793E3C76616C75653E4F7574705F
:1090D0007574206F6E206576656E7420636F6E7395
:1090E000756D65643C2F76616C75653E3C2F7265CD
:1090F0006C6174696F6E3E0A2020202020202020A1
:10910000202020203C72656C6174696F6E3E3C705B
:10911000726F70657274793E353C2F70726F706536
:109120007274793E3C76616C75653E4F75747075EE
:1091300074206F6666206576656E7420636F6E734B
:10914000756D65643C2F76616C75653E3C2F72656C
:109150006C6174696F6E3E0A202020202020202040
:10916000202020203C72656C6174696F6E3E3C70FB
:10917000726F70657274793E33363C2F70726F7007
:10918000657274793E3C76616C75653E4F7574709E
:10919000757420746F67676C65206576656E7420E2
:1091A000636F6E73756D65643C2F76616C75653E9B
:1091B0003C2F72656C6174696F6E3E0A202020201E
:1091C00020202020202020203C72656C6174696F73
:1091D0006E3E3C70726F70657274793E32383C2F0F
:1091E00070726F70657274793E3C76616C75653E25
:1091F0004F7574707574206F6E206576656E74207F
:10920000636F6E73756D656420666F722063617342
:10921000636164653C2F76616C75653E3C2F7265B9
:109220006C6174696F6E3E0A20202020202020206F
:10923000202020203C72656C6174696F6E3E3C702A
:10924000726F70657274793E32373C2F70726F7036
:10925000657274793E3C76616C75653E4F757470CD
:109260007574206F6666206576656E7420636F6E18
:1092700073756D656420666F7220636173636164EA
:10928000653C2F76616C75653E3C2F72656C617430
:10929000696F6E3E0A2020202020202020202020E0
:1092A000203C72656C6174696F6E3E3C70726F70C9
:1092B000657274793E33353C2F70726F70657274CD
:1092C000793E3C76616C75653E4F7574707574209F
:1092D000746F67676C65206576656E7420636F6E6A
:1092E00073756D656420666F72206361736361647A
:1092F000653C2F76616C75653E3C2F72656C6174C0
:10930000696F6E3E0A20202020202020202020206F
:10931000203C72656C6174696F6E3E3C70726F7058
:10932000657274793E32363C2F70726F706572745C
:10933000793E3C76616C75653E4F7574707574202E
:109340006368616E676520746F206F6E3C2F766175
:109350006C75653E3C2F72656C6174696F6E3E0A78
:109360002020202020202020202020203C72656CFE
:109370006174696F6E3E3C70726F70657274793E95
:1093800032353C2F70726F70657274793E3C766135
:109390006C75653E4F7574707574206368616E6797
:1093A0006520746F206F66663C2F76616C75653E34
:1093B0003C2F72656C6174696F6E3E0A202020201C
:1093C00020202020202020203C72656C6174696F71
:1093D0006E3E3C70726F70657274793E383C2F70CF
:1093E000726F70657274793E3C76616C75653E494A
:1093F0006E707574206F6E2028696620492F4F208B
:10940000656E61626C656420617320696E7075744D
:10941000293C2F76616C75653E3C2F72656C6174DA
:10942000696F6E3E0A20202020202020202020204E
:10943000203C72656C6174696F6E3E3C70726F7037
:10944000657274793E373C2F70726F7065727479F3
:109450003E3C76616C75653E496E707574206F6632
:10946000662028696620492F4F20656E61626C6511
:109470006420617320696E707574293C2F76616C6D
:1094800075653E3C2F72656C6174696F6E3E0A2093
:1094900020202020202020202020203C72656C618C
:1094A00074696F6E3E3C70726F70657274793E3194
:1094B000393C2F70726F70657274793E3C76616CC6
:1094C00075653E536572766F206174206F66662005
:1094D000656E642028696620492F4F20656E6162A1
:1094E0006C656420617320736572766F293C2F76FA
:1094F000616C75653E3C2F72656C6174696F6E3E80
:109500000A2020202020202020202020203C7265BE
:109510006C6174696F6E3E3C70726F7065727479C5
:109520003E32303C2F70726F70657274793E3C76BB
:10953000616C75653E536572766F206C656176650A
:1095400073206F666620656E642028696620492F47
:109550004F20656E61626C65642061732073657273
:10956000766F293C2F76616C75653E3C2F72656C79
:109570006174696F6E3E0A20202020202020202068
:109580002020203C72656C6174696F6E3E3C707285
:109590006F70657274793E32313C2F70726F7065F6
:1095A0007274793E3C76616C75653E536572766F78
:1095B000206174206F6E20656E64202869662049E2
:1095C0002F4F20656E61626C656420617320736546
:1095D00072766F293C2F76616C75653E3C2F726503
:1095E0006C6174696F6E3E0A2020202020202020AC
:1095F000202020203C72656C6174696F6E3E3C7067
:10960000726F70657274793E32323C2F70726F7077
:10961000657274793E3C76616C75653E5365727611
:109620006F206C6561766573206F6E20656E6420B7
:1096300028696620492F4F20656E61626C65642041
:10964000617320736572766F293C2F76616C756546
:109650003E3C2F72656C6174696F6E3E0A2020205B
:109660002020202020202020203C72656C6174691D
:109670006F6E3E3C70726F70657274793E32333C2F
:109680002F70726F70657274793E3C76616C75658F
:109690003E536572766F206174206D69642D706F22
:1096A000696E7420696E206F6666206469726563F6
:1096B00074696F6E2028696620492F4F20656E619E
:1096C000626C656420617320736572766F293C2F2C
:1096D00076616C75653E3C2F72656C6174696F6E66
:1096E0003E0A2020202020202020202020203C7204
:1096F000656C6174696F6E3E3C70726F70657274F8
:10970000793E32343C2F70726F70657274793E3CD2
:1097100076616C75653E536572766F206174206D5D
:1097200069642D706F696E7420696E206F6E20649D
:109730006972656374696F6E2028696620492F4FCE
:1097400020656E61626C656420617320736572765A
:109750006F293C2F76616C75653E3C2F72656C619C
:1097600074696F6E3E0A20202020202020202020B7
:109770003C2F6D61703E0A20202020202020203CBC
:109780002F696E743E0A20202020202020203C6576
:1097900076656E7469643E0A2020202020202020F7
:1097A00020203C6E616D653E4576656E743C2F6E83
:1097B000616D653E0A202020202020202020203CB2
:1097C0006465736372697074696F6E3E2E2E2E74B9
:1097D000686973206576656E742077696C6C2062A9
:1097E000652070726F64756365643C2F6465736394
:1097F00072697074696F6E3E0A202020202020203C
:10980000203C2F6576656E7469643E0A2020202016
:1098100020203C2F67726F75703E0A202020203C6C
:109820002F67726F75703E0A20203C2F7365676D3D
:10983000656E743E0A0A20203C7365676D656E7420
:10984000206F726967696E3D27343337392720737B
:10985000706163653D27323533273E0A2020202082
:109860003C6E616D653E42616E6B2042203C2F6E06
:10987000616D653E0A202020203C64657363726937
:109880007074696F6E3E53657420492F4F20667562
:109890006E6374696F6E616C6974793C2F64657373
:1098A0006372697074696F6E3E0A202020203C69E3
:1098B0006E742073697A653D2731273E0A20202087
:1098C0002020203C6E616D653E42616E6B205479B4
:1098D00070653C2F6E616D653E0A2020202020209F
:1098E0003C64656661756C743E303C2F64656661EE
:1098F000756C743E0A2020202020203C6D61703E53
:109900000A20202020202020203C72656C61746990
:109910006F6E3E3C70726F70657274793E303C2F92
:1099200070726F70657274793E3C76616C75653EDD
:10993000496E7075742F4F75747075743C2F766115
:109940006C75653E3C2F72656C6174696F6E3E0A82
:1099500020202020202020203C72656C6174696FDB
:109960006E3E3C70726F70657274793E333C2F703E
:10997000726F70657274793E3C76616C75653E53AA
:109980006572766F20736574757020287573696EC3
:109990006720427574746F6E4C454420746573740F
:1099A00020626F617264293C2F76616C75653E3C64
:1099B0002F72656C6174696F6E3E0A202020202032
:1099C000203C2F6D61703E0A202020203C2F696EC4
:1099D000743E0A202020203C67726F7570207265EB
:1099E000706C69636174696F6E3D2738273E0A2089
:1099F00020202020203C6E616D653E4368616E6EC4
:109A0000656C2073657475703C2F6E616D653E0AE0
:109A10002020202020203C7265706E616D653E42E2
:109A20003C2F7265706E616D653E0A2020202020FB
:109A3000203C737472696E672073697A653D2733C1
:109A400032273E3C6E616D653E446573637269709A
:109A500074696F6E3C2F6E616D653E3C2F7374723E
:109A6000696E673E0A2020202020203C696E742009
:109A700073697A653D2731273E0A20202020202067
:109A800020203C6E616D653E46756E6374696F6E35
:109A90003C2F6E616D653E0A202020202020202072
:109AA0003C64656661756C743E313C2F646566612B
:109AB000756C743E0A20202020202020203C6D61FF
:109AC000703E0A202020202020202020203C72658B
:109AD0006C6174696F6E3E3C70726F706572747900
:109AE0003E303C2F70726F70657274793E3C7661C7
:109AF0006C75653E4E6F6E653C2F76616C75653E8C
:109B00003C2F72656C6174696F6E3E0A20202020C4
:109B10002020202020203C72656C6174696F6E3EAD
:109B20003C70726F70657274793E313C2F70726F49
:109B300070657274793E3C76616C75653E496E70F5
:109B400075743C2F76616C75653E3C2F72656C6157
:109B500074696F6E3E0A20202020202020202020C3
:109B60003C72656C6174696F6E3E3C70726F7065BB
:109B70007274793E323C2F70726F70657274793EE8
:109B80003C76616C75653E4F75747075743C2F76CC
:109B9000616C75653E3C2F72656C6174696F6E3ED9
:109BA0000A202020202020202020203C72656C618B
:109BB00074696F6E3E3C70726F70657274793E337B
:109BC0003C2F70726F70657274793E3C76616C7573
:109BD000653E427574746F6E2F4C4544202D204FA6
:109BE000757470757420776974682073616D706C1A
:109BF000656420696E7075743C2F76616C75653E86
:109C00003C2F72656C6174696F6E3E0A20202020C3
:109C10002020202020203C72656C6174696F6E3EAC
:109C20003C70726F70657274793E343C2F70726F45
:109C300070657274793E3C76616C75653E4F7574E3
:109C40007075742073696E676C652070756C7365D0
:109C50003C2F76616C75653E3C2F72656C61746952
:109C60006F6E3E0A202020202020202020203C72E1
:109C7000656C6174696F6E3E3C70726F7065727472
:109C8000793E353C2F70726F70657274793E3C7608
:109C9000616C75653E4F75747075742073696E677D
:109CA0006C652070756C73652C20726574726967C1
:109CB00067657261626C653C2F76616C75653E3CD0
:109CC0002F72656C6174696F6E3E0A20202020201F
:109CD00020202020203C72656C6174696F6E3E3CD0
:109CE00070726F70657274793E363C2F70726F704F
:109CF000657274793E3C76616C75653E4F75747023
:109D0000757420726570656174696E672070756C1A
:109D10007365733C2F76616C75653E3C2F72656C84
:109D20006174696F6E3E0A20202020202020203C94
:109D30002F6D61703E0A2020202020203C2F696E6C
:109D4000743E0A2020202020203C696E7420736914
:109D50007A653D2731273E0A202020202020202020
:109D60003C6E616D653E506F6C61726974793C2F19
:109D70006E616D653E0A20202020202020203C645A
:109D8000656661756C743E303C2F64656661756C08
:109D9000743E0A20202020202020203C6D61703E4F
:109DA0000A202020202020202020203C72656C6189
:109DB00074696F6E3E3C70726F70657274793E307C
:109DC0003C2F70726F70657274793E3C76616C7571
:109DD000653E4E6F726D616C3C2F76616C75653EB1
:109DE0003C2F72656C6174696F6E3E0A20202020E2
:109DF0002020202020203C72656C6174696F6E3ECB
:109E00003C70726F70657274793E313C2F70726F66
:109E100070657274793E3C76616C75653E496E760C
:109E200065727465643C2F76616C75653E3C2F727B
:109E3000656C6174696F6E3E0A202020202020200E
:109E4000203C2F6D61703E0A2020202020203C2FD6
:109E5000696E743E0A2020202020203C696E742008
:109E600073697A653D2732273E0A20202020202072
:109E700020203C6E616D653E4F7574707574204F87
:109E80006E20506572696F643C2F6E616D653E0A8D
:109E90002020202020203C2F696E743E0A202020A4
:109EA0002020203C696E742073697A653D27322733
:109EB0003E0A20202020202020203C6E616D653E3F
:109EC0004F7574707574204F666620506572696FA7
:109ED000643C2F6E616D653E0A2020202020203CCE
:109EE0002F696E743E0A2020202020203C696E7469
:109EF0002073697A653D2731273E0A2020202020E3
:109F00002020203C6E616D653E556E6974733C2F58
:109F10006E616D653E0A20202020202020203C64B8
:109F2000656661756C743E303C2F64656661756C66
:109F3000743E0A20202020202020203C6D61703EAD
:109F40000A202020202020202020203C72656C61E7
:109F500074696F6E3E3C70726F70657274793E30DA
:109F60003C2F70726F70657274793E3C76616C75CF
:109F7000653E4D696C6C697365636F6E6473202810
:109F80006D73293C2F76616C75653E3C2F72656C54
:109F90006174696F6E3E0A2020202020202020203E
:109FA000203C72656C6174696F6E3E3C70726F70BC
:109FB000657274793E313C2F70726F70657274797E
:109FC0003E3C76616C75653E5365636F6E647320CD
:109FD0002873293C2F76616C75653E3C2F72656C49
:109FE0006174696F6E3E0A202020202020202020EE
:109FF000203C72656C6174696F6E3E3C70726F706C
:10A00000657274793E323C2F70726F70657274792C
:10A010003E3C76616C75653E4D696E757465732066
:10A020002873293C2F76616C75653E3C2F72656CF8
:10A030006174696F6E3E0A20202020202020203C81
:10A040002F6D61703E0A2020202020203C2F696E59
:10A05000743E0A2020202020203C67726F757020FB
:10A060007265706C69636174696F6E3D2736273E57
:10A070000A20202020202020203C6E616D653E4378
:10A080006F6E73756D6572733C2F6E616D653E0A00
:10A0900020202020202020203C7265706E616D659C
:10A0A0003E433C2F7265706E616D653E0A20202034
:10A0B00020202020203C737472696E672073697AB7
:10A0C000653D273332273E3C6E616D653E457665C2
:10A0D0006E74204E616D653C2F6E616D653E3C2F48
:10A0E000737472696E673E0A202020202020202091
:10A0F0003C6576656E7469643E0A2020202020202D
:10A10000202020203C6E616D653E4576656E743C76
:10A110002F6E616D653E0A20202020202020202007
:10A12000203C6465736372697074696F6E3E576832
:10A13000656E2074686973206576656E7420697336
:10A1400020636F6E73756D65642E2E2E3C2F6465D3
:10A15000736372697074696F6E3E0A20202020203C
:10A160002020203C2F6576656E7469643E0A2020AD
:10A170002020202020203C696E742073697A653D80
:10A180002731273E0A202020202020202020203C8C
:10A190006E616D653E416374696F6E3C2F6E616DDB
:10A1A000653E0A202020202020202020203C6465BD
:10A1B000736372697074696F6E3E2E2E2E746865BB
:10A1C00020746865204F75747075742073746174A1
:10A1D000652C20696620492F4F20697320736574B0
:10A1E00020746F206F75747075742C2077696C6C97
:10A1F0002062653A3C2F6465736372697074696F9D
:10A200006E3E0A202020202020202020203C646553
:10A210006661756C743E303C2F64656661756C7464
:10A220003E0A202020202020202020203C6D61702C
:10A230003E0A2020202020202020202020203C72A8
:10A24000656C6174696F6E3E3C70726F706572749C
:10A25000793E303C2F70726F70657274793E3C7637
:10A26000616C75653E556E6368616E6765643C2F11
:10A2700076616C75653E3C2F72656C6174696F6EBA
:10A280003E0A2020202020202020202020203C7258
:10A29000656C6174696F6E3E3C70726F706572744C
:10A2A000793E333C2F70726F70657274793E3C76E4
:10A2B000616C75653E4F6E3C2F76616C75653E3CFA
:10A2C0002F72656C6174696F6E3E0A202020202019
:10A2D000202020202020203C72656C6174696F6E04
:10A2E0003E3C70726F70657274793E323C2F7072B2
:10A2F0006F70657274793E3C76616C75653E4F6631
:10A30000663C2F76616C75653E3C2F72656C61749E
:10A31000696F6E3E0A20202020202020202020204F
:10A32000203C72656C6174696F6E3E3C70726F7038
:10A33000657274793E343C2F70726F7065727479F7
:10A340003E3C76616C75653E546F67676C65643C36
:10A350002F76616C75653E3C2F72656C6174696F18
:10A360006E3E0A202020202020202020203C2F6D1F
:10A3700061703E0A20202020202020203C2F696E82
:10A38000743E0A2020202020203C2F67726F7570B9
:10A390003E0A2020202020203C67726F75702072BA
:10A3A00065706C69636174696F6E3D2736273E0A7C
:10A3B00020202020202020203C6E616D653E5072C0
:10A3C0006F6475636572733C2F6E616D653E0A2024
:10A3D000202020202020203C7265706E616D653E3B
:10A3E000503C2F7265706E616D653E0A2020202002
:10A3F000202020203C737472696E672073697A652F
:10A400003D273332273E3C6E616D653E4576656E75
:10A4100074204E616D653C2F6E616D653E3C2F73FF
:10A420007472696E673E0A20202020202020203C84
:10A43000696E742073697A653D2731273E0A2020B2
:10A4400020202020202020203C6E616D653E41634D
:10A4500074696F6E3C2F6E616D653E0A202020206E
:10A460002020202020203C64657363726970746929
:10A470006F6E3E4F6E207468697320616374696FFC
:10A480006E2E2E2E3C2F6465736372697074696F33
:10A490006E3E0A202020202020202020203C6465C1
:10A4A0006661756C743E303C2F64656661756C74D2
:10A4B0003E0A202020202020202020203C6D61709A
:10A4C0003E0A2020202020202020202020203C7216
:10A4D000656C6174696F6E3E3C70726F706572740A
:10A4E000793E303C2F70726F70657274793E3C76A5
:10A4F000616C75653E4E6F6E6520286E6F206576C7
:10A50000656E742070726F6475636564293C2F7684
:10A51000616C75653E3C2F72656C6174696F6E3E4F
:10A520000A2020202020202020202020203C72658E
:10A530006C6174696F6E3E3C70726F706572747995
:10A540003E363C2F70726F70657274793E3C766156
:10A550006C75653E4F7574707574206F6E206576EE
:10A56000656E7420636F6E73756D65643C2F7661E4
:10A570006C75653E3C2F72656C6174696F6E3E0A46
:10A580002020202020202020202020203C72656CCC
:10A590006174696F6E3E3C70726F70657274793E63
:10A5A000353C2F70726F70657274793E3C76616CC9
:10A5B00075653E4F7574707574206F66662065769C
:10A5C000656E7420636F6E73756D65643C2F766184
:10A5D0006C75653E3C2F72656C6174696F6E3E0AE6
:10A5E0002020202020202020202020203C72656C6C
:10A5F0006174696F6E3E3C70726F70657274793E03
:10A6000033363C2F70726F70657274793E3C7661A0
:10A610006C75653E4F757470757420746F67676CE8
:10A6200065206576656E7420636F6E73756D656405
:10A630003C2F76616C75653E3C2F72656C61746968
:10A640006F6E3E0A20202020202020202020202065
:10A650003C72656C6174696F6E3E3C70726F7065C0
:10A660007274793E32383C2F70726F7065727479F3
:10A670003E3C76616C75653E4F7574707574206FE5
:10A680006E206576656E7420636F6E73756D65649C
:10A6900020666F7220636173636164653C2F76612D
:10A6A0006C75653E3C2F72656C6174696F6E3E0A15
:10A6B0002020202020202020202020203C72656C9B
:10A6C0006174696F6E3E3C70726F70657274793E32
:10A6D00032373C2F70726F70657274793E3C7661D0
:10A6E0006C75653E4F7574707574206F6666206575
:10A6F00076656E7420636F6E73756D656420666F2A
:10A700007220636173636164653C2F76616C75656B
:10A710003E3C2F72656C6174696F6E3E0A2020208A
:10A720002020202020202020203C72656C6174694C
:10A730006F6E3E3C70726F70657274793E33353C5B
:10A740002F70726F70657274793E3C76616C7565BE
:10A750003E4F757470757420746F67676C65206503
:10A7600076656E7420636F6E73756D656420666FB9
:10A770007220636173636164653C2F76616C7565FB
:10A780003E3C2F72656C6174696F6E3E0A2020201A
:10A790002020202020202020203C72656C617469DC
:10A7A0006F6E3E3C70726F70657274793E32363CEB
:10A7B0002F70726F70657274793E3C76616C75654E
:10A7C0003E4F7574707574206368616E67652074A0
:10A7D0006F206F6E3C2F76616C75653E3C2F726505
:10A7E0006C6174696F6E3E0A20202020202020209A
:10A7F000202020203C72656C6174696F6E3E3C7055
:10A80000726F70657274793E32353C2F70726F7062
:10A81000657274793E3C76616C75653E4F757470F7
:10A820007574206368616E676520746F206F66665B
:10A830003C2F76616C75653E3C2F72656C61746966
:10A840006F6E3E0A20202020202020202020202063
:10A850003C72656C6174696F6E3E3C70726F7065BE
:10A860007274793E383C2F70726F70657274793EE5
:10A870003C76616C75653E496E707574206F6E2014
:10A8800028696620492F4F20656E61626C656420DF
:10A89000617320696E707574293C2F76616C7565E3
:10A8A0003E3C2F72656C6174696F6E3E0A202020F9
:10A8B0002020202020202020203C72656C617469BB
:10A8C0006F6E3E3C70726F70657274793E373C2FCC
:10A8D00070726F70657274793E3C76616C75653E1E
:10A8E000496E707574206F66662028696620492F4E
:10A8F0004F20656E61626C656420617320696E70C3
:10A900007574293C2F76616C75653E3C2F72656CC1
:10A910006174696F6E3E0A202020202020202020B4
:10A92000203C2F6D61703E0A202020202020202016
:10A930003C2F696E743E0A20202020202020203CDD
:10A940006576656E7469643E0A20202020202020F0
:10A950002020203C6E616D653E4576656E743C2F0F
:10A960006E616D653E0A20202020202020202020BE
:10A970003C6465736372697074696F6E3E2E2E2E2F
:10A9800074686973206576656E742077696C6C20D5
:10A9900062652070726F64756365643C2F646573D3
:10A9A0006372697074696F6E3E0A20202020202037
:10A9B00020203C2F6576656E7469643E0A20202055
:10A9C0002020203C2F67726F75703E0A20202020C7
:10A9D0003C2F67726F75703E0A20203C2F736567AD
:10A9E0006D656E743E0A0A20203C7365676D656E66
:10A9F00074206F726967696E3D27383632382720B8
:10AA000073706163653D27323533273E0A2020206D
:10AA1000203C6E616D653E536572766F206F6E20CF
:10AA200062616E6B20413C2F6E616D653E0A202095
:10AA300020203C6465736372697074696F6E3E5761
:10AA400068656E2042616E6B2041206973207365DA
:10AA500074757020666F7220736572766F20636FF5
:10AA60006E74726F6C2C20746865736520736574E6
:10AA700074696E677320636F6E74726F6C20746894
:10AA80006520736572766F206F7065726174696F8F
:10AA90006E203C2F6465736372697074696F6E3EDB
:10AAA0000A202020203C67726F7570207265706CE0
:10AAB00069636174696F6E3D2738273E0A20202044
:10AAC0002020203C6E616D653E536572766F207369
:10AAD000657474696E67733C2F6E616D653E0A2004
:10AAE00020202020203C6465736372697074696F54
:10AAF0006E3E53657420536572766F20706F736974
:10AB000074696F6E732C2073706565642C20657496
:10AB1000633C2F6465736372697074696F6E3E0A7B
:10AB20002020202020203C7265706E616D653E53B0
:10AB30003C2F7265706E616D653E0A2020202020DA
:10AB4000203C696E742073697A653D2731273E0A7F
:10AB500020202020202020203C6E616D653E4F6625
:10AB60006620706F736974696F6E3C2F6E616D65DE
:10AB70003E0A20202020202020203C646573637240
:10AB8000697074696F6E3E3020286D696E2C2031BB
:10AB9000206D7329202D2032353020286D61782CCE
:10ABA0002032206D73293C2F646573637269707461
:10ABB000696F6E3E0A20202020202020203C6D69F5
:10ABC0006E3E303C2F6D696E3E0A202020202020F2
:10ABD00020203C6D61783E3235303C2F6D61783EEF
:10ABE0000A20202020202020203C64656661756CAE
:10ABF000743E3132353C2F64656661756C743E0A73
:10AC000020202020202020203C68696E74733E0A9A
:10AC1000202020202020202020203C736C696465A7
:10AC200072206469766973696F6E733D27352720DA
:10AC3000696D6D6564696174653D27796573272F5A
:10AC40003E0A20202020202020203C2F68696E749E
:10AC5000733E0A2020202020203C2F696E743E0A7B
:10AC60002020202020203C696E742073697A653D85
:10AC70002731273E0A20202020202020203C6E6102
:10AC80006D653E4F6E20706F736974696F6E3C2FF7
:10AC90006E616D653E0A20202020202020203C642B
:10ACA00065736372697074696F6E3E3020286D69D8
:10ACB0006E696D756D2031206D732070756C7365D4
:10ACC00029202D2032353020286D6178696D756D11
:10ACD0002032206D732070756C7365293C2F64657C
:10ACE000736372697074696F6E3E0A2020202020A1
:10ACF0002020203C6D696E3E303C2F6D696E3E0A0F
:10AD000020202020202020203C6D61783E323530EC
:10AD10003C2F6D61783E0A20202020202020203CFE
:10AD200064656661756C743E3132353C2F646566CE
:10AD300061756C743E0A20202020202020203C6871
:10AD4000696E74733E0A20202020202020202020BD
:10AD50003C736C69646572206469766973696F6EAF
:10AD6000733D27352720696D6D6564696174653DA4
:10AD700027796573272F3E0A2020202020202020BD
:10AD80003C2F68696E74733E0A2020202020203CEE
:10AD90002F696E743E0A2020202020203C696E74AA
:10ADA0002073697A653D2731273E0A202020202024
:10ADB0002020203C6E616D653E4F66662073706595
:10ADC00065643C2F6E616D653E0A202020202020A6
:10ADD00020203C6465736372697074696F6E3E53C2
:10ADE00070656564206F66206D6F76656D656E7445
:10ADF00020746F7761726473206F666620706F7362
:10AE00006974696F6E2C20312028736C6F776573BD
:10AE10007429202D20372028666173746573742986
:10AE20003C2F6465736372697074696F6E3E0A20AB
:10AE3000202020202020203C6D696E3E313C2F6D6B
:10AE4000696E3E0A20202020202020203C6D617861
:10AE50003E373C2F6D61783E0A20202020202020A4
:10AE6000203C64656661756C743E343C2F64656695
:10AE700061756C743E0A2020202020203C2F696ED2
:10AE8000743E0A2020202020203C696E74207369C3
:10AE90007A653D2731273E0A2020202020202020CF
:10AEA0003C6E616D653E4F6E2073706565643C2F2E
:10AEB0006E616D653E0A20202020202020203C6409
:10AEC00065736372697074696F6E3E537065656413
:10AED000206F66206D6F76656D656E7420746F7778
:10AEE00061726473206F6E20706F736974696F6E26
:10AEF0002C20312028736C6F7765737429202D20E6
:10AF000037202866617374657374293C2F646573F8
:10AF10006372697074696F6E3E0A202020202020C1
:10AF200020203C6D696E3E313C2F6D696E3E0A20DB
:10AF3000202020202020203C6D61783E373C2F6D62
:10AF400061783E0A20202020202020203C64656675
:10AF500061756C743E343C2F64656661756C743E3B
:10AF60000A2020202020203C2F696E743E0A2020D9
:10AF7000202020203C696E742073697A653D27315A
:10AF8000273E0A20202020202020203C6E616D6575
:10AF90003E5374617274757020416374696F6E3CC6
:10AFA0002F6E616D653E0A20202020202020203C4D
:10AFB0006465736372697074696F6E3E536572760F
:10AFC0006F20616374696F6E2061742073746172A5
:10AFD0007475703C2F6465736372697074696F6E09
:10AFE0003E0A20202020202020203C6465666175D8
:10AFF0006C743E303C2F64656661756C743E0A204B
:10B00000202020202020203C6D61703E0A2020203E
:10B01000202020202020203C72656C6174696F6EB6
:10B020003E3C70726F70657274793E303C2F707266
:10B030006F70657274793E3C76616C75653E4E6FDB
:10B040006E653C2F76616C75653E3C2F72656C6158
:10B0500074696F6E3E0A20202020202020202020AE
:10B060003C72656C6174696F6E3E3C70726F7065A6
:10B070007274793E313C2F70726F70657274793ED4
:10B080003C76616C75653E4D6F766520746F206C03
:10B0900061737420706F736974696F6E3C2F766191
:10B0A0006C75653E3C2F72656C6174696F6E3E0A0B
:10B0B000202020202020202020203C72656C6174FC
:10B0C000696F6E3E3C70726F70657274793E323C8F
:10B0D0002F70726F70657274793E3C76616C756525
:10B0E0003E4D6F766520746F206F666620706F73BB
:10B0F0006974696F6E3C2F76616C75653E3C2F728A
:10B10000656C6174696F6E3E0A202020202020202B
:10B110002020203C72656C6174696F6E3E3C7072D9
:10B120006F70657274793E333C2F70726F70657208
:10B1300074793E3C76616C75653E4D6F7665207422
:10B140006F206F6E20706F736974696F6E3C2F761D
:10B15000616C75653E3C2F72656C6174696F6E3E03
:10B160000A20202020202020203C2F6D61703E0AE4
:10B170002020202020203C2F696E743E0A202020B1
:10B180002020203C696E742073697A653D27312741
:10B190003E0A20202020202020203C6E616D653E4C
:10B1A0004D756C7469706C6520536572766F2043C1
:10B1B0006F6E74726F6C3C2F6E616D653E0A20205D
:10B1C0002020202020203C646573637269707469BC
:10B1D0006F6E3E4D756C7469706C65205365727648
:10B1E0006F732063616E206D6F766520746F676585
:10B1F00074686572206F722073657175656E74690D
:10B20000616C6C7920287265636F6D6D656E646525
:10B21000642C20746F2072656475636520706F778D
:10B220006572292E3C2F6465736372697074696F4F
:10B230006E3E0A20202020202020203C646566618C
:10B24000756C743E313C2F64656661756C743E0AA2
:10B2500020202020202020203C6D61703E0A2020EC
:10B2600020202020202020203C72656C6174696FB2
:10B270006E3E3C70726F70657274793E303C2F7018
:10B28000726F70657274793E3C76616C75653E4D87
:10B290006F766520746F6765746865723C2F7661A0
:10B2A0006C75653E3C2F72656C6174696F6E3E0A09
:10B2B000202020202020202020203C72656C6174FA
:10B2C000696F6E3E3C70726F70657274793E313C8E
:10B2D0002F70726F70657274793E3C76616C756523
:10B2E0003E4D6F76652073657175656E7469616C2E
:10B2F0006C793C2F76616C75653E3C2F72656C6194
:10B3000074696F6E3E0A20202020202020203C2FD0
:10B310006D61703E0A2020202020203C2F696E7431
:10B320003E0A2020202020203C696E742073697A18
:10B33000653D2731273E0A20202020202020203C68
:10B340006E616D653E536572766F20706F776572C2
:10B350002D646F776E3C2F6E616D653E0A20202054
:10B3600020202020203C6465736372697074696FCB
:10B370006E3E4166746572206D6F76696E672073EC
:10B380006F6D6520736572766F732063616E2062E6
:10B390006520706F776572656420646F776E202812
:10B3A0007265636F6D6D656E64656420746F207285
:10B3B000656475636520706F776572292E0A0A20AF
:10B3C000446F6573206E6F74206170706C792074A7
:10B3D0006F206469676974616C20736572766F733E
:10B3E0002E3C2F6465736372697074696F6E3E0AD8
:10B3F00020202020202020203C64656661756C742C
:10B400003E313C2F64656661756C743E0A202020D5
:10B4100020202020203C6D61703E0A20202020202A
:10B4200020202020203C72656C6174696F6E3E3C68
:10B4300070726F70657274793E313C2F70726F70EC
:10B44000657274793E3C76616C75653E53657276C3
:10B450006F7320706F7765722D646F776E2028721E
:10B4600065636F6D6D656E646564293C2F76616CF4
:10B4700075653E3C2F72656C6174696F6E3E0A2083
:10B480002020202020202020203C72656C617469DF
:10B490006F6E3E3C70726F70657274793E303C2FF7
:10B4A00070726F70657274793E3C76616C75653E42
:10B4B000536572766F2072656D61696E2061637489
:10B4C0006976653C2F76616C75653E3C2F72656CC4
:10B4D0006174696F6E3E0A20202020202020203CCD
:10B4E0002F6D61703E0A2020202020203C2F696EA5
:10B4F000743E0A202020203C2F67726F75703E0A30
:10B5000020203C2F7365676D656E743E0A0A20200B
:10B510003C7365676D656E74206F726967696E3D17
:10B520002738363834272073706163653D273235FC
:10B5300033273E0A202020203C6E616D653E427517
:10B5400074746F6E733C2F6E616D653E0A2020200F
:10B55000203C67726F7570207265706C69636174EE
:10B56000696F6E3D2732273E0A2020202020203C94
:10B570006E616D653E43686F6F7365206576656EBD
:10B5800074732070726F6475636564206279204201
:10B590006C75652F476F6C6420627574746F6E7381
:10B5A0003C2F6E616D653E0A2020202020203C72D9
:10B5B00065706E616D653E423C2F7265706E616DA7
:10B5C000653E0A2020202020203C737472696E673B
:10B5D0002073697A653D273332273E3C6E616D6585
:10B5E0003E427574746F6E204E616D653C2F6E61C6
:10B5F0006D653E3C2F737472696E673E0A20202091
:10B600002020203C67726F7570207265706C6963D2
:10B610006174696F6E3D2732273E0A20202020206A
:10B620002020203C6E616D653E427574746F6E2003
:10B630004576656E74733C2F6E616D653E0A202001
:10B640002020202020203C7265706E616D653E5088
:10B650003C2F7265706E616D653E0A2020202020AF
:10B660002020203C737472696E672073697A653D8F
:10B67000273332273E3C6E616D653E4576656E74BC
:10B68000204E616D653C2F6E616D653E3C2F73747D
:10B6900072696E673E0A20202020202020203C690D
:10B6A0006E742073697A653D2731273E0A20202079
:10B6B000202020202020203C6E616D653E41637477
:10B6C000696F6E3C2F6E616D653E0A202020202040
:10B6D00020202020203C6465736372697074696F58
:10B6E0006E3E4F6E207468697320616374696F6E7B
:10B6F0002E2E2E3C2F6465736372697074696F6EB1
:10B700003E0A202020202020202020203C64656646
:10B7100061756C743E303C2F64656661756C743E77
:10B720000A202020202020202020203C6D61703E17
:10B730000A2020202020202020202020203C72656C
:10B740006C6174696F6E3E3C70726F706572747973
:10B750003E303C2F70726F70657274793E3C76613A
:10B760006C75653E4E6F6E6520286E6F2065766540
:10B770006E742070726F6475636564293C2F766106
:10B780006C75653E3C2F72656C6174696F6E3E0A24
:10B790002020202020202020202020203C72656CAA
:10B7A0006174696F6E3E3C70726F70657274793E41
:10B7B000393C2F70726F70657274793E3C76616CA3
:10B7C00075653E427574746F6E20646F776E3C2FA2
:10B7D00076616C75653E3C2F72656C6174696F6E45
:10B7E0003E0A2020202020202020202020203C72E3
:10B7F000656C6174696F6E3E3C70726F70657274D7
:10B80000793E31303C2F70726F70657274793E3CB6
:10B8100076616C75653E427574746F6E2075703C10
:10B820002F76616C75653E3C2F72656C6174696F33
:10B830006E3E0A202020202020202020203C2F6D3A
:10B8400061703E0A20202020202020203C2F696E9D
:10B85000743E0A20202020202020203C6576656E42
:10B860007469643E0A202020202020202020203CD3
:10B870006E616D653E4576656E743C2F6E616D65DB
:10B880003E0A202020202020202020203C646573B8
:10B890006372697074696F6E3E2E2E2E74686973C0
:10B8A000206576656E742077696C6C206265207007
:10B8B000726F64756365643C2F646573637269704D
:10B8C00074696F6E3E0A20202020202020203C2F0B
:10B8D0006576656E7469643E0A2020202020203C35
:10B8E0002F67726F75703E0A202020203C2F6772F0
:10B8F0006F75703E0A20203C2F7365676D656E740E
:10B900003E0A0A20203C7365676D656E74206F7275
:10B910006967696E3D27383931322720737061635A
:10B92000653D27323533273E0A202020203C6E61BA
:10B930006D653E4C454420436F6E66696775726164
:10B9400074696F6E3C2F6E616D653E0A2020202069
:10B950003C67726F7570207265706C6963617469A1
:10B960006F6E3D2732273E0A2020202020203C6E8B
:10B97000616D653E53657474696E67733C2F6E61CB
:10B980006D653E0A2020202020203C646573637290
:10B99000697074696F6E3E436F6E66696775726534
:10B9A000204C45447320746F20726573706F6E6411
:10B9B00020746F206576656E7473206F7220696ED7
:10B9C000646963617465206E6574776F726B207350
:10B9D00074617475730A2020202020203C2F646538
:10B9E000736372697074696F6E3E0A202020202094
:10B9F000203C7265706E616D653E4C45443C2F7213
:10BA000065706E616D653E0A2020202020203C7309
:10BA10007472696E672073697A653D273332273EF9
:10BA20003C6E616D653E4C4544204E616D653C2F1A
:10BA30006E616D653E3C2F737472696E673E0A20BD
:10BA400020202020203C67726F7570207265706C1A
:10BA500069636174696F6E3D2734273E0A20202098
:10BA600020202020203C6E616D653E4C45442045E1
:10BA700076656E74733C2F6E616D653E0A202020E2
:10BA800020202020203C7265706E616D653E433C35
:10BA90002F7265706E616D653E0A20202020202087
:10BAA00020203C737472696E672073697A653D2744
:10BAB0003332273E3C6E616D653E4576656E74207F
:10BAC0004E616D653C2F6E616D653E3C2F737472E7
:10BAD000696E673E0A20202020202020203C6576C9
:10BAE000656E7469643E0A202020202020202020DA
:10BAF000203C6E616D653E4576656E743C2F6E61CF
:10BB00006D653E0A202020202020202020203C643B
:10BB100065736372697074696F6E3E5370656369B3
:10BB2000667920746865206576656E742074686136
:10BB30007420287768656E20636F6E73756D656419
:10BB4000292077696C6C2063617573652074686562
:10BB5000204C454420616374696F6E3C2F646573AB
:10BB60006372697074696F6E3E0A20202020202065
:10BB700020203C2F6576656E7469643E0A20202083
:10BB800020202020203C696E742073697A653D274F
:10BB900031273E0A202020202020202020203C6E1B
:10BBA000616D653E416374696F6E3C2F6E616D65BA
:10BBB0003E0A202020202020202020203C64657385
:10BBC0006372697074696F6E3E53656C656374204F
:10BBD000746865204C454420616374696F6E2074FD
:10BBE0006F20626520706572666F726D6564206992
:10BBF0006E20726573706F6E736520746F206120A4
:10BC0000636F6E73756D6564206576656E742C0A5E
:10BC1000206F7220746865206E6574776F726B2078
:10BC20006F72206D6F64756C6520737461747573C9
:10BC300020746F20626520646973706C617965643B
:10BC400020627920746865204C45443A3C2F646535
:10BC5000736372697074696F6E3E0A202020202021
:10BC600020202020203C64656661756C743E303C69
:10BC70002F64656661756C743E0A202020202020A8
:10BC8000202020203C6D61703E0A202020202020B2
:10BC90002020202020203C72656C6174696F6E3E0C
:10BCA0003C70726F70657274793E303C2F70726FA9
:10BCB00070657274793E3C76616C75653E4E6F209E
:10BCC000416374696F6E3C2F76616C75653E3C2FE5
:10BCD00072656C6174696F6E3E0A202020202020FE
:10BCE0002020202020203C72656C6174696F6E3EBC
:10BCF0003C70726F70657274793E31313C2F707296
:10BD00006F70657274793E3C76616C75653E5475F2
:10BD1000726E204C4544206F6E2069662065766502
:10BD20006E7420636F6E73756D65643C2F76616C05
:10BD300075653E3C2F72656C6174696F6E3E0A20BA
:10BD400020202020202020202020203C72656C61B3
:10BD500074696F6E3E3C70726F70657274793E31BB
:10BD6000323C2F70726F70657274793E3C76616CF4
:10BD700075653E5475726E204C4544206F66662092
:10BD80006966206576656E7420636F6E73756D6588
:10BD9000643C2F76616C75653E3C2F72656C6174F6
:10BDA000696F6E3E0A2020202020202020202020A5
:10BDB000203C72656C6174696F6E3E3C70726F708E
:10BDC000657274793E31333C2F70726F7065727496
:10BDD000793E3C76616C75653E546F67676C652093
:10BDE0004C4544206966206576656E7420636F6EED
:10BDF00073756D65643C2F76616C75653E3C2F7282
:10BE0000656C6174696F6E3E0A202020202020201E
:10BE100020202020203C72656C6174696F6E3E3C6E
:10BE200070726F70657274793E31353C2F70726F2D
:10BE300070657274793E3C76616C75653E53686FCF
:10BE400077204C4343207061636B65742072656397
:10BE5000657074696F6E3C2F76616C75653E3C2F22
:10BE600072656C6174696F6E3E0A2020202020206C
:10BE70002020202020203C72656C6174696F6E3E2A
:10BE80003C70726F70657274793E31363C2F7072FF
:10BE90006F70657274793E3C76616C75653E53686F
:10BEA0006F77204C4343207061636B65742074721C
:10BEB000616E736D697373696F6E3C2F76616C751B
:10BEC000653E3C2F72656C6174696F6E3E0A20207E
:10BED000202020202020202020203C72656C6174CE
:10BEE000696F6E3E3C70726F70657274793E313767
:10BEF0003C2F70726F70657274793E3C76616C7520
:10BF0000653E53686F7720636F6D62696E6564206C
:10BF10004C434320726563657074696F6E2F747251
:10BF2000616E736D697373696F6E3C2F76616C75AA
:10BF3000653E3C2F72656C6174696F6E3E0A20200D
:10BF4000202020202020202020203C72656C61745D
:10BF5000696F6E3E3C70726F70657274793E3337F4
:10BF60003C2F70726F70657274793E3C76616C75AF
:10BF7000653E53686F77207061636B6574732068EA
:10BF8000616E646C65642062792074686973206EE8
:10BF90006F64653C2F76616C75653E3C2F72656CF5
:10BFA0006174696F6E3E0A2020202020202020200E
:10BFB0002020203C72656C6174696F6E3E3C70722B
:10BFC0006F70657274793E31383C2F70726F706596
:10BFD0007274793E3C76616C75653E496E64696346
:10BFE000617465206661756C7420696E2074686583
:10BFF000206D6F64756C653C2F76616C75653E3C99
:10C000002F72656C6174696F6E3E0A2020202020BB
:10C0100020202020203C2F6D61703E0A202020200F
:10C02000202020203C2F696E743E0A2020202020F2
:10C03000203C2F67726F75703E0A20202020202040
:10C040003C696E742073697A653D2731273E0A206A
:10C05000202020202020203C6E616D653E4C454410
:10C06000205061747465726E3C2F6E616D653E0A7E
:10C0700020202020202020203C646573637269709A
:10C0800074696F6E3E53656C6563742074686520D7
:10C090004C454420626C696E6B20706174746572EB
:10C0A0006E2C20726570656174696E6720617070B6
:10C0B000782E206576657279203220733C2F646576
:10C0C000736372697074696F6E3E0A2020202020AD
:10C0D0002020203C64656661756C743E313C2F64A1
:10C0E000656661756C743E0A202020202020202087
:10C0F0003C6D61703E0A202020202020202020203E
:10C100003C72656C6174696F6E3E3C70726F7065F5
:10C110007274793E313C2F70726F70657274793E23
:10C120003C76616C75653E4C4544206F6E3C2F76C5
:10C13000616C75653E3C2F72656C6174696F6E3E13
:10C140000A202020202020202020203C72656C61C5
:10C1500074696F6E3E3C70726F70657274793E32B6
:10C160003C2F70726F70657274793E3C76616C75AD
:10C17000653E4C4544206F66663C2F76616C756564
:10C180003E3C2F72656C6174696F6E3E0A20202000
:10C19000202020202020203C72656C6174696F6E25
:10C1A0003E3C70726F70657274793E333C2F7072D2
:10C1B0006F70657274793E3C76616C75653E4F6652
:10C1C0006620776974682053686F7274202836344B
:10C1D000206D732920626C696E6B206F6E3C2F7628
:10C1E000616C75653E3C2F72656C6174696F6E3E63
:10C1F0000A202020202020202020203C72656C6115
:10C2000074696F6E3E3C70726F70657274793E3403
:10C210003C2F70726F70657274793E3C76616C75FC
:10C22000653E4F66662077697468204C6F6E6720A4
:10C2300028353132206D732920626C696E6B206F56
:10C240006E3C2F76616C75653E3C2F72656C617437
:10C25000696F6E3E0A202020202020202020203CD4
:10C2600072656C6174696F6E3E3C70726F7065725E
:10C2700074793E353C2F70726F70657274793E3CF4
:10C2800076616C75653E457175616C206F6E2F6FC0
:10C2900066663C2F76616C75653E3C2F72656C61FD
:10C2A00074696F6E3E0A202020202020202020204C
:10C2B0003C72656C6174696F6E3E3C70726F706544
:10C2C0007274793E363C2F70726F70657274793E6D
:10C2D0003C76616C75653E457175616C206F6E2FA3
:10C2E0006F66662C206661737465723C2F76616C94
:10C2F00075653E3C2F72656C6174696F6E3E0A20F5
:10C300002020202020202020203C72656C61746950
:10C310006F6E3E3C70726F70657274793E373C2F61
:10C3200070726F70657274793E3C76616C75653EB3
:10C330004F6E20776974682053686F7274202836B6
:10C3400034206D732920626C696E6B206F66663CC9
:10C350002F76616C75653E3C2F72656C6174696FF8
:10C360006E3E0A202020202020202020203C7265C4
:10C370006C6174696F6E3E3C70726F706572747937
:10C380003E383C2F70726F70657274793E3C7661F6
:10C390006C75653E4F6E2077697468204C6F6E67D0
:10C3A0002028353132206D732920626C696E6B2034
:10C3B0006F66663C2F76616C75653E3C2F72656CCE
:10C3C0006174696F6E3E0A202020202020202020EA
:10C3D000203C72656C6174696F6E3E3C70726F7068
:10C3E000657274793E303C2F70726F70657274792B
:10C3F0003E3C76616C75653E55736520637573745C
:10C400006F6D207061747465726E3C2F76616C750F
:10C41000653E3C2F72656C6174696F6E3E0A202028
:10C420002020202020203C2F6D61703E0A202020FB
:10C430002020203C2F696E743E0A202020203C2FB3
:10C4400067726F75703E0A20203C2F7365676D65BB
:10C450006E743E0A0A20203C7365676D656E742019
:10C460006F726967696E3D273933303627207370E4
:10C470006163653D27323533273E0A202020203C6A
:10C480006E616D653E506F776572204D6F6E697499
:10C490006F723C2F6E616D653E0A202020203C6447
:10C4A00065736372697074696F6E3E506F77657201
:10C4B00020646F776E206576656E7473206D617988
:10C4C000206E6F742062652070726F64756365649E
:10C4D0002072656C6961626C793C2F64657363726C
:10C4E000697074696F6E3E0A202020203C696E746A
:10C4F0002073697A653D2731273E0A2020202020BD
:10C50000203C6E616D653E506F77657220457665A3
:10C510006E74733C2F6E616D653E0A2020202020D2
:10C52000203C64656661756C743E303C2F646566C2
:10C5300061756C743E0A2020202020203C6D6170C3
:10C540003E0A20202020202020203C72656C61744F
:10C55000696F6E3E3C70726F70657274793E303CEC
:10C560002F70726F70657274793E3C76616C756580
:10C570003E4E6F6E653C2F76616C75653E3C2F724A
:10C58000656C6174696F6E3E0A2020202020202097
:10C59000203C72656C6174696F6E3E3C70726F70A6
:10C5A000657274793E313C2F70726F706572747968
:10C5B0003E3C76616C75653E506F77657220446FC6
:10C5C000776E204F6E6C793C2F76616C75653E3CC2
:10C5D0002F72656C6174696F6E3E0A2020202020E6
:10C5E0002020203C72656C6174696F6E3E3C7072F5
:10C5F0006F70657274793E323C2F70726F70657225
:10C6000074793E3C76616C75653E506F776572203B
:10C610005570204F6E6C793C2F76616C75653E3C91
:10C620002F72656C6174696F6E3E0A202020202095
:10C630002020203C72656C6174696F6E3E3C7072A4
:10C640006F70657274793E333C2F70726F706572D3
:10C6500074793E3C76616C75653E416C6C3C2F761E
:10C66000616C75653E3C2F72656C6174696F6E3EDE
:10C670000A2020202020203C2F6D61703E0A2020BF
:10C6800020203C2F696E743E0A202020203C6576D5
:10C69000656E7469643E0A2020202020203C6E6173
:10C6A0006D653E506F77657220446F776E20286D00
:10C6B000617920626520756E61626C6520746F20FF
:10C6C00073656E64293C2F6E616D653E0A202020E3
:10C6D0002020203C6465736372697074696F6E3EDC
:10C6E0005768656E207468652043414E20627573FB
:10C6F00020706F776572206661696C732C20746896
:10C700006973206576656E742077696C6C2062654C
:10C710002073656E742E3C2F646573637269707448
:10C72000696F6E3E0A202020203C2F6576656E746E
:10C7300069643E0A202020203C6576656E74696439
:10C740003E0A2020202020203C6E616D653E506F07
:10C750007765722055703C2F6E616D653E0A202012
:10C76000202020203C6465736372697074696F6E69
:10C770003E5768656E207468652043414E2062759F
:10C780007320706F776572206973204F4B2C207473
:10C79000686973206576656E742077696C6C2062B9
:10C7A000652073656E742E3C2F64657363726970C7
:10C7B00074696F6E3E0A202020203C2F6576656EDE
:10C7C0007469643E0A20203C2F7365676D656E7442
:10C7D0003E0A202020203C7365676D656E74206FD3
:10C7E000726967696E3D2732272073706163653D0A
:10C7F00027323533273E203C212D2D205370616395
:10C80000652030784644207374756666206D6167D4
:10C81000696320746F20747269676765722072653E
:10C8200073657473202D2D3E0A20202020202020A7
:10C83000203C6E616D653E526573657420436F6E7A
:10C8400074726F6C3C2F6E616D653E0A2020202053
:10C85000202020203C6465736372697074696F6E78
:10C860003E436F6E74726F6C7320616374696F6E98
:10C8700073206174206E65787420626F6172642029
:10C8800072657365743C2F64657363726970746953
:10C890006F6E3E0A20202020202020203C696E74EC
:10C8A0002073697A653D2731273E0A202020202009
:10C8B000202020202020203C6E616D653E41637465
:10C8C000696F6E206F6E2072657365743C2F6E61A8
:10C8D0006D653E0A202020202020202020202020BE
:10C8E0003C64656661756C743E3233383C2F646518
:10C8F0006661756C743E0A202020202020202020B4
:10C900002020203C6D61703E0A2020202020202025
:10C910002020202020202020203C72656C6174693A
:10C920006F6E3E3C70726F70657274793E32333850
:10C930003C2F70726F70657274793E3C76616C75D5
:10C94000653E4E6F726D616C204F706572617469E7
:10C950006F6E3C2F76616C75653E3C2F72656C6125
:10C9600074696F6E3E0A2020202020202020202085
:10C970002020202020203C72656C6174696F6E3E1F
:10C980003C70726F70657274793E35313C2F7072F5
:10C990006F70657274793E3C76616C75653E436C70
:10C9A0006561722045766572797468696E67206288
:10C9B000757420437265617465204E657720556EED
:10C9C00075736564204576656E744944733C2F76B3
:10C9D000616C75653E3C2F72656C6174696F6E3E6B
:10C9E0000A2020202020202020202020202020205D
:10C9F000203C72656C6174696F6E3E3C70726F7042
:10CA0000657274793E3235353C2F70726F70657285
:10CA100074793E3C76616C75653E436C656172204D
:10CA200045766572797468696E67206261636B2010
:10CA3000746F20466163746F727920446566617516
:10CA40006C74733C2F76616C75653E3C2F72656C1F
:10CA50006174696F6E3E0A20202020202020202053
:10CA6000202020202020203C72656C6174696F6E4C
:10CA70003E3C70726F70657274793E36383C2F7030
:10CA8000726F70657274793E3C76616C75653E526A
:10CA90006573657420616E6420656E7465722074C0
:10CAA000657374206D6F6465202873656520646FFD
:10CAB00063756D656E746174696F6E2066697273FB
:10CAC0007421293C2F76616C75653E3C2F72656C34
:10CAD0006174696F6E3E0A202020202020202020D3
:10CAE0002020203C2F6D61703E0A20202020202035
:10CAF00020203C2F696E743E0A202020203C2F739A
:10CB000065676D656E743E0A202020203C2F6364AB
:10CB1000693E0A00045350524F4720444343204C7F
:10CB2000746400000000000000000000000000002D
:10CB3000000000000000000000000000000053455D
:10CB400052564F494F2D4C43430000000000000057
:10CB500000000000000000000000000000000000D5
:10CB600000000000000000312E3000000000000036
:10CB7000000000000000000000000000322E320023
:10CB800000000000000000000000000000000000A5
:10CB900000010204081020408000FFAF7864554B6C
:10CBA0003C0001020305070A14CA0020F300201C00
:10CBB00001204501206E0120970120C10140EA01BA
:10CBC000401302403C02406502408E0240DD0220DC
:10CBD0000603202F0320580320810320AA0320D41A
:10CBE0000340FD03402604404F0440780440A10464
:10CBF00040F004201905204205206B0520940520F3
:10CC0000BD0520E705401006403906406206408B0E
:10CC10000640B406400307202C07205507207E0756
:10CC200020A70720D00720FA07402308404C0840DF
:10CC30007508409E0840C708401609203F09206833
:10CC40000920910920BA0920E309200D0A40360A7B
:10CC5000405F0A40880A40B10A40DA0A40290B20A6
:10CC6000520B207B0B20A40B20CD0B20F60B202099
:10CC70000C40490C40720C409B0C40C40C40ED0C25
:10CC8000403C0D20650D208E0D20B70D20E00D20BD
:10CC9000090E20330E405C0E40850E40AE0E40D78C
:10CCA0000E40000F404F0F20780F20A10F20CA0F19
:10CCB00020F30F201C10204610406F1040981040A9
:10CCC000C11040EA10401311406311208C1120B5AF
:10CCD0001120DE11200712203012205A1240831238
:10CCE00040AC1240D51240FE12402713407613206C
:10CCF0009F1320C81320F113201A14204314206D11
:10CD00001440961440BF1440E814401115403A15E1
:10CD100040891520B21520DB15200416202D162081
:10CD2000561620801640A91640D21640FB16402405
:10CD300017404D17409C1720C51720EE17201718D5
:10CD400020401820691820931840BC1840E518406E
:10CD50000E1940371940601940AF1920D819200129
:10CD60001A202A1A20531A207C1A20A61A40CF1AF9
:10CD700040F81A40211B404A1B40731B40C21B2035
:10CD8000EB1B20141C203D1C20661C208F1C20B98E
:10CD90001C40E21C400B1D40341D405D1D40861DA3
:10CDA00040D51D20FE1D20271E20501E20791E204C
:10CDB000A21E20CC1E40F51E401E1F40471F407083
:10CDC0001F40991F40E81F201120203A2020632097
:10CDD000208C2020B52020DF204008214031214038
:10CDE0005A2140832140AC21402D22405622409FB1
:10CDF0002240C822401023203923206223208B2385
:10CE000020D52320FE23202724205024205B2440EB
:10CE1000632440476F6C6400426C75650000030E2C
:10CE200005017C6F000E7D6F000E7E6F000E7F6F20
:10CE3000170E806FCE0E816F4EECB5F0420E0501DD
:10CE40007C6F000E7D6F000E7E6F000E7F6F170EE1
:10CE5000806FCE0E816F4EECB5F0820E0501756FBE
:10CE6000000E766F000E776F000E786F000E796FF0
:10CE700098ECC0F00501A66BA651916F926B130E52
:10CE80009103F3C493F5F4C494F59203F3509427FB
:10CE9000020E9103F3509427830E9325956F000E95
:10CEA0009421966F95C57CF596C57DF57E6B7F6B5D
:10CEB000170E806FCE0E816F4EECB5F00501A651B6
:10CEC000916F926B130E9103F3C493F5F4C494F530
:10CED0009203F3509427020E9103F3509427A30E6C
:10CEE0009325956F000E9421966F95C575F596C59F
:10CEF00076F5776B786B020E796F98ECC0F00501D0
:10CF0000A651916F926B130E9103F3C493F5F4C481
:10CF100094F59203F3509427020E9103F350942753
:10CF2000A40E9325956F000E9421966F95C575F507
:10CF300096C576F5776B786B000E796F98ECC0F03C
:10CF40000501A651916F926B130E9103F3C493F5F3
:10CF5000F4C494F59203F3509427020E9103F35016
:10CF60009427A50E9325956F000E9421966F95C575
:10CF700076F596C577F5786B796B000E7B6F0A0EA8
:10CF80007A6FD5ECBAF00501A651916F926B130E32
:10CF90009103F3C493F5F4C494F59203F3509427EA
:10CFA000020E9103F3509427A70E9325956F000E60
:10CFB0009421966F95C576F596C577F5786B796B64
:10CFC000000E7B6F0A0E7A6FD5ECBAF00501A65100
:10CFD000916F926B130E9103F3C493F5F4C494F51F
:10CFE0009203F3509427020E9103F3509427A90E55
:10CFF0009325956F000E9421966F95C575F596C58E
:10D0000076F5776B786B000E796F98ECC0F00501C0
:10D01000A651916F926B130E9103F3C493F5F4C470
:10D0200094F59203F3509427020E9103F350942742
:10D03000AA0E9325956F000E9421966F95C57CF5E9
:10D0400096C57DF57E6B7F6B170E806FCE0E816F60
:10D050004EECB5F00501A651916F926B130E910342
:10D06000F3C493F5F4C494F59203F3509427020E9D
:10D070009103F3509427D20E9325956F000E9421BF
:10D08000966F95C575F596C576F5776B786B030E3B
:10D09000796F98ECC0F00501A651916F926B130E59
:10D0A0009103F3C493F5F4C494F59203F3509427D9
:10D0B000020E9103F3509427D30E9325956F000E23
:10D0C0009421966F95C57CF596C57DF57E6B7F6B3B
:10D0D000170E806FCE0E816F4EECB5F00501A65194
:10D0E000916F926B130E9103F3C493F5F4C494F50E
:10D0F0009203F3509427020E9103F3509427FB0EF2
:10D100009325956F000E9421966F95C575F596C57C
:10D1100076F5776B786B020E796F98ECC0F0020EA3
:10D120000501A56FA551290DF3C491F5F4C492F53D
:10D13000A651936F946B130E9303F3C495F5F4C447
:10D1400096F59403F3509627020E9303F350962717
:10D15000AA0E9525976F000E9621986F91519725ED
:10D16000996F925198219A6F99C57CF59AC57DF572
:10D170007E6B7F6B170E806FCE0E816F4EECB5F01D
:10D180000501A551290DF3C491F5F4C492F5A651FA
:10D19000936F946B130E9303F3C495F5F4C496F553
:10D1A0009403F3509627020E9303F3509627D20E62
:10D1B0009525976F000E9621986F91519725996F3D
:10D1C000925198219A6F99C575F59AC576F5776B46
:10D1D000786B000E796F98ECC0F00501A52B050E59
:10D1E000A565A0D7A56BA551290DF3C491F5F4C48D
:10D1F00092F5A651936F946B130E9303F3C495F5B8
:10D20000F4C496F59403F3509627020E9303F3505B
:10D210009627A00E9525976F010E9621986F915134
:10D220009725996F925198219A6F99C57CF59AC567
:10D230007DF57E6B7F6B170E806FCE0E816F4EEC8F
:10D24000B5F00501A551290DF3C491F5F4C492F58B
:10D25000A651936F946B130E9303F3C495F5F4C426
:10D2600096F59403F3509627020E9303F3509627F6
:10D27000C00E9525976F010E9621986F91519725B5
:10D28000996F925198219A6F99C575F59AC576F55F
:10D29000776B786B000E796F98ECC0F00501A52BC9
:10D2A000050EA565A0D7A62B070EA665E5D51B0E16
:10D2B000756F110E766F000E776F000E786F000E8F
:10D2C000796F98ECC0F00501A66BA651916F926B37
:10D2D000130E9103F3C493F5F4C494F59203F35041
:10D2E0009427020E9103F35094271C0E9325956FFB
:10D2F000110E9421966F95C57CF596C57DF57E6BD4
:10D300007F6B170E806FCE0E816F4EECB5F005016E
:10D31000A651916F926B130E9103F3C493F5F4C46D
:10D3200094F59203F3509427020E9103F35094273F
:10D330003C0E9325956F110E9421966F95C575F54A
:10D3400096C576F5776B786B010E796F98ECC0F027
:10D350000501A651916F926B130E9103F3C493F5DF
:10D36000F4C494F59203F3509427020E9103F35002
:10D3700094273D0E9325956F110E9421966F95C5B8
:10D3800075F596C576F5776B786B000E796F98EC2E
:10D39000C0F00501A651916F926B130E9103F3C477
:10D3A00093F5F4C494F59203F3509427020E91037D
:10D3B000F35094273E0E9325956F110E9421966F8E
:10D3C00095C576F596C577F5786B796B000E7B6F12
:10D3D0000A0E7A6FD5ECBAF00501A651916F926BE7
:10D3E000130E9103F3C493F5F4C494F59203F35030
:10D3F0009427020E9103F3509427400E9325956FC6
:10D40000110E9421966F95C576F596C577F5786BD4
:10D41000796B000E7B6F0A0E7A6FD5ECBAF00501BE
:10D42000A651916F926B130E9103F3C493F5F4C45C
:10D4300094F59203F3509427020E9103F35094272E
:10D44000420E9325956F110E9421966F95C575F533
:10D4500096C576F5776B786B000E796F98ECC0F017
:10D460000501A56BA551290DF3C491F5F4C492F5FE
:10D47000A651936F946B130E9303F3C495F5F4C404
:10D4800096F59403F3509627020E9303F3509627D4
:10D49000430E9525976F110E9621986F9151972500
:10D4A000996F925198219A6F99C57CF59AC57DF52F
:10D4B0007E6B7F6B170E806FCE0E816F4EECB5F0DA
:10D4C0000501A551290DF3C491F5F4C492F5A651B7
:10D4D000936F946B130E9303F3C495F5F4C496F510
:10D4E0009403F3509627020E9303F35096276B0E86
:10D4F0009525976F110E9621986F91519725996FE9
:10D50000925198219A6F99C575F59AC576F5776B02
:10D51000786B000E796F98ECC0F00501A52B050E15
:10D52000A565A0D7A651916F926B130E9103F3C41A
:10D5300093F5F4C494F59203F3509427020E9103EB
:10D54000F3509427390E9325956F120E9421966F00
:10D5500095C57CF596C57DF57E6B7F6B170E806F4C
:10D56000CE0E816F4EECB5F00501A651916F926B16
:10D57000130E9103F3C493F5F4C494F59203F3509E
:10D580009427020E9103F3509427590E9325956F1B
:10D59000120E9421966F95C575F596C576F5776B45
:10D5A000786B080E796F98ECC0F00501A651916F69
:10D5B000926B130E9103F3C493F5F4C494F59203A4
:10D5C000F3509427020E9103F3509427620E932593
:10D5D000956F120E9421966F95C57CF596C57DF5D5
:10D5E0007E6B7F6B170E806FCE0E816F4EECB5F0A9
:10D5F0000501A651916F926B130E9103F3C493F53D
:10D60000F4C494F59203F3509427020E9103F3505F
:10D610009427820E9325956F120E9421966F95C5CF
:10D6200075F596C576F5776B786B070E796F98EC84
:10D63000C0F0020E0501A56FA551290DF3C491F5A7
:10D64000F4C492F5A651936F946B130E9303F3C435
:10D6500095F5F4C496F59403F3509627020E9303C0
:10D66000F3509627390E9525976F120E9621986FD5
:10D6700091519725996F925198219A6F99C57CF590
:10D680009AC57DF57E6B7F6B170E806FCE0E816F16
:10D690004EECB5F00501A551290DF3C491F5F4C484
:10D6A00092F5A651936F946B130E9303F3C495F503
:10D6B000F4C496F59403F3509627020E9303F350A7
:10D6C0009627590E9525976F120E9621986F9151B6
:10D6D0009725996F925198219A6F99C575F59AC5BA
:10D6E00076F5776B786B000E796F98ECC0F00501DA
:10D6F000A52B050EA565A0D7A62B070EA665E5D51B
:10D70000A66BA651070DB40EF324916F210EF420E1
:10D71000926F91C575F592C576F5776B786B7D0E36
:10D72000796F98ECC0F00501A651070DB50EF324F2
:10D73000916F210EF420926F91C575F592C576F523
:10D74000776B786B7D0E796F98ECC0F00501A65170
:10D75000070DB60EF324916F210EF420926F91C540
:10D7600075F592C576F5776B786B040E796F98EC4A
:10D77000C0F00501A651070DB70EF324916F210EDD
:10D78000F420926F91C575F592C576F5776B786B3D
:10D79000040E796F98ECC0F00501A651070DB80E84
:10D7A000F324916F210EF420926F91C575F592C507
:10D7B00076F5776B786B000E796F98ECC0F0050109
:10D7C000A651070DB90EF324916F210EF420926F2C
:10D7D00091C575F592C576F5776B786B010E796F0B
:10D7E00098ECC0F00501A651070DBA0EF324916F15
:10D7F000210EF420926F91C575F592C576F5776B81
:10D80000786B010E796F98ECC0F00501A651916F0D
:10D81000926B936BF00E9125616F030E9221626FF4
:10D82000380E9321636F000E646F59ECC3F005014D
:10D83000A62B070EA66565D7A66BA651720DEC0E3A
:10D84000F324916F210EF420926F91C57CF592C55F
:10D850007DF57E6B7F6B170E806FCE0E816F4EEC69
:10D86000B5F00501A56BA551290DF3C491F5F4C4DC
:10D8700092F5A651720D0C0EF324936F220EF42034
:10D88000946F91519325956F92519421966F95C500
:10D890007CF596C57DF57E6B7F6B170E806FCE0E87
:10D8A000816F4EECB5F00501A52B010EA565DBD708
:10D8B000A62B010EA665C1D7EC0E7C6F210E7D6FE5
:10D8C000000E7E6F000E7F6F180E806FCE0E816F80
:10D8D0004EECB5F02C0E0501756F220E766F000E22
:10D8E000776F000E786F090E796F98ECC0F0550EC7
:10D8F0000501756F220E766F000E776F000E786F40
:10D900000A0E796F98ECC0F05E0E05017C6F220E56
:10D910007D6F000E7E6F000E7F6F130E806FCE0E38
:10D92000816F4EECB5F09E0E0501756F220E766F7D
:10D93000000E776F000E786F090E796F98ECC0F0CB
:10D94000C70E0501756F220E766F000E776F000E01
:10D95000786F0A0E796F98ECC0F0D00E05017C6FDD
:10D96000220E7D6F000E7E6F000E7F6F180E806F8F
:10D97000CE0E816F4EECB5F0950E05017C6F230E37
:10D980007D6F000E7E6F000E7F6F130E806FCE0EC8
:10D99000816F4EECB5F00501A66BA651C50D940E36
:10D9A000F324916F230EF420926F91C575F592C503
:10D9B00076F5776B786B030E796F98ECC0F0050104
:10D9C000A56BA551290DF3C491F5F4C492F5A651A8
:10D9D000C50DF00EF324936F220EF420946F915135
:10D9E0009325956F92519421966F95C57CF596C5B8
:10D9F0007DF57E6B7F6B170E806FCE0E816F4EECC8
:10DA0000B5F00501A551290DF3C491F5F4C492F5C3
:10DA1000A651C50D180EF324936F230EF420946FB6
:10DA200091519325956F92519421966F95C575F5F7
:10DA300096C576F5776B786B000E796F98ECC0F031
:10DA40000501A52B030EA565BCD7A62B010EA66567
:10DA5000A4D7180E756F230E766F000E776F000E29
:10DA6000786F0F0E796F98ECC0F0940E0501756F0A
:10DA7000230E766F000E776F000E786F030E796FAE
:10DA800098ECC0F0DD0E0501756F230E766F000E69
:10DA9000776F000E786F100E796F98ECC0F0590E0A
:10DAA0000501756F240E766F000E776F000E786F8C
:10DAB000030E796F98ECC0F05A0E0501756F240EB5
:10DAC000766F000E776F000E786F000E796F98EC0E
:10DAD000C0F0750E0501616F070E626FCC0E636FAB
:10DAE00080ECC8F061C59BF562C59CF59D0E616F29
:10DAF000050E626F010E636F000E646F000E656F9E
:10DB0000000E666F000E676F000E686FFF0E696F84
:10DB1000F10E6A6F7CECBDF09BC57AF59CC57BF578
:10DB20007C6B7D6B9D0E7E6F050E7F6F000E816F8F
:10DB3000080E806F3EECBAF01200B1ECC1F061C586
:10DB40007FF562C580F563C581F564C582F545D270
:10DB5000F56B010ECED1F551240DF3C474F5F4C468
:10DB600075F520EE05F00750D9260850DA22DEC4FC
:10DB700076F5DDC477F574517625786F7551772188
:10DB8000796F210E7825D96E000E7921DA6EDE04C8
:10DB9000D8A488D0F651240DF3C474F5F4C475F5F7
:10DBA00020EE05F00750D9260850DA22DEC476F5BB
:10DBB000DDC477F574517625786F75517721796FCB
:10DBC0000F0E7825D96E000E7921DA6EDE6ADE6AD4
