:1080000002012C020000FF00FF00FF00FF00FF0044
:108100008EEF40F0FF00FF0030EF80F0FF00FF0037
:10811000FF00FF00FF00FF002CEF69F011EF74F08B
:1081200000202020203C63646920786D6C6E733AD7
:108130007873693D27687474703A2F2F7777772E9C
:1081400077332E6F72672F323030312F584D4C53AA
:108150006368656D612D696E7374616E6365272058
:108160007873693A6E6F4E616D65737061636553C4
:108170006368656D614C6F636174696F6E3D2768FC
:108180007474703A2F2F6F70656E6C63622E6F720D
:10819000672F7472756E6B2F70726F746F74797055
:1081A00065732F786D6C2F736368656D612F6364E1
:1081B000692E787364273E0A202020203C6964657C
:1081C0006E74696669636174696F6E3E0A2020206F
:1081D00020202020203C6D616E756661637475728D
:1081E00065723E5350524F4720444343204C7464C1
:1081F0003C2F6D616E7566616374757265723E0ABF
:1082000020202020202020203C6D6F64656C3E558E
:1082100053422D4C43433C2F6D6F64656C3E0A20E6
:10822000202020202020203C6861726477617265E4
:1082300056657273696F6E3E312E303C2F686172E5
:10824000647761726556657273696F6E3E0A2020AD
:108250002020202020203C736F6674776172655661
:10826000657273696F6E3E312E343C2F736F667486
:108270007761726556657273696F6E3E0A202020C1
:10828000203C2F6964656E74696669636174696F07
:108290006E3E0A202020203C616364692F3E0A2044
:1082A0002020203C7365676D656E74206F7269676E
:1082B000696E3D2733272073706163653D27323532
:1082C00033273E203C212D2D2053706163652030E3
:1082D000784644202D2D3E0A2020202020202020DA
:1082E0003C6E616D653E4E6F6465204465736372DC
:1082F000697074696F6E3C2F6E616D653E0A202057
:108300002020202020203C646573637269707469AA
:108310006F6E3E557365722D70726F766964656419
:10832000206465736372697074696F6E206F662074
:10833000746865206E6F64653C2F64657363726951
:108340007074696F6E3E0A20202020202020203C7F
:10835000737472696E672073697A653D27363327B7
:108360003E3C6E616D653E4E6F6465204E616D658D
:108370003C2F6E616D653E3C2F737472696E673E73
:108380000A20202020202020203C737472696E6710
:108390002073697A653D273634273E3C6E616D65F2
:1083A0003E4E6F6465204465736372697074696FD3
:1083B0006E3C2F6E616D653E3C2F737472696E6703
:1083C0003E0A202020203C2F7365676D656E743E49
:1083D0000A0A20203C7365676D656E74206F7269B0
:1083E00067696E3D27313330272073706163653DC7
:1083F00027323533273E0A202020203C6E616D65F0
:108400003E446F63756D656E746174696F6E3C2F69
:108410006E616D653E0A2020202020203C6465733B
:108420006372697074696F6E3E446F63756D656EDB
:10843000746174696F6E206D61792061707065611F
:108440007220686572652E20496E20746865206D03
:1084500065616E74696D652C20706C656173652053
:108460007669736974206F757220776562736974B9
:1084700065207777772E7370726F672D6463632E34
:10848000636F2E756B0A2020202020203C2F64650E
:10849000736372697074696F6E3E0A20203C2F739B
:1084A00065676D656E743E0A0A20203C7365676DD2
:1084B000656E74206F726967696E3D2731333027AE
:1084C0002073706163653D27323533273E202020BD
:1084D000203C6E616D653E4C454420436F6E66697D
:1084E0006775726174696F6E3C2F6E616D653E0ACF
:1084F000202020203C67726F7570207265706C6957
:10850000636174696F6E3D2732273E0A2020202068
:1085100020203C6E616D653E53657474696E6773AF
:108520003C2F6E616D653E0A2020202020203C6497
:1085300065736372697074696F6E3E436F6E6669CE
:1085400067757265204C45447320746F20726573A3
:10855000706F6E6420746F206576656E7473206F23
:108560007220696E646963617465206E6574776FEB
:10857000726B207374617475730A20202020202090
:108580003C2F6465736372697074696F6E3E0A2074
:1085900020202020203C7265706E616D653E4C4548
:1085A000443C2F7265706E616D653E0A202020206C
:1085B00020203C737472696E672073697A653D2769
:1085C0003332273E3C6E616D653E4C4544204E6122
:1085D0006D653C2F6E616D653E3C2F737472696EE4
:1085E000673E0A2020202020203C67726F75702093
:1085F0007265706C69636174696F6E3D2734273EE4
:108600000A20202020202020203C6E616D653E4CF9
:108610004544204576656E74733C2F6E616D653EF2
:108620000A20202020202020203C7265706E616D81
:10863000653E433C2F7265706E616D653E0A202079
:108640002020202020203C737472696E672073699B
:108650007A653D273332273E3C6E616D653E457637
:10866000656E74204E616D653C2F6E616D653E0ACE
:10867000202020202020202020203C64657363726D
:10868000697074696F6E3E4F7074696F6E616C20B3
:108690002D20656E746572206120757365722D667C
:1086A0007269656E646C79206576656E74206E61A2
:1086B0006D653C2F6465736372697074696F6E3E9B
:1086C0000A20202020202020203C2F737472696E05
:1086D000673E0A20202020202020203C6576656E01
:1086E0007469643E0A202020202020202020203C85
:1086F0006E616D653E4576656E743C2F6E616D658D
:108700003E0A202020202020202020203C64657369
:108710006372697074696F6E3E53706563696679E0
:1087200020746865206576656E74207468617420B5
:10873000287768656E20636F6E73756D6564292098
:1087400077696C6C20636175736520746865204C73
:10875000454420616374696F6E3C2F646573637276
:10876000697074696F6E3E0A20202020202020202E
:108770003C2F6576656E7469643E0A2020202020B7
:108780002020203C696E742073697A653D2731276B
:108790003E0A202020202020202020203C6E616DD9
:1087A000653E416374696F6E3C2F6E616D653E0A74
:1087B000202020202020202020203C64657363722C
:1087C000697074696F6E3E53656C6563742074687C
:1087D00065204C454420616374696F6E20746F207E
:1087E000626520706572666F726D656420696E20C7
:1087F000726573706F6E736520746F206120636F94
:108800006E73756D6564206576656E742C0A206FD5
:108810007220746865206E6574776F726B206F725A
:10882000206D6F64756C652073746174757320744A
:108830006F20626520646973706C61796564206281
:108840007920746865204C45443A3C2F6465736315
:1088500072697074696F6E3E0A20202020202020EB
:108860002020203C64656661756C743E303C2F644A
:10887000656661756C743E0A20202020202020202F
:1088800020203C6D61703E0A2020202020202020E6
:10889000202020203C72656C6174696F6E3E3C70D4
:1088A000726F70657274793E303C2F70726F7065B4
:1088B0007274793E3C76616C75653E4E6F20416303
:1088C00074696F6E3C2F76616C75653E3C2F7265E6
:1088D0006C6174696F6E3E0A2020202020202020C9
:1088E000202020203C72656C6174696F6E3E3C7084
:1088F000726F70657274793E31313C2F70726F7097
:10890000657274793E3C76616C75653E5475726E25
:10891000204C4544206F6E206966206576656E7434
:1089200020636F6E73756D65643C2F76616C756541
:108930003E3C2F72656C6174696F6E3E0A20202088
:108940002020202020202020203C72656C6174694A
:108950006F6E3E3C70726F70657274793E31323C5E
:108960002F70726F70657274793E3C76616C7565BC
:108970003E5475726E204C4544206F6666206966D1
:10898000206576656E7420636F6E73756D65643CEB
:108990002F76616C75653E3C2F72656C6174696FF2
:1089A0006E3E0A2020202020202020202020203C55
:1089B00072656C6174696F6E3E3C70726F70657247
:1089C00074793E31333C2F70726F70657274793EEA
:1089D0003C76616C75653E546F67676C65204C45ED
:1089E00044206966206576656E7420636F6E7375CA
:1089F0006D65643C2F76616C75653E3C2F72656CCD
:108A00006174696F6E3E0A202020202020202020E3
:108A10002020203C72656C6174696F6E3E3C707200
:108A20006F70657274793E31353C2F70726F70656E
:108A30007274793E3C76616C75653E53686F772041
:108A40004C4343207061636B65742072656365708D
:108A500074696F6E3C2F76616C75653E3C2F726554
:108A60006C6174696F6E3E0A202020202020202037
:108A7000202020203C72656C6174696F6E3E3C70F2
:108A8000726F70657274793E31363C2F70726F7000
:108A9000657274793E3C76616C75653E53686F779C
:108AA000204C4343207061636B6574207472616E67
:108AB000736D697373696F6E3C2F76616C75653E7B
:108AC0003C2F72656C6174696F6E3E0A2020202015
:108AD00020202020202020203C72656C6174696F6A
:108AE0006E3E3C70726F70657274793E31373C2F08
:108AF00070726F70657274793E3C76616C75653E1C
:108B000053686F7720636F6D62696E6564204C43B4
:108B10004320726563657074696F6E2F7472616E45
:108B2000736D697373696F6E3C2F76616C75653E0A
:108B30003C2F72656C6174696F6E3E0A20202020A4
:108B400020202020202020203C72656C6174696FF9
:108B50006E3E3C70726F70657274793E33373C2F95
:108B600070726F70657274793E3C76616C75653EAB
:108B700053686F77207061636B6574732068616EF2
:108B8000646C65642062792074686973206E6F6418
:108B9000653C2F76616C75653E3C2F72656C617427
:108BA000696F6E3E0A2020202020202020202020D7
:108BB000203C72656C6174696F6E3E3C70726F70C0
:108BC000657274793E31383C2F70726F70657274C3
:108BD000793E3C76616C75653E496E64696361748B
:108BE00065206661756C7420696E20746865206DFF
:108BF0006F64756C653C2F76616C75653E3C2F72B9
:108C0000656C6174696F6E3E0A2020202020202050
:108C10002020203C2F6D61703E0A20202020202043
:108C200020203C2F696E743E0A2020202020203C0A
:108C30002F67726F75703E0A2020202020203C692B
:108C40006E742073697A653D2731273E0A20202003
:108C500020202020203C6E616D653E4C4544205014
:108C600061747465726E3C2F6E616D653E0A2020E2
:108C70002020202020203C64657363726970746931
:108C80006F6E3E53656C65637420746865204C4557
:108C90004420626C696E6B207061747465726E2C16
:108CA00020726570656174696E6720617070782EDE
:108CB000206576657279203220733C2F646573637A
:108CC00072697074696F6E3E0A2020202020202077
:108CD000203C64656661756C743E313C2F6465664A
:108CE00061756C743E0A20202020202020203C6DDD
:108CF00061703E0A202020202020202020203C726D
:108D0000656C6174696F6E3E3C70726F70657274F1
:108D1000793E313C2F70726F70657274793E3C768B
:108D2000616C75653E4C4544206F6E3C2F76616CDE
:108D300075653E3C2F72656C6174696F6E3E0A20EA
:108D40002020202020202020203C72656C61746946
:108D50006F6E3E3C70726F70657274793E323C2F5C
:108D600070726F70657274793E3C76616C75653EA9
:108D70004C4544206F66663C2F76616C75653E3CC1
:108D80002F72656C6174696F6E3E0A20202020206E
:108D900020202020203C72656C6174696F6E3E3C1F
:108DA00070726F70657274793E333C2F70726F70A1
:108DB000657274793E3C76616C75653E4F666620DF
:108DC000776974682053686F727420283634206D78
:108DD000732920626C696E6B206F6E3C2F76616C1C
:108DE00075653E3C2F72656C6174696F6E3E0A203A
:108DF0002020202020202020203C72656C61746996
:108E00006F6E3E3C70726F70657274793E343C2FA9
:108E100070726F70657274793E3C76616C75653EF8
:108E20004F66662077697468204C6F6E672028351E
:108E30003132206D732920626C696E6B206F6E3C3D
:108E40002F76616C75653E3C2F72656C6174696F3D
:108E50006E3E0A202020202020202020203C726509
:108E60006C6174696F6E3E3C70726F70657274797C
:108E70003E353C2F70726F70657274793E3C76613E
:108E80006C75653E457175616C206F6E2F6F6666FF
:108E90003C2F76616C75653E3C2F72656C61746920
:108EA0006F6E3E0A202020202020202020203C72AF
:108EB000656C6174696F6E3E3C70726F7065727440
:108EC000793E363C2F70726F70657274793E3C76D5
:108ED000616C75653E457175616C206F6E2F6F66B4
:108EE000662C206661737465723C2F76616C7565C3
:108EF0003E3C2F72656C6174696F6E3E0A202020C3
:108F0000202020202020203C72656C6174696F6EE7
:108F10003E3C70726F70657274793E373C2F707290
:108F20006F70657274793E3C76616C75653E4F6E0C
:108F300020776974682053686F7274202836342053
:108F40006D732920626C696E6B206F66663C2F76AC
:108F5000616C75653E3C2F72656C6174696F6E3E25
:108F60000A202020202020202020203C72656C61D7
:108F700074696F6E3E3C70726F70657274793E38C2
:108F80003C2F70726F70657274793E3C76616C75BF
:108F9000653E4F6E2077697468204C6F6E6720289D
:108FA000353132206D732920626C696E6B206F66DB
:108FB000663C2F76616C75653E3C2F72656C617402
:108FC000696F6E3E0A202020202020202020203C97
:108FD00072656C6174696F6E3E3C70726F70657221
:108FE00074793E303C2F70726F70657274793E3CBC
:108FF00076616C75653E55736520637573746F6D2E
:10900000207061747465726E3C2F76616C75653E7C
:109010003C2F72656C6174696F6E3E0A20202020BF
:10902000202020203C2F6D61703E0A20202020202F
:10903000203C2F696E743E0A202020203C2F67724E
:109040006F75703E0A20203C2F7365676D656E74E6
:109050003E0A202020203C7365676D656E74206F8A
:10906000726967696E3D2732272073706163653DC1
:1090700027323533273E203C212D2D20537061634C
:10908000652030784644207374756666206D61678C
:10909000696320746F2074726967676572207265F6
:1090A00073657473202D2D3E0A202020202020205F
:1090B000203C6E616D653E526573657420436F6E32
:1090C00074726F6C3C2F6E616D653E0A202020200B
:1090D000202020203C6465736372697074696F6E30
:1090E0003E436F6E74726F6C7320616374696F6E50
:1090F00073206174206E65787420626F61726420E1
:1091000072657365743C2F6465736372697074690A
:109110006F6E3E0A20202020202020203C696E74A3
:109120002073697A653D2731273E0A2020202020C0
:10913000202020202020203C6E616D653E4163741C
:10914000696F6E206F6E2072657365743C2F6E615F
:109150006D653E0A20202020202020202020202075
:109160003C64656661756C743E3233383C2F6465CF
:109170006661756C743E0A2020202020202020206B
:109180002020203C6D61703E0A20202020202020DD
:109190002020202020202020203C72656C617469F2
:1091A0006F6E3E3C70726F70657274793E32333808
:1091B0003C2F70726F70657274793E3C76616C758D
:1091C000653E4E6F726D616C204F7065726174699F
:1091D0006F6E3C2F76616C75653E3C2F72656C61DD
:1091E00074696F6E3E0A202020202020202020203D
:1091F0002020202020203C72656C6174696F6E3ED7
:109200003C70726F70657274793E35313C2F7072AC
:109210006F70657274793E3C76616C75653E436C27
:109220006561722045766572797468696E6720623F
:10923000757420437265617465204E657720556EA4
:1092400075736564204576656E744944733C2F766A
:10925000616C75653E3C2F72656C6174696F6E3E22
:109260000A20202020202020202020202020202014
:10927000203C72656C6174696F6E3E3C70726F70F9
:10928000657274793E3235353C2F70726F7065723D
:1092900074793E3C76616C75653E436C6561722005
:1092A00045766572797468696E67206261636B20C8
:1092B000746F20466163746F7279204465666175CE
:1092C0006C74733C2F76616C75653E3C2F72656CD7
:1092D0006174696F6E3E0A2020202020202020200B
:1092E0002020203C2F6D61703E0A2020202020206D
:1092F00020203C2F696E743E0A202020203C2F73D2
:1093000065676D656E743E0A202020203C2F6364E3
:10931000693E0A00045350524F4720444343204CB7
:109320007464000000000000000000000000000065
:109330000000000000000000000000000000555385
:10934000422D4C43430000000000000000000000DC
:10935000000000000000000000000000000000000D
:1093600000000000000000312E300000000000006E
:10937000000000000000000000000000312E34005A
:1093800000000000000000000000000000000000DD
:10939000000102040810204080C20020EB002014CD
:1093A00001203D0120870120B00120D901200202C7
:1093B0002059656C6C6F77202D204C4343205472EC
:1093C000616E736D697400477265656E202D204C67
:1093D00043432052656365697665000020EE56F0D0
:1093E0003A50D9263B50DA22DF50D8B44BD03CC596
:1093F000D9F43DC5DAF410EE03F0DE50E126DD507D
:10940000E222E7B63FD03CC50DF53DC50EF520EE96
:1094100057F03A50D9263B50DA22DEC40FF5DDC4AE
:1094200010F5B1EC80F00009D8A413D03CC50DF5BF
:109430003DC50EF520EE57F03A50D9263B50DA22C2
:10944000DEC40FF5DDC410F531EC81F00009D8B4AD
:1094500019D0590E3A243E6E000E3B203F6E20EE8E
:10946000A1F03A50D9263B50DA223EC5DEF43FC582
:10947000DDF420EE56F03A50D9263B50DA22DF6A6E
:10948000000E12003CC5D9F43DC5DAF410EE03F02D
:10949000DE50E126DD50E222E7A6F2D73CC505F515
:1094A0003DC506F5FDEC7DF0280E05180DE11A0E00
:1094B0000618D8A409D020EE55F03A50D9263B50D2
:1094C000DA22DF6A010E12003CC505F53DC506F53E
:1094D000FDEC7DF0480E051846E11A0E0618D8A4DA
:1094E00042D03CC5D9F43DC5DAF410EE04F0DE50AC
:1094F000E126DD50E222050EE7640CD03CC5D9F42C
:109500003DC5DAF410EE07F0DE50E126DD50E22230
:10951000E7AAD1D720EE4EF03A50D9263B50DA22B6
:1095200010EE4CF03A50E1263B50E222DEC4E6F465
:10953000DDC4E5F4040E3A243E6E000E3B203F6E7F
:1095400020EE52F03A50D9263B50DA223EC5DEF4E6
:109550003FC5DDF420EE54F03A50D9263B50DA22D4
:10956000010EDF6EAFD73CC50FF53DC510F58BEC96
:1095700081F00009D8B484D73CC50DF53DC50EF582
:10958000C7EC83F0020AD8B409D03CC50DF53DC53F
:109590000EF5C7EC83F0030AD8A46AD020EE56F08B
:1095A0003A50D9263B50DA22DF50D8B448D03CC5D7
:1095B0000DF53DC50EF5C7EC83F0020AD8A482D79D
:1095C0003AC524F53BC525F520EE02F03A50D926E0
:1095D0003B50DA2210EE10F0DE50E126DD50E222A0
:1095E000E6C426F5E5C427F53CC505F53DC506F5F9
:1095F000B1EC82F005C528F506C529F5200E2B6EC5
:10960000000E2A6ED1EC6FF03AC5D9F43BC5DAF4FE
:10961000DEC43EF5DDC43FF53EC5D9F43FC5DAF4FE
:10962000DEC434F5DDC435F5C80E366E000E376E77
:10963000000E386E000E396ED8EC83F043D73CC56F
:1096400005F53DC506F5B1EC82F020EE57F03A5035
:10965000D9263B50DA2205C5DEF406C5DDF420EE3E
:1096600056F03A50D9263B50DA22010EDF6E5AD01E
:1096700020EE56F03A50D9263B50DA22DF50D8A4DB
:1096800051D03CC50DF53DC50EF5C7EC83F0020A7F
:10969000D8B409D03CC50DF53DC50EF5C7EC83F037
:1096A000050AD8A40FD73AC524F53BC525F520EE09
:1096B00002F03A50D9263B50DA2210EE10F0DE507C
:1096C000E126DD50E222E6C426F5E5C427F53CC5D7
:1096D00005F53DC506F5B1EC82F005C528F506C5D2
:1096E00029F5600E2B6E000E2A6ED1EC6FF03AC594
:1096F000D9F43BC5DAF4DEC43EF5DDC43FF53EC522
:10970000D9F43FC5DAF4DEC434F5DDC435F5C80E4E
:10971000366E000E376E000E386E000E396ED8ECC5
:1097200083F0D0D63CC505F53DC506F5B1EC82F019
:1097300020EE57F03A50D9263B50DA22DE50051879
:1097400004E1DE500618D8B451D03CC50DF53DC536
:109750000EF5C7EC83F0020AD8B409D03CC50DF56C
:109760003DC50EF5C7EC83F0050AD8A4ABD63AC5C3
:1097700024F53BC525F520EE02F03A50D9263B50A2
:10978000DA2210EE10F0DE50E126DD50E222E6C4CF
:1097900026F5E5C427F53CC505F53DC506F5B1EC54
:1097A00082F005C528F506C529F5200E2B6E000EA2
:1097B0002A6ED1EC6FF03AC5D9F43BC5DAF4DEC4B9
:1097C0003EF5DDC43FF53EC5D9F43FC5DAF4DEC44D
:1097D00034F5DDC435F5C80E366E000E376E000E5A
:1097E000386E000E396ED8EC83F06CD6000E466EE3
:1097F000000E456E2DD03CC5D9F43DC5DAF4DEC46B
:109800003EF5DDC43FF545503E2646503F22050E4D
:109810003E24D96E000E3F20DA6E10EEA1F03A50D1
:10982000E1263B50E222E6C440F5E5C441F540C5DF
:10983000E1F441C5E2F4DFC4E7F420EEA1F03A50D0
:10984000D9263B50DA22DE2A000EDD22454A462A7E
:109850003CC5D9F43DC5DAF410EE04F0DE50E12643
:10986000DD50E222E7503E6E3F6A3E50455C3F507D
:109870004658D8A0C0D73CC50DF53DC50EF5C7EC80
:1098800083F0020AD8B409D03CC50DF53DC50EF5EC
:10989000C7EC83F0050AD8A415D620EEA1F03A5003
:1098A000D9263B50DA22DEC43EF5DDC43FF53A50FE
:1098B0003E5E3B503F5AA70E3E24426EFF0E3F20B5
:1098C000436E3AC511F53BC512F5590E3A24136E95
:1098D000000E3B20146E42C515F543C516F53CC578
:1098E00005F53DC506F5B1EC82F005C517F506C5D1
:1098F00018F55BEC83F0446E590E3A243E6E000E70
:109900003B203F6E20EEA1F03A50D9263B50DA22A0
:109910003EC5DEF43FC5DDF420EE56F03A50D926C0
:109920003B50DA22DF6A4450D8A451D020EE5AF0DE
:109930003A50D9263B50DA22DF50C00B400AD8A457
:1099400023D03AC524F53BC525F520EE02F03A5068
:10995000D9263B50DA2210EE10F0DE50E126DD5021
:10996000E222E6C426F5E5C427F53CC505F53DC56C
:1099700006F5B1EC82F005C528F506C529F5800E7F
:109980002A6E83EC75F047D03AC524F53BC525F522
:1099900020EE02F03A50D9263B50DA2210EE10F0B9
:1099A000DE50E126DD50E222E6C426F5E5C427F5C7
:1099B0003CC505F53DC506F5B1EC82F005C528F5B9
:1099C00006C529F5000E2A6E83EC75F024D03AC541
:1099D00024F53BC525F520EE02F03A50D9263B5040
:1099E000DA2210EE10F0DE50E126DD50E222E6C46D
:1099F00026F5E5C427F53CC505F53DC506F5B1ECF2
:109A000082F005C528F506C529F5100E2B6E400E0F
:109A10002A6ED1EC6FF03AC5D9F43BC5DAF4DEC456
:109A20003EF5DDC43FF53EC5D9F43FC5DAF4DEC4EA
:109A300034F5DDC435F5C80E366E000E376E000EF7
:109A4000386E000E396ED8EC83F03CD551C505F563
:109A500052C506F5FDEC7DF0B40E051813E1150EA8
:109A60000618D8A40FD04FC51FF550C520F551C515
:109A700021F552C522F5BCEC6BF00009D8A40BD23D
:109A8000000E120051C505F552C506F5FDEC7DF03E
:109A9000940E05180FE1150E0618D8A40BD04FC56B
:109AA0003AF550C53BF551C53CF552C53DF5BBEC0B
:109AB00066F0F1D151C505F552C506F5FDEC7DF016
:109AC000440E05180FE1150E0618D8A40BD04FC58B
:109AD0001FF550C520F551C521F552C522F531ECD1
:109AE0006CF0D9D151C505F552C506F5FDEC7DF0F8
:109AF000F40E051803E1180E0618D8A4C1D06D0E97
:109B0000136E050E146E51C5D9F452C5DAF4DEC4D5
:109B100060F5DDC461F5050E05016025156E000ECA
:109B20006121166E000E186E080E176EABEC7FF0FA
:109B30000501756976698BD020EE08F04F50D92663
:109B40005050DA22DEC460F5DDC461F57551602540
:109B5000D96E76516121DA6EDF506A6F75C50DF5E9
:109B600076C50EF5000E106E090E0F6E81EC83F0B7
:109B700020EE06F04F50D9265050DA22DEC460F5B0
:109B8000DDC461F50D5005016025626F0E50612145
:109B9000636F080E6225D96E000E6321DA6EDFAAAC
:109BA00049D06A51F1EC80F00009D8B443D075C5B2
:109BB0000DF576C50EF5000E106E090E0F6E81ECD8
:109BC00083F020EE06F04F50D9265050DA22DEC442
:109BD00060F5DDC461F50D5005016025626F0E5022
:109BE0006121636F080E6225D96E000E6321DA6E63
:109BF000000EDB8020EE10F04F50D9265050DA22B4
:109C00007551DE5CD8A003D075C566F50AD020EE8C
:109C100010F04F50D9265050DA22DF50606F60515B
:109C2000666F676B20EE10F04F50D9265050DA2245
:109C300066C5DFF40501754B762B76BF08D07651EB
:109C400005E1080E755DD8B026D101D024D14FC5ED
:109C50000CF550C50DF56D0E0E6E050E0F6E75C52B
:109C600010F576C511F55EEC5FF00CC575F50DC508
:109C700076F50501752903E17629D8B40CD15CD7B6
:109C800051C505F552C506F5FDEC7DF0140E05181D
:109C900003E1190E0618D8A4BFD06D0E136E050E81
:109CA000146E51C5D9F452C5DAF4DEC460F5DDC4D2
:109CB00061F5050E05016025156E000E6121166E19
:109CC000000E186E080E176EABEC7FF00501776979
:109CD000786989D020EE08F04F50D9265050DA220A
:109CE000DEC460F5DDC461F577516025D96E785129
:109CF0006121DA6EDF506B6F77C50DF578C50EF513
:109D0000000E106E090E0F6E81EC83F020EE06F04F
:109D10004F50D9265050DA22DEC460F5DDC461F51B
:109D20000D5005016025626F0E506121636F080EB2
:109D30006225D96E000E6321DA6EDFAC49D06B511B
:109D4000F1EC80F00009D8B443D077C50DF578C5A3
:109D50000EF5000E106E090E0F6E81EC83F020EEF2
:109D600006F04F50D9265050DA22DEC460F5DDC42B
:109D700061F50D5005016025626F0E506121636F22
:109D8000080E6225D96E000E6321DA6E000EDB80AC
:109D900020EE10F04F50D9265050DA227751DE5C79
:109DA000D8A003D077C568F50AD020EE10F04F5048
:109DB000D9265050DA22DF50606F6051686F696BAE
:109DC00020EE10F04F50D9265050DA2268C5DFF44B
:109DD0000501774B782B78BF06D078515CE1080EEF
:109DE000775DD8B058D04FC50CF550C50DF56D0E48
:109DF0000E6E050E0F6E77C510F578C511F55EEC89
:109E00005FF00CC577F50DC578F50501772903E1FD
:109E10007829D8B440D05ED751C50DF552C50EF59E
:109E200071EC80F00009D8B42BD6000E05016C6FE0
:109E3000070E6C6501D028D06C51F1EC80F0000960
:109E4000D8B41FD005016C51090DF3C460F5F4C4FA
:109E500061F520EE06F04F50D9265050DA22DEC4CC
:109E600062F5DDC463F560516225646F6151632161
:109E7000656F080E6425D96E000E6521DA6E000E3E
:109E8000DB8005016C2BD4D720EE10F04F50D92683
:109E90005050DA22DF6A010E120020EE10F04F500F
:109EA000D9265050DA22080EDE18D8B41200100E4F
:109EB0004F2405016F6F000E5020706F6FC5D9F4ED
:109EC00070C5DAF4DF50606F6051090DF3C461F5BD
:109ED000F4C462F520EE06F04F50D9265050DA2235
:109EE000DEC463F5DDC464F561516325656F6251BD
:109EF0006421666F080E6525716F000E6621726F12
:109F0000B8D171C5D9F472C5DAF4DF50606F130EA1
:109F10006017D8A40AD06FC5D9F470C5DAF4DF2A67
:109F2000090E7127000E7223A4D171C5D9F472C530
:109F3000DAF4DFA0C6D071C5D9F472C5DAF4FE0E2A
:109F4000DF1671C5D9F472C5DAF4DFAC5AD06FC52B
:109F5000D9F470C5DAF4DF50606F6051090DF3C4B5
:109F600061F5F4C462F520EE06F04F50D92650504A
:109F7000DA22DEC463F5DDC464F561516325D96E70
:109F800062516421DA6E11EE67F1070EDBC4E3F46F
:109F9000E806FCE220EE0CF04F50D9265050DA22B1
:109FA000DEC41EF5DDC41FF5670E206E050E216EA2
:109FB0004FC510F550C511F56EEC81F010C522F5B6
:109FC00011C523F566EC7AF020EE0CF04F50D9263F
:109FD0005050DA22DEC460F5DDC461F560C5D9F405
:109FE00061C5DAF4DEC434F5DDC435F5000E366E35
:109FF000000E376E000E386E000E396ED8EC83F00E
:10A00000120071C5D9F472C5DAF4DFAA32D16FC576
:10A01000D9F470C5DAF4DF50606F6051090DF3C4F4
:10A0200061F5F4C462F520EE06F04F50D926505089
:10A03000DA22DEC463F5DDC464F561516325D96EAF
:10A0400062516421DA6E11EE67F1070EDBC4E3F4AE
:10A05000E806FCE220EE0CF04F50D9265050DA22F0
:10A06000DEC41EF5DDC41FF5670E206E050E216EE1
:10A070004FC510F550C511F56EEC81F010C522F5F5
:10A0800011C523F5F3EC7AF020EE0CF04F50D926F1
:10A090005050DA22DEC460F5DDC461F560C5D9F444
:10A0A00061C5DAF4DEC434F5DDC435F5000E366E74
:10A0B000000E376E000E386E000E396ED8EC83F04D
:10A0C000120071C5D9F472C5DAF4DFA266D06FC58B
:10A0D000D9F470C5DAF4DF50606F6051090DF3C434
:10A0E00061F5F4C462F520EE06F04F50D9265050C9
:10A0F000DA22DEC463F5DDC464F561516325D96EEF
:10A1000062516421DA6E11EE67F1070EDBC4E3F4ED
:10A11000E806FCE271C5D9F472C5DAF4FD0EDF166B
:10A1200020EE0CF04F50D9265050DA22DEC41EF536
:10A13000DDC41FF5670E206E050E216E95EC7AF0DA
:10A140004FC51FF550C520F520EE0CF04F50D92615
:10A150005050DA22DEC421F5DDC422F5BCEC6BF0F0
:10A1600020EE0CF04F50D9265050DA22DEC460F5B4
:10A17000DDC461F560C5D9F461C5DAF4DEC434F537
:10A18000DDC435F5000E366E000E376E000E386EEB
:10A19000000E396ED8EC83F0120071C5D9F472C587
:10A1A000DAF4DFA866D06FC5D9F470C5DAF4DF50F1
:10A1B000606F6051090DF3C461F5F4C462F520EEDF
:10A1C00006F04F50D9265050DA22DEC463F5DDC4C4
:10A1D00064F561516325D96E62516421DA6E11EE26
:10A1E00067F1070EDBC4E3F4E806FCE271C5D9F4BD
:10A1F00072C5DAF4EF0EDF1620EE0CF04F50D926C0
:10A200005050DA22DEC41EF5DDC41FF5670E206E45
:10A21000050E216EC4EC7AF04FC53AF550C53BF5FA
:10A2200020EE0CF04F50D9265050DA22DEC43CF517
:10A23000DDC43DF5BBEC66F020EE0CF04F50D926A6
:10A240005050DA22DEC460F5DDC461F560C5D9F492
:10A2500061C5DAF4DEC434F5DDC435F5000E366EC2
:10A26000000E376E000E386E000E396ED8EC83F09B
:10A2700012006FC5D9F470C5DAF4070EDF6441D659
:10A28000120020EE0CF00550D9260650DA22DEC46A
:10A2900007F5DEC408F5DEC409F5DEC40AF5100EC4
:10A2A00005D0D8900A32093208320732E82EF9D7A1
:10A2B000FF0E07140B6E010E08140C6E000E09142D
:10A2C0000D6E000E0A140E6E20EE08F00550D92611
:10A2D0000650DA22DEC40FF5DEC410F5DEC411F537
:10A2E000DEC412F5090ED8900F361036113612362C
:10A2F000E82EF9D70B500F10136E0C501010146E7F
:10A300000D501110156E0E501210166EFF0E131414
:10A310001B6EFF0E14141C6EFF0E15141D6E000E26
:10A3200016141E6E20EE0CF00550D9260650DA22C7
:10A33000DEC407F5DEC408F5DEC409F5DEC40AF59F
:10A34000090ED8900736083609360A36E82EF9D7AE
:10A35000FF0E07141F6EFF0E0814206EFF0E091467
:10A36000216E000E0A14226E20EE0CF00550D92644
:10A370000650DA22DEC407F5DEC408F5DEC409F5AE
:10A38000DEC40AF51F5007240B6E205008200C6E07
:10A39000215009200D6E22500A200E6EA90E0B24AA
:10A3A0000F6E4B0E0C20106E7A0E0D20116E000EEB
:10A3B0000E20126E20EE0CF00550D9260650DA223F
:10A3C0000FC5DEF410C5DEF411C5DEF412C5DEF4EF
:10A3D00020EE08F00550D9260650DA22DEC407F533
:10A3E000DEC408F5DEC409F5DEC40AF51B500724F7
:10A3F0000B6E1C5008200C6E1D5009200D6E1E5057
:10A400000A200E6EA30E0B240F6E0C0E0C20106E85
:10A410001B0E0D20116E000E0E20126E20EE08F0A5
:10A420000550D9260650DA220FC5DEF410C5DEF439
:10A4300011C5DEF412C5DEF420EE08F00550D92671
:10A440000650DA22FF0EDE14076EFF0EDE14086ED1
:10A45000FF0EDE14096E000EDE140A6E20EE0CF004
:10A460000550D9260650DA22DEC40BF5DEC40CF501
:10A47000DEC40DF5DEC40EF5190E05D0D8900E32EF
:10A480000D320C320B32E82EF9D70B5007240F6E29
:10A49000000E0820106E000E0920116E000E0A201A
:10A4A000126E20EE08F00550D9260650DA220FC5AC
:10A4B000DEF410C5DEF411C5DEF412C5DEF420EEC4
:10A4C0000CF00550D9260650DA22FF0EDE14076E76
:10A4D000FF0EDE14086EFF0EDE14096E000EDE1491
:10A4E0000A6E20EE0CF00550D9260650DA2207C578
:10A4F000DEF408C5DEF409C5DEF40AC5DEF420EE9C
:10A500000CF00550D9260650DA22DEC407F5DDC46A
:10A5100008F520EE08F00550D9260650DA22DEC4F0
:10A5200009F5DDC40AF520EE0CF00550D9260650D9
:10A53000DA22DEC40BF5DEC40CF5DEC40DF5DEC494
:10A540000EF50D0E05D0D8900E320D320C320B32B6
:10A55000E82EF9D720EE08F00550D9260650DA2269
:10A56000DEC40FF5DEC410F5DEC411F5DEC412F54D
:10A570000D0E05D0D8901232113210320F32E82E63
:10A58000F9D70B500F18136E0C501018146E095099
:10A590001318156E0A501418166E07501518176EFA
:10A5A00008501618186EFF0E1714196E0F0E181497
:10A5B0001A6E20EE10F00550D9260650DA2219C581
:10A5C000DEF41AC5DDF420EE10F00550D926065051
:10A5D000DA22DE50DE10D8A4120053D67FD1A0C5F7
:10A5E000D9F4A1C5DAF4DEC405F5DDC406F5C5EC81
:10A5F00081F005C5AAF506C5ABF5AA51AB11D8B4D3
:10A60000120020EE4EF0A051D926A151DA22DF6AC5
:10A61000AAC5D9F4ABC5DAF4200EDF6E20EE01F046
:10A62000AA51D926AB51DA22820EDF6E20EE02F05B
:10A63000AA51D926AB51DA22020EDF6E20EE03F0CA
:10A64000AA51D926AB51DA22DF6A20EE04F0AA51D2
:10A65000D926AB51DA22F00EDF6E20EE05F0AA51BA
:10A66000D926AB51DA22FF0EDF6E20EE06F0AA519A
:10A67000D926AB51DA22FB0EDF6EA0C5D9F4A1C5F5
:10A68000DAF4DEC405F5DDC406F5000E086E070E2B
:10A69000076E20EE4CF0A051D926A151DA22DEC47B
:10A6A00009F5DDC40AF5D3EC76F01200A0C5D9F4A3
:10A6B000A1C5DAF4DEC405F5DDC406F5C5EC81F00C
:10A6C00005C5ACF506C5ADF5AC51AD11D8B4120059
:10A6D00020EE4EF0A051D926A151DA22DF6AACC596
:10A6E000D9F4ADC5DAF4200EDF6E20EE01F0AC51E6
:10A6F000D926AD51DA22860EDF6E20EE02F0A2518D
:10A70000D926A351DA2210EE02F0AC51E126AD5168
:10A71000E222DFC4E7F4A0C507F5A1C508F520EEE5
:10A7200002F0A251D926A351DA22DF50096EC2EC01
:10A7300073F007C5A6F508C5A7F509C5A8F50AC5AC
:10A74000A9F520EE03F0AC51D926AD51DA22A9C506
:10A75000DFF420EE04F0AC51D926AD51DA22A8C5C1
:10A76000DFF420EE05F0AC51D926AD51DA22A7C5B1
:10A77000DFF420EE06F0AC51D926AD51DA22A6C5A1
:10A78000DFF420EE02F0A251D926A351DA22DE280E
:10A79000D8B40AD020EE02F0A251D926A351DA2271
:10A7A000FC0EDE18D8A409D020EE07F0AC51D92653
:10A7B000AD51DA22010EDF6E07D020EE07F0AC516A
:10A7C000D926AD51DA22DF6A20EE02F0A251D92655
:10A7D000A351DA22FA0EDF6408D020EE01F0AC516A
:10A7E000D926AD51DA22870EDF6EA0C5D9F4A1C5F6
:10A7F000DAF4DEC405F5DDC406F5000E086E080EB9
:10A80000076E20EE4CF0A051D926A151DA22DEC409
:10A8100009F5DDC40AF5D3EC76F0120020EE58F00D
:10A82000A051D926A151DA22DE50DE10DE10D8B4B4
:10A830001ED0000E4E6E000E4D6E000E506E000EBD
:10A840004F6E000E526EA80E516E20EE58F0A051C1
:10A85000D926A151DA2201D80AD00500FA6EDE50BD
:10A86000FD6EDE50FE6EDE50FF6EFA50120020EEDE
:10A870004EF0A051D926A151DA22DF6A120020EE53
:10A880004EF0A051D926A151DA22DF6A20EE55F010
:10A89000A051D926A151DA22DE50DE10DE10D8B444
:10A8A00012D020EE55F0A051D926A151DA2201D8BC
:10A8B00012000500FA6EDE50FD6EDE50FE6EDE50B8
:10A8C000FF6EFA501200FF001200E9EC83F0120054
:10A8D00027EC84F0120099EC82F0120020EE01F0D7
:10A8E000A251D926A351DA22DF50536E546A545034
:10A8F000000AD8A412005350800AD8B470D6040AB3
:10A90000D8B4D4D6240AD8B4E3D7010AD8B4DDD752
:10A91000090AD8B483D7010AD8B4B1D7030AD8A496
:10A920001200D9D721C531F522C532F52604D8B099
:10A930001200000E2F6E060E306E25502F24D96E99
:10A9400026503020DA6EDF6A000E386E000E376E49
:10A95000000E0501616F000E606FFF0E2324626F11
:10A96000FF0E2420636F600E2A6E050E2B6ED890AA
:10A970003734D96E3834DA6ED890D936DA362A5070
:10A98000D9262B50DA22DEC433F5DDC434F537C5C1
:10A990002AF538C52BF5D8902A362B36D8902A368A
:10A9A0002B36020E2A26000E2B22600E2A24D96E88
:10A9B000050E2B20DA6EDEC435F5DDC436F537061C
:10A9C000D8A0380633C539F534C53AF535C53BF559
:10A9D00036C53CF52FC513F530C514F5000E086ECD
:10A9E000020E076E3B503924056E3C503A20066E2D
:10A9F00051EC76F005C50DF506C50EF525C50FF52C
:10AA000026C510F581EC83F00D503124156E0E50E3
:10AA10003220166E25C517F526C518F5ABEC7FF06C
:10AA200002D0394A3A2A39C50DF53AC50EF525C581
:10AA30000FF526C510F581EC83F00D503124136E0F
:10AA40000E503220146E2FC515F530C516F501D8FD
:10AA50000AD00500FA6E2750FD6E2850FE6E295070
:10AA6000FF6EFA50120014AE04D0DBD73B06D8A01C
:10AA70003C062FC513F530C514F53BC50DF53CC597
:10AA80000EF525C50FF526C510F581EC83F00D50A8
:10AA90003124156E0E503220166E01D80AD00500F2
:10AAA000FA6E2750FD6E2850FE6E2950FF6EFA5048
:10AAB000120014BEDBD739503B5C3C50800A2A6E32
:10AAC0003A50800A2A58D8A02BD025C513F526C5A0
:10AAD00014F539C50DF53AC50EF525C50FF526C592
:10AAE00010F581EC83F00D503124156E0E5032209C
:10AAF000166E3BC50DF53CC50EF525C50FF526C5F3
:10AB000010F581EC83F00D503124176E0E50322079
:10AB1000186E94EC7EF0394A3A2A3B06D8A03C06DF
:10AB200039503B5C3C50800A2A6E3A50800A2A58C1
:10AB3000D8B079D73950355C2A6E3A5036582B6EDA
:10AB400033503B5C2C6E34503C582D6E2A502C5C9C
:10AB50002D50800A2E6E2B50800A2E58D8B03DD032
:10AB60003550395C3A50800A2A6E3650800A2A588D
:10AB7000D8B02ED0374A382A600E2A6E050E2B6EBA
:10AB8000D8903734D96E3834DA6ED890D936DA3670
:10AB90002A50D9262B50DA2239C5DEF43AC5DDF425
:10ABA00037C52AF538C52BF5D8902A362B36D890DC
:10ABB0002A362B36020E2A26000E2B22600E2A245D
:10ABC000D96E050E2B20DA6E35C5DEF436C5DDF400
:10ABD0003BC535F53CC536F53CD03B50335C345075
:10ABE000800A2A6E3C50800A2A58D8B02ED0374AA4
:10ABF000382A600E2A6E050E2B6ED8903734D96E27
:10AC00003834DA6ED890D936DA362A50D9262B5015
:10AC1000DA2233C5DEF434C5DDF437C52AF538C58C
:10AC20002BF5D8902A362B36D8902A362B36020EA2
:10AC30002A26000E2B22600E2A24D96E050E2B2008
:10AC4000DA6E3BC5DEF43CC5DDF439C533F53AC5F3
:10AC500034F53550335C3450800A2A6E3650800A01
:10AC60002A58D8A0AFD638BE12007DD620EE4CF0C0
:10AC70003A50D9263B50DA22010EDBBE1200010108
:10AC800060A1120020EE54F03A50D9263B50DA224F
:10AC9000DF50D8B40DD03AC5D9F43BC5DAF4DEC4E0
:10ACA00017F5DDC418F5030E196ED1EC80F00CD049
:10ACB0003AC5D9F43BC5DAF4DEC417F5DDC418F59E
:10ACC000040E196ED1EC80F020EE4CF03A50D926EB
:10ACD0003B50DA22010EDBBE0CD0010EDB5004E14A
:10ACE000080EDE5CD8A005D0000E436E080E426E42
:10ACF0000AD020EE4CF03A50D9263B50DA22DEC47E
:10AD000042F5DDC443F53AC5D9F43BC5DAF4DEC4F7
:10AD10003CF5DDC43DF53CC5D9F43DC5DAF410EE93
:10AD200004F0DE50E126DD50E22242C5E7F4000ED9
:10AD3000456E000E446E35D020EE52F03A50D926C2
:10AD40003B50DA22DEC43CF5DDC43DF53CC5D9F408
:10AD50003DC5DAF43AC5E1F43BC5E2F4E6C43EF59C
:10AD6000E5C43FF53EC5E1F43FC5E2F4E6C440F575
:10AD7000E5C441F54450402645504122050E40248B
:10AD8000E16E000E4120E26EDFC4E7F420EE52F0E7
:10AD90003A50D9263B50DA22DE2A000EDD22444A00
:10ADA000452A3AC5D9F43BC5DAF4DEC43CF5DDC426
:10ADB0003DF53CC5D9F43DC5DAF410EE04F0DE50A3
:10ADC000E126DD50E222E7503E6E3F6A3E50445C91
:10ADD0003F504558D8A0B0D720EE4CF03A50D92675
:10ADE0003B50DA22DEC43CF5DDC43DF53AC5D9F46A
:10ADF0003BC5DAF4DEC43EF5DDC43FF53EC5D9F40B
:10AE00003FC5DAF410EE04F0DE50E126DD50E22218
:10AE1000E750406E40503C5E000E3D5A20EE4CF034
:10AE20003A50D9263B50DA223CC5DEF43DC5DDF46C
:10AE300020EE4CF03A50D9263B50DA22DE50DE109C
:10AE4000D8A42CD020EE4CF03A50D9263B50DA2230
:10AE5000FF0EDE6EFF0EDD6E20EE54F03A50D92666
:10AE60003B50DA22DF50D8B40DD03AC5D9F43BC5F7
:10AE7000DAF4DEC417F5DDC418F5020E196ED1EC54
:10AE800080F00CD03AC5D9F43BC5DAF4DEC417F52E
:10AE9000DDC418F5050E196ED1EC80F03AC5D9F471
:10AEA0003BC5DAF4DEC417F5DDC418F520EE50F02A
:10AEB0003A50D9263B50DA22DEC419F5DDC41AF522
:10AEC00081EC72F020EE54F03A50D9263B50DA2251
:10AED000DF6A3AC5D9F43BC5DAF4DEC43CF5DDC41B
:10AEE0003DF53CC5D9F43DC5DAF4DEC434F5DDC426
:10AEF00035F5000E366E000E376E000E386E000E01
:10AF0000396ED8EC83F0120020EE02F02350D926DF
:10AF10002450DA2210EE01F0DE50E126DD50E2226C
:10AF2000E750256E25C526F5276A286A296A28C5AF
:10AF300029F527C528F526C527F5266A20EE02F053
:10AF40002350D9262450DA22DEC42AF5DDC42BF59D
:10AF50002AC5D9F42BC5DAF4DF502C6E2CC52DF59B
:10AF60002E6A2F6A306A2EC530F52DC52FF52E6A50
:10AF70002D6A26502D10316E27502E10326E28501B
:10AF80002F10336E29503010346E20EE02F0235013
:10AF9000D9262450DA2210EE02F0DE50E126DD50F0
:10AFA000E222E750356E35503110366E3250376E32
:10AFB0003350386E3450396E20EE08F02350D926C5
:10AFC0002450DA2236C5DEF437C5DEF438C5DEF4A7
:10AFD00039C5DEF420EE02F02350D9262450DA22BF
:10AFE00010EE04F0DE50E126DD50E222E750256E3F
:10AFF00025C526F5276A286A296A28C529F527C59F
:10B0000028F526C527F5266A20EE02F02350D9261A
:10B010002450DA2210EE03F0DE50E126DD50E22269
:10B02000E7502A6E2AC52BF52C6A2D6A2E6A2CC58C
:10B030002EF52BC52DF52C6A2B6A26502B102F6E62
:10B0400027502C10306E28502D10316E29502E10A4
:10B05000326E20EE02F02350D9262450DA2210EE70
:10B0600005F0DE50E126DD50E222E750336E33502A
:10B070002F10346E3050356E3150366E3250376E80
:10B0800020EE0CF02350D9262450DA2234C5DEF409
:10B0900035C5DEF436C5DEF437C5DEF420EE0CF03F
:10B0A0002350D9262450DA22DEC425F5DDC426F546
:10B0B00020EE08F02350D9262450DA22DEC427F5EA
:10B0C000DDC428F520EE0CF02350D9262450DA22D6
:10B0D000DEC429F5DEC42AF5DEC42BF5DEC42CF56A
:10B0E0000D0E05D0D8902C322B322A322932E82E80
:10B0F000F9D720EE08F02350D9262450DA22DEC4F6
:10B100002DF5DEC42EF5DEC42FF5DEC430F50D0EB0
:10B1100005D0D89030322F322E322D32E82EF9D78A
:10B1200029502D18316E2A502E18326E27503118A2
:10B13000336E28503218346E25503318356E265031
:10B140003418366EFF0E3514376E0F0E3614386E07
:10B1500020EE10F02350D9262450DA2237C5DEF431
:10B1600038C5DDF420EE10F02350D9262450DA2221
:10B17000DE50DE10D8A4120023C505F524C506F55F
:10B1800041EC51F0120020EE10F04050D926415011
:10B19000DA22DEC449F5DDC44AF542C505F543C5EA
:10B1A00006F5B1EC82F04950051824E14A50061822
:10B1B000D8A420D042C50DF543C50EF567EC7FF04D
:10B1C0000009D8B40AD040C53EF541C53FF5FEECB4
:10B1D00081F00009D8A447D0F6D740C53EF541C557
:10B1E0003FF54AEC7EF040C523F541C524F554EC0B
:10B1F00084F039D042C5D9F443C5DAF410EE03F037
:10B20000DE50E126DD50E222E7B662D042C505F508
:10B2100043C506F5FDEC7DF0020E051859E1070E59
:10B220000618D8A455D042C5D9F443C5DAF410EEB7
:10B2300004F0DE50E126DD50E222E750D8B415D00C
:10B2400042C505F543C506F520EE02F04050D9266B
:10B250004150DA22DEC407F5DDC408F5C6EC6AF019
:10B260000009D8A402D0000E120040C5D9F441C58F
:10B27000DAF4DEC41EF5DDC41FF549C520F54AC564
:10B2800021F520EE02F04050D9264150DA22DEC4EA
:10B2900022F5DDC423F5DBEC78F040C5D9F441C5D7
:10B2A000DAF4DEC444F5DDC445F544C5D9F445C53A
:10B2B000DAF4DEC434F5DDC435F5C80E366E000EA2
:10B2C000376E000E386E000E396ED8EC83F0CBD797
:10B2D00042C50DF543C50EF591EC80F00009D8B4D8
:10B2E000C2D742C50FF543C510F589EC7FF00009C0
:10B2F000D8A427D0010E486E42C5D9F443C5DAF46C
:10B3000010EE04F0DE50E126DD50E222E750D8B422
:10B3100015D042C505F543C506F520EE02F04050B4
:10B32000D9264150DA22DEC407F5DDC408F5C6ECA3
:10B330006AF00009D8A402D0000E486E48C546F550
:10B3400011D042C50FF543C510F573EC78F04950A4
:10B350000F1806E14A501018D8A402D0010E01D0EF
:10B36000000E466E476A46504710D8B47CD740C599
:10B37000D9F441C5DAF4DEC41EF5DDC41FF520EEB4
:10B3800002F04050D9264150DA22DEC420F5DDC457
:10B3900021F522EC7BF040C5D9F441C5DAF4DEC4D6
:10B3A00044F5DDC445F544C5D9F445C5DAF4DEC439
:10B3B00034F5DDC435F5C80E366E000E376E000E5E
:10B3C000386E000E396ED8EC83F0010E12000EECD0
:10B3D00079F005C522F506C523F507C524F508C58E
:10B3E00025F5C00E2214266EFF0E2314276E000EC4
:10B3F0002414286E000E2514296E20EE04F0185037
:10B40000D9261950DA222650DE180AE12750DE1814
:10B4100007E12850DE1804E12950DE18D8B41200E4
:10B4200020EE04F01850D9261950DA2226C5DEF491
:10B4300027C5DEF428C5DEF429C5DEF420EE0FF0C2
:10B440001850D9261950DA22DFA032D020EE20F091
:10B450001850D9261950DA2210EE0EF01850E126B5
:10B460001950E222E750D8B402D0010E01D0000EEC
:10B47000DF6E20EE0FF01850D9261950DA22DEC404
:10B480001AF5DEC41BF5DEC41CF5DEC41DF5D8902C
:10B490001D321C321B321A32000E1A101E6E000EA4
:10B4A0001B101F6E000E1C10206E800E1D1031D060
:10B4B00020EE20F01850D9261950DA2210EE0EF0A6
:10B4C0001850E1261950E222E750D8A402D0010E0C
:10B4D00001D0000EDF6E20EE0FF01850D926195063
:10B4E000DA22DEC41AF5DEC41BF5DEC41CF5DEC4A8
:10B4F0001DF5D8901D321C321B321A32FF0E1A1461
:10B500001E6EFF0E1B141F6EFF0E1C14206E7F0E8E
:10B510001D14216E20EE0FF01850D9261950DA2292
:10B520001EC5DEF41FC5DEF420C5DEF421C5DEF441
:10B5300020EE1CF01850D9261950DA22DFA013D0C3
:10B5400020EE20F01850D9261950DA2210EE0EF015
:10B550001850E1261950E222E750D8B402D0010E6B
:10B5600001D0000EDF6E20EE1CF01850D9261950C5
:10B57000DA22DEC41AF5DEC41BF5DEC41CF5DEC417
:10B580001DF5D8901D321C321B321A3220EE1CF0F1
:10B590001850D9261950DA221AC5DEF41BC5DEF47C
:10B5A0001CC5DEF41DC5DEF420EE23F01850D926AC
:10B5B0001950DA22DF50D8B4120020EE20F01850D3
:10B5C000D9261950DA22DF50096E20EE1BF01850F0
:10B5D000D9261950DA22DF500FEC80F01200000E4D
:10B5E0000F6E000E106E000E116E000E126E58C51A
:10B5F00014F5000E1424D96EDA6A080EDA223A0E17
:10B60000DE18D8B402D0000E1200142A20EE0DF07D
:10B610000850D9260950DA22DF92000E1424D96E80
:10B62000DA6A080EDA22580EDE18D8A408D020EE06
:10B630000DF00850D9260950DA22DF820AD0000E18
:10B640001424D96EDA6A080EDA22530EDE18D8A452
:10B65000DAD7142A040E136E0F0E0D6E050E0E6E41
:10B660000DD01450D6EC7DF00DC5D9F40EC5DAF42A
:10B67000DF6E142A142A0D4A0E2A1306000E142413
:10B68000D96EDA6A080EDA224E0EDE18D8B411D05E
:10B69000000E1424D96EDA6A080EDA22520EDE1871
:10B6A000D8B407D059501418D8B403D01350D8A424
:10B6B000D8D720EE0DF00850D9260950DA22DFA2A3
:10B6C00019D008C5D9F409C5DAF412C5DFF420EEA3
:10B6D00001F00850D9260950DA2211C5DFF420EE16
:10B6E00002F00850D9260950DA2210C5DFF420EE06
:10B6F00003F008D008C5D9F409C5DAF410C5DFF4A1
:10B7000020EE01F00850D9260950DA220FC5DFF4E7
:10B7100020EE0DF00850D9260950DA22DF90000EF5
:10B720001424D96EDA6A080EDA22520EDE18D8A472
:10B7300008D020EE0DF00850D9260950DA22DF801B
:10B740000AD0000E1424D96EDA6A080EDA224E0EE0
:10B75000DE18D8A458D7142A050E08240B6E000E44
:10B7600009200C6E000E136E0DD01450D6EC7DF037
:10B770000BC5D9F40CC5DAF4DF6E142A0B4A0C2A77
:10B78000142A132A000E1424D96EDA6A080EDA225B
:10B790003B0EDE18D8B407D059501418D8B403D0D3
:10B7A000070E1364E2D759501418D8B42CD7000EE2
:10B7B0001424D96EDA6A080EDA223B0EDE18D8A4F9
:10B7C00022D720EE04F00850D9260950DA2213C5FA
:10B7D000DFF4010E1200B9D020EE02F03E50D9265F
:10B7E0003F50DA22DEC441F5DDC442F541C5D9F44B
:10B7F00042C5DAF4DF50436E446A433A443AF00EED
:10B80000441643500F0B4412F00E4316F00E43142F
:10B81000456E0F0E4414466E20EE02F03E50D926BF
:10B820003F50DA2210EE01F0DE50E126DD50E22238
:10B83000E750476E473A0F0E47160F0E4716475010
:10B840004510486E46507FD020EE02F03E50D9267B
:10B850003F50DA2210EE01F0DE50E126DD50E22208
:10B86000E750416E4150436E426A000E4214446EEE
:10B870000F0E4314456E20EE02F03E50D9263F5085
:10B88000DA2210EE02F055D020EE02F03E50D9261A
:10B890003F50DA2210EE03F0DE50E126DD50E222C6
:10B8A000E750416E426A413A423AF00E4216415028
:10B8B0000F0B4212F00E4116F00E4114436E0F0EA4
:10B8C0004214446E20EE02F03E50D9263F50DA2258
:10B8D00010EE04F0DE50E126DD50E222E750456E26
:10B8E000453A0F0E45160F0E451645504310486E4B
:10B8F000445029D020EE02F03E50D9263F50DA22A3
:10B9000010EE04F0DE50E126DD50E222E750416EF9
:10B910004150436E426A000E4214446E0F0E4314AF
:10B92000456E20EE02F03E50D9263F50DA2210EE4E
:10B9300005F0DE50E126DD50E222E750466E46502B
:10B940004410486E4550496E13D04050416E426AD3
:10B950004250000AD8A4CED74150000AD8B43CD7F0
:10B96000010AD8B471D7030AD8B48ED7010AC2D756
:10B970003EC5D9F43FC5DAF4DEC41DF5DDC41EF5BD
:10B9800040C51FF548C520F549C521F520EE10F04A
:10B990003E50D9263F50DA22DEC422F5DDC423F51D
:10B9A000DCEC7BF03EC53AF53FC53BF5EEEC7FF0B5
:10B9B0001200000EBA6F5AC51EF55BC51FF580EC6C
:10B9C00062F00009D8B40AD0010E0501BA6F5AC559
:10B9D00007F55BC508F5FFEC67F022D00501E651DD
:10B9E000D8B41ED05AC508F55BC509F5EFEC5AF07E
:10B9F0000009D8B413D05AC528F55BC529F5C80E7F
:10BA00002A6E000E2B6E000E2C6E000E2D6E000E98
:10BA10002E6E32EC71F0010E0501BA6FE2EC81F08E
:10BA2000500E4A6E070E4B6E42EC63F0000E05019D
:10BA3000BB6FBA51D8B40CD0500E406E070E416E99
:10BA40005A0E426E050E436EC3EC58F00501BB6FF3
:10BA50001E0E07016219D8A488D00501BA51D8B4C6
:10BA60006DD05A0E156E050E166E60C717F561C7BC
:10BA700018F573EC79F00009D8B460D0000E3A6E76
:10BA80000B0E3B6E5A0E3C6E050E3D6EEEEC49F011
:10BA90000501B86FB96BB851BB1320EE03F05A50D3
:10BAA000D9265B50DA22DFA649D05A0E0D6E050E5C
:10BAB0000E6E8DEC7CF00501B86FB96BB851BB13FD
:10BAC000BB51D8A421D05A0E426E050E436E500EC3
:10BAD000446E070E456E83EC70F00501B86FB96BCC
:10BAE000B851BB13BB51D8A40FD0630E4F6E070ED5
:10BAF000506E5A0E516E050E526E26EC4DF0050139
:10BB0000B86FB96BB851BB13BB51D8A417D05A0E3C
:10BB10000F6E050E106E89EC7FF00009D8B40ED0C0
:10BB2000500E3A6E070E3B6E5A0E3C6E050E3D6E81
:10BB3000200E3F6E000E3E6EAFEC7BF0630E4F6E3C
:10BB4000070E506E4DEC4FF0000E3A6E0B0E3B6E32
:10BB500036EC56F0000E0501B46F090EB56FE3EC3C
:10BB60006DF088EC71F02FEC72F0BBC50BF50501A0
:10BB7000BA5160EC67F01200B6D0000EDE6F020E14
:10BB8000DD6F140EF66E930EF76E000EF86E080061
:10BB9000F5501200DE512A6E2B6A010E2A26000E85
:10BBA0002B22140E2A24F66E930E2B20F76EF86AC1
:10BBB000000EF8220800F5C42CF5DE2B2C50D8B46A
:10BBC00003D0280EDE6506D0000E2C6E000EDE6F50
:10BBD000030EDD6F2C501200DE512A6E2B6A2A0EE6
:10BBE0002A26000E2B22140E2A24F66E930E2B20EA
:10BBF000F76EF86A000EF8220800F5C42CF5DE2B6B
:10BC00002C50D8B403D0280EDE65E4D7000E2C6E7D
:10BC1000000EDE6F040EDDD7DE512A6E2B6A530E46
:10BC20002A26000E2B22140E2A24F66E930E2B20A9
:10BC3000F76EF86A000EF8220800F5C42CF5DE2B2A
:10BC40002C50D8B403D0140EDE65C4D7000E2C6E71
:10BC5000000EDE6F050EBDD7DE512A6E2B6A680E10
:10BC60002A26000E2B22140E2A24F66E930E2B2069
:10BC7000F76EF86A000EF8220800F5C42CF5DE2BEA
:10BC80002C50D8B403D0140EDE65A4D7000E2C6E51
:10BC9000000EDE6F060E9DD7DE51246E256A266AE1
:10BCA000276AFB0E286E2AEC70F02C6E0501DE2B45
:10BCB0002C50D8A48FD7070EDD6FDF29DE6F8AD70F
:10BCC000DE51246E256A266A276AFB0E286E2AEC4E
:10BCD00070F02C6E0501DE2B2C50D8A47BD7080EFB
:10BCE00078D7000E12000501DD512A6E2B6A2B5009
:10BCF000000AD8A4F6D72A50010AD8B43ED7030ABE
:10BD0000D8B448D7010AD8B467D7070AD8B484D7BB
:10BD1000010AD8B4A1D7030AD8B4BED7010AD8B44F
:10BD2000CFD7DFD7496E500E056E070E066EF90E9F
:10BD3000076E050E086EA90E096E070E0A6E48EC16
:10BD400083F0000E236E000E226E020E256E0C0E86
:10BD5000246E34EC83F05A0E056E050E066E830ECB
:10BD6000076E070E086E82EC84F0F90E056E050E64
:10BD7000066E740E076E070E086E82EC84F0630E7A
:10BD8000316E070E326E5B0E336E090E346EA10EED
:10BD9000356E070E366E990E376E930E386EF90EAD
:10BDA000396E050E3A6E500E3B6E070E3C6E24EC5B
:10BDB00073F0000E056E0B0E066EF90E076E050E83
:10BDC000086E500E096E070E0A6E8FEC77F0000EAB
:10BDD000056E090E066E000E076E0B0E086E540EF1
:10BDE000096EE00E0A6E000E0B6EA00E0C6E020EB7
:10BDF0000D6E010E0E6E780E0F6E090E106E010E96
:10BE0000116E6C0E126E080E136E010E146E93EC12
:10BE100076F04928D8A407D0630E316E070E326E33
:10BE2000FEEC7EF015D0330E4918D8A407D0630E6F
:10BE3000316E070E326EDBEC7EF00AD0440E4918EC
:10BE4000D8A406D0630E316E070E326EB8EC7EF0C9
:10BE50005DEC74F0A90E056E070E066E62EC84F0C0
:10BE6000630E466E070E476E16EC66F0630E3D6E6F
:10BE7000070E3E6EC0EC69F0630E2F6E070E306E3B
:10BE800079EC84F0F90E056E050E066E94EC84F0E4
:10BE9000F90E096E050E0A6E500E0B6E070E0C6E33
:10BEA0003F0E1FEC83F042EC6BF0500E236E070E3A
:10BEB000246E84EC57F0B7EC84F01200000E1A6E7A
:10BEC000102802E11128D8A48FD0080E1D6ED8903A
:10BED0001D301A241E6E20EE08F00C50D9260D508D
:10BEE000DA22DEC412F5DDC413F51E501224D96E19
:10BEF000000E1320DA6EDF501C6E1C50090DF3C4C7
:10BF000012F5F4C413F520EE06F00C50D9260D50AE
:10BF1000DA22DEC414F5DDC415F512501424056EC2
:10BF200013501520066E0EC507F50FC508F561EC18
:10BF30007CF01B6E1B50D8A447D01E50D8A440D014
:10BF4000000E0D6E000E0C6E120020EE08F00C506C
:10BF5000D9260D50DA22DEC412F5DDC413F51E50C9
:10BF60001226000E1322FF0E1224D96EFF0E13208C
:10BF7000DA6EDF501C6E1C50090DF3C412F5F4C4C8
:10BF800013F520EE06F00C50D9260D50DA22DEC44F
:10BF900014F5DDC415F512501424056E1350152048
:10BFA000066E0EC507F50FC508F544EC6AF0196E6C
:10BFB0001950D8A404D01EC50CF50D6A12001E0637
:10BFC0001E50D8B4BDD7C1D71B50800A7F0FD8A050
:10BFD00003D01E281A6E1D06D8901D321D50D8A4FD
:10BFE00076D70C680D68120020EE08F00C50D926A8
:10BFF0000D50DA22DEC412F5DDC413F51050122400
:10C00000D96E11501320DA6EDF50146E1450090DE2
:10C01000F3C415F5F4C416F520EE06F00C50D9263D
:10C020000D50DA22DEC417F5DDC418F515501724BB
:10C03000056E16501820066E0EC507F50FC508F5DB
:10C0400044EC6AF00009D8B4CCD710C50CF511C582
:10C050000DF512002AC5D9F42BC5DAF4DEC405F5B6
:10C06000DDC406F5C5EC81F005C53DF506C53EF518
:10C070003D503E10D8B4120020EE4EF02A50D92682
:10C080002B50DA22DF6A060E396E000E3A6E0FD0A0
:10C090003A502C24D96E000E2D20DA6E3A503D24F1
:10C0A000E16E000E3E20E26EDFC4E7F43A2A39501A
:10C0B0003A5CD8A0EDD720EE01F03D50D9263E5095
:10C0C000DA2210EE01F03D50E1263E50E222E75028
:10C0D0000F0B5009DF6E2AC505F52BC506F52CC5DB
:10C0E00007F52DC508F53C0E096E050E0A6E3BECF2
:10C0F00075F0376E3750D8B409D020EE06F03D50B9
:10C10000D9263E50DA223CC5DFF4392A2AC505F586
:10C110002BC506F52CC507F52DC508F537C509F55E
:10C120006EEC83F0386E2AC505F52BC506F52CC5D7
:10C1300007F52DC508F511EC6FF005C533F506C5FB
:10C1400034F507C535F508C536F5000E3B6E30D021
:10C150003B503324246E000E3420256E000E352013
:10C16000266E000E3620276E3CC528F520EE4FF0D7
:10C170002A50D9262B50DA2201D80AD00500FA6EAF
:10C18000DE50FD6EDE50FE6EDE50FF6EFA50120085
:10C19000306E3B503D24316E000E3E20326E3950E1
:10C1A0003124D96E000E3220DA6E30C5DFF43B2A1E
:10C1B00038503B5CD8A0CCD72AC5D9F42BC5DAF4CB
:10C1C000DEC405F5DDC406F539503824076E086A6B
:10C1D000083620EE4CF02A50D9262B50DA22DEC445
:10C1E00009F5DDC40AF5D3EC76F01200030E206EDB
:10C1F000000E216E000E226E000E236EDA0E246EEB
:10C20000930E256EDDEC71F0420E206E000E216E55
:10C21000000E226E000E236EDA0E246E930E256E33
:10C22000DDEC71F0820E206E000E216E000E226E8B
:10C23000000E236EC70E246E930E256EDDEC71F09A
:10C24000470E206E010E216E000E226E000E236E30
:10C25000B10E246E930E256EDDEC71F0000E3C6E77
:10C260003C50C50D460EF324356E010EF420366E9B
:10C2700035C519F536C51AF51B6A1C6A030E1D6E05
:10C2800041EC79F0000E3B6E3B50290DF3C435F5BF
:10C29000F4C436F53C50C50DA20EF324376E000EE3
:10C2A000F420386E35503724396E365038203A6EC7
:10C2B00039C520F53AC521F5226A236ADA0E246EC3
:10C2C000930E256EDDEC71F03B50290DF3C435F56E
:10C2D000F4C436F53C50C50DCA0EF324376E000E7B
:10C2E000F420386E35503724396E365038203A6E87
:10C2F00039C519F53AC51AF51B6A1C6A000E1D6E80
:10C3000041EC79F03B2A030E3B64BED73C2A010E78
:10C310003C64A6D7CA0E196E000E1A6E000E1B6E74
:10C32000000E1C6E0F0E1D6E41EC79F0460E196E5C
:10C33000010E1A6E000E1B6E000E1C6E030E1D6E9B
:10C3400041EC79F08F0E196E010E1A6E000E1B6E05
:10C35000000E1C6E100E1D6E41EC79F00B0E196E66
:10C36000020E1A6E000E1B6E000E1C6E030E1D6E6A
:10C3700041EC79F0120020EE1BF01850D92619502C
:10C38000DA221AC5DFF420EE0EF01850D926195023
:10C39000DA221BC5DFF420EE23F01850D9261950FD
:10C3A000DA2220C5DFF40EEC79F020EE04F018500C
:10C3B000D9261950DA2205C5DEF406C5DEF407C514
:10C3C000DEF408C5DEF420EE04F01850D92619502A
:10C3D000DA2210EE08F01850E1261950E222DEC4ED
:10C3E000E6F4DEC4E6F4DEC4E6F4DEC4E6F420EEF1
:10C3F00004F01850D9261950DA2218C5E1F419C5ED
:10C40000E2F4DEC4E6F4DEC4E6F4DEC4E6F4DEC440
:10C41000E6F420EE21F01850D9261950DA22DF6A0E
:10C4200020EE0CF01850D9261950DA22DF6A20EEDF
:10C430000DF01850D9261950DA22DF6A20EE13F0D9
:10C440001850D9261950DA22DE6ADE6ADE6ADD6A01
:10C4500020EE17F01850D9261950DA22DE6ADE6A6B
:10C46000DE6ADD6A20EE22F01850D9261950DA2251
:10C47000DF6A20EE0FF01850D9261950DA221CC5B9
:10C48000DEF41DC5DEF41EC5DEF41FC5DEF420EEAD
:10C490001CF01850D9261950DA22DE6ADE6ADE6AEC
:10C4A000DD6A20EE20F01850D9261950DA221B50F0
:10C4B000D8A402D0010E01D0000EDF6E000E096E6E
:10C4C00020EE1BF01850D9261950DA22DF50A8ECC4
:10C4D00081F020EE0EF01850D9261950DA22DF50E4
:10C4E000D8A402D0010E01D0000E096E20EE1BF080
:10C4F0001850D9261950DA22DF500FEC80F01200C4
:10C5000001016CA191D070C126F571C127F520EE13
:10C510000DF01E50D9261F50DA22DF9220EE04F0D3
:10C520002650D9262750DA22DFA807D020EE0DF0BA
:10C530001E50D9261F50DA22DF8220EE0DF01E5049
:10C54000D9261F50DA22DF9020EE04F02650D9269B
:10C550002750DA22DFAA07D020EE0DF01E50D92690
:10C560001F50DA22DF8020EE0DF01E50D9261F501A
:10C57000DA22DFA258D020EE02F02650D92627502A
:10C58000DA22DF50226E20EE03F02650D926275003
:10C59000DA22DF501F0B236E22C520F523C521F5BB
:10C5A000D89020362136D89020362136D8902036A3
:10C5B000213620C522F521C523F526C5D9F427C586
:10C5C000DAF4DF50246E20EE01F02650D9262750F1
:10C5D000DA22DF50070B256E020ED8902236233662
:10C5E00024362536E82EF9D7E00E221620EE01F08B
:10C5F0002650D9262750DA22DF50206ED8902032DC
:10C60000D8902032D89020301F0B22121EC5D9F4AA
:10C610001FC5DAF422C5DEF423C5DEF424C5DEF43A
:10C6200025C5DEF403D06981000E120020EE04F06F
:10C630001E50D9261F50DA2210EE04F02650E126B3
:10C640002750E222E7500F0BDF6E050E1E24136EFB
:10C65000000E1F20146E080E2624156E000E2720D3
:10C66000166E20EE04F01E50D9261F50DA22DF503D
:10C67000206E2050176E186AABEC7FF001016981C3
:10C68000010E120020EE12F04A50D9264B50DA2249
:10C690001E0EDE18D8B412008DD04AC53EF54BC52B
:10C6A0003FF520EE12F04A50D9264B50DA22DF50E7
:10C6B000406EEBEC5BF00009D8B4120020EE12F0F3
:10C6C0004A50D9264B50DA22DF2A12000EEC79F0BC
:10C6D00020EE04F04A50D9264B50DA2205C5DEF48C
:10C6E00006C5DEF407C5DEF408C5DEF420EE12F060
:10C6F0004A50D9264B50DA220A0EDF6E12000EEC99
:10C7000079F020EE04F04A50D9264B50DA22DEC4EC
:10C710004CF5DEC44DF5DEC44EF5DEC44FF5C80E53
:10C720004C24506E000E4D20516E000E4E20526E65
:10C73000000E4F20536E0550505C06505158075064
:10C74000525808505358D8B012004AC53EF54BC550
:10C750003FF5FEEC81F00009D8B4120020EE12F093
:10C760004A50D9264B50DA22140EDF6E12004AC509
:10C770003EF54BC53FF56FEC7EF00009D8B408D00C
:10C7800020EE12F04A50D9264B50DA22190EDF6EF5
:10C790004AC53EF54BC53FF551EC7BF00009D8B4D6
:10C7A000120020EE12F04A50D9264B50DA221E0E0B
:10C7B000DF6E120020EE12F04A50D9264B50DA22DA
:10C7C000DF504C6E4D6A4D50000AD8A412004C50F8
:10C7D000000AD8B462D7010AD8B45FD7030AD8B424
:10C7E0005CD7010AD8B459D7070AD8B46FD70E0A54
:10C7F000D8B485D71E0AD8B4BAD70D0AD8A4120067
:10C80000C7D705C5D9F406C5DAF4090EDF602ED006
:10C8100020EE02F00550D9260650DA22C60EDE6E52
:10C82000040EDD6E20EE04F00550D9260650DA2203
:10C83000BE0EDE6E040EDD6E20EE06F00550D9262B
:10C840000650DA22010EDE6E040EDD6E20EE08F0D8
:10C850000550D9260650DA22CE0EDE6E040EDD6EAD
:10C8600005C5D9F406C5DAF4DF066AD005C5D9F4E2
:10C8700006C5DAF4110EDF602ED020EE02F005506E
:10C88000D9260650DA22C70EDE6E040EDD6E20EECB
:10C8900004F00550D9260650DA22BF0EDE6E040ED3
:10C8A000DD6E20EE06F00550D9260650DA22090E7C
:10C8B000DE6E040EDD6E20EE08F00550D92606501F
:10C8C000DA22CF0EDE6E040EDD6E05C5D9F406C584
:10C8D000DAF4090E34D005C5D9F406C5DAF4190E18
:10C8E000DF60120020EE02F00550D9260650DA2251
:10C8F000C80EDE6E040EDD6E20EE04F00550D92663
:10C900000650DA22C00EDE6E040EDD6E20EE06F05A
:10C910000550D9260650DA22110EDE6E040EDD6EA9
:10C9200020EE08F00550D9260650DA22D00EDE6E31
:10C93000040EDD6E05C5D9F406C5DAF4110EDF5E0E
:10C9400005C5D9F406C5DAF4DF50076E086A910E02
:10C950000724F66E930E0820F76EF86A000EF82290
:10C9600020EE01F00550D9260650DA220800F5C461
:10C97000DFF41200010160B102D0000E120064C1A8
:10C9800026F565C127F520EE04F02650D92627505C
:10C99000DA22DF6A1EC5D9F41FC5DAF4DEC422F537
:10C9A000DEC423F5DEC424F5DEC425F520EE0DF04B
:10C9B0001E50D9261F50DA22DFA24FD020EE01F000
:10C9C0002650D9262750DA222238E842F80BDF6EAB
:10C9D000020E206ED8902532243223322232202EAD
:10C9E000F9D726C5D9F427C5DAF424C5DFF425C55F
:10C9F00020F5070E201620EE01F02650D9262750EC
:10CA0000DA222050DF1222C520F523C521F5D89067
:10CA100021322032D89021322032D8902132203257
:10CA200020C522F521C523F520EE02F02650D92697
:10CA30002750DA2222C5DFF420EE03F02650D92653
:10CA40002750DA2223501F0BDF6E20EE04F0265011
:10CA5000D9262750DA22DF8805D0030E01015D6F49
:10CA6000010E120020EE04F01E50D9261F50DA22CB
:10CA7000DF50206E20EE04F02650D9262750DA220F
:10CA8000DF502018F00B2018DF6E20EE0DF01E5046
:10CA9000D9261F50DA22DFA007D020EE04F026505E
:10CAA000D9262750DA22DF8A080E2624136E000EBC
:10CAB0002720146E050E1E24156E000E1F20166E04
:10CAC00020EE04F01E50D9261F50DA22DF50206ECF
:10CAD0002050176E186AABEC7FF0BFD720EE4EF0F7
:10CAE000A051D926A151DA22DF6AA0C505F5A1C55A
:10CAF00006F5A2C507F5A3C508F511EC6FF005C54D
:10CB0000AAF506C5ABF507C5ACF508C5ADF5060E2B
:10CB10000501AE6FA0C505F5A1C506F5A2C507F5CF
:10CB2000A3C508F5B30E096E050E0A6E3BEC75F051
:10CB30000009D8A4AE2B000EAF6F000EB06F000E30
:10CB4000B16F000EB26F34D0AF51AA25266EB0512E
:10CB5000AB21276EB151AC21286EB251AD21296EA7
:10CB6000B3C52AF5AE51A225A66F000EA321A76F6B
:10CB7000AF51A625D96EB051A721DA6EDF502B6ECA
:10CB800020EE52F0A051D926A151DA2201D80AD0C4
:10CB90000500FA6EDE50FD6EDE50FE6EDE50FF6E5A
:10CBA000FA501200010EAF27000EB023B123B223BA
:10CBB000AE51A45DA66FA551D8A0A505A76FA86B1F
:10CBC000A96BA651AF5DA751B059A851B159A95150
:10CBD000B259D8A0B9D720EE58F0A051D926A1510A
:10CBE000DA22DE50DE10DE10D8B41200AAC54DF5F0
:10CBF000ABC54EF5FA0EA4254F6EFF0EA521506E63
:10CC0000000E526E000E516E20EE58F0A051D92643
:10CC1000A151DA2201D812000500FA6EDE50FD6E35
:10CC2000DE50FE6EDE50FF6EFA50120020EE05F070
:10CC30004650D9264750DA22EE0EDE18D8A407D087
:10CC400046C5D9F447C5DAF4000EDB8028D020EEC3
:10CC500005F04650D9264750DA22440EDE18D8A4F3
:10CC600007D046C5D9F447C5DAF4000EDB8617D0E5
:10CC700020EE05F04650D9264750DA22330EDE1852
:10CC8000D8A407D046C5D9F447C5DAF4000EDB8234
:10CC900006D046C5D9F447C5DAF4000EDB8446C594
:10CCA000D9F447C5DAF4DFB0120046C5D9F447C558
:10CCB000DAF4DFB6120046C5D9F447C5DAF4DFA2CC
:10CCC00025D046C531F547C532F54BEC6EF0F6EC94
:10CCD00060F020EE05F04650D9264750DA22EE0EDD
:10CCE000DF6E000E1E6E000E1F6E000E206E000E18
:10CCF000216E030E4624226E000E4720236E000E86
:10CD0000256E030E246EC8EC75F0120046C5D9F4EA
:10CD100047C5DAF4DFA4120020EE03F04650D9260E
:10CD20004750DA22DE6ADD6AFAEC83F046C531F557
:10CD300047C532F54BEC6EF0F6EC60F020EE05F0F6
:10CD40004650D9264750DA22EE0EDF6E000E1E6ED8
:10CD5000000E1F6E000E206E000E216E030E462484
:10CD6000226E000E4720236E000E256E030E246EE9
:10CD7000C8EC75F01200460E136E050E146E3CC51D
:10CD8000D9F43DC5DAF4DEC43EF5DDC43FF5050E49
:10CD90003E24156E000E3F20166E000E186E080E13
:10CDA000176EABEC7FF0000E4E6E4E50090DF3C4C3
:10CDB0003EF5F4C43FF520EE06F03A50D9263B503C
:10CDC000DA22DEC440F5DDC441F53E504024426E17
:10CDD0003F504120436E080E4224D96E000E43207E
:10CDE000DA6EDFA668D021EE46F101EE31F1070ED2
:10CDF000DBC4EBF4E806FCE24E5019EC82F04E5036
:10CE0000090DF3C43EF5F4C43FF520EE06F03A50A8
:10CE1000D9263B50DA22DEC440F5DDC441F53E5050
:10CE20004024426E3F504120436E080E4224D96E8A
:10CE3000000E4320DA6E000EDB804E50090DF3C465
:10CE40003EF5F4C43FF520EE06F03A50D9263B50AB
:10CE5000DA22DEC440F5DDC441F53E504024426E86
:10CE60003F504120436E080E4224D96E000E4320ED
:10CE7000DA6EF70EDF1620EE10F03A50D9263B504E
:10CE8000DA224E50DE5CD8A003D04EC544F50AD05D
:10CE900020EE10F03A50D9263B50DA22DF503E6E99
:10CEA0003E50446E456A20EE10F03A50D9263B5071
:10CEB000DA2244C5DFF44E2A070E4E6476D71200FC
:10CEC0000C6E000E0D6E000E0E6E0C50D8B438D0E5
:10CED000000E0F6EBC0E0F24D96EDA6A050EDA2230
:10CEE000DF50106E0F0E1018D8B40BD0110E1018A2
:10CEF000D8B407D00B50D8B406D0250E1018D8A43B
:10CF000002D0010E0D6EC10E0F24D96EDA6A050E25
:10CF1000DA22DF50106E0F0E1018D8B40BD0110E9D
:10CF20001018D8B407D00B50D8B406D0250E10185E
:10CF3000D8A402D0010E0E6E0F2A030E0F64CAD7BA
:10CF4000050120EE0EF0F951D926FA51DA22DF5010
:10CF5000D8B432D0000E0F6EBC0E0F24D96EDA6A30
:10CF6000050EDA22DF50106E100E1018D8B404D05F
:10CF7000110E1018D8A402D0010E0D6EC10E0F2490
:10CF8000D96EDA6A050EDA22DF50106E100E101814
:10CF9000D8B404D0110E1018D8A402D0010E0E6E11
:10CFA0000F2A030E0F64D8D7050120EE0EF0F951B9
:10CFB000D926FA51DA22DF6A0D50D8B40ED02C0EE1
:10CFC000056E070E066E010E076E000E086E000E4F
:10CFD000096E000E0A6E09EC84F00E50D8B41200EF
:10CFE000080E056E070E066E010E076E000E086E27
:10CFF000000E096E000E0A6E09EC84F012000501A5
:10D00000E7B712006EEC84F00009D8B41200000EED
:10D010005624D96EDA6A0A0EDA223A0EDF6E562AE2
:10D0200020EE0DF00750D9260850DA22DFA208D0F2
:10D03000000E5624D96EDA6A0A0EDA22580E07D08C
:10D04000000E5624D96EDA6A0A0EDA22530EDF6E0B
:10D05000562A20EE0DF00750D9260850DA22DFA21A
:10D0600012D020EE03F00750D9260850DA22DF5004
:10D07000AEEC7DF020EE02F00750D9260850DA22FF
:10D08000DF50AEEC7DF020EE01F00750D9260850BD
:10D09000DA22DF50AEEC7DF007C5D9F408C5DAF42A
:10D0A000DF50AEEC7DF020EE0DF00750D926085091
:10D0B000DA22DFA008D0000E5624D96EDA6A0A0EF2
:10D0C000DA22520E07D0000E5624D96EDA6A0A0E02
:10D0D000DA224E0EDF6E562A000E0B6E10D00B5069
:10D0E0000724096E000E08200A6E050E0924D96E69
:10D0F000000E0A20DA6EDF50AEEC7DF00B2A20EE37
:10D1000004F00750D9260850DA22DF500F0B0B60CD
:10D1100003D0070E0B64E3D7000E5624D96EDA6AEB
:10D120000A0EDA223B0EDF6E562AA28212000A6E27
:10D130000A50030B096E0A40E8423F0B0B6E0B507E
:10D14000D8A404D02C0E0C6E070E03D0080E0C6E63
:10D15000070E0D6E64D00B50050DC00EF324D96E72
:10D16000050EF420DA6EDF50056E0550040DAF0E8B
:10D17000F324D96E070EF420DA6E10EE0FF00C5087
:10D18000E1260D50E222DEC4E6F4DEC4E6F4DEC49D
:10D19000E6F4DEC4E6F4120020EE0FF00C50D926BF
:10D1A0000D50DA22DE50DE10DE10DE10D8A421D0C1
:10D1B0000B50050DC00EF324D96E050EF420DA6E67
:10D1C000DF50056E0550040DAF0EF324D96E070E27
:10D1D000F420DA6E10EE0FF00C50E1260D50E22232
:10D1E000DEC4E6F4DEC4E6F4DEC4E6F4DEC4E6F44F
:10D1F000120020EE0FF00C50D9260D50DA22DE6A14
:10D20000DE6ADE6ADD6A120020EE0FF00C50D926CD
:10D210000D50DA22DE6ADE6ADE6ADD6A12000B5029
:10D22000050DBC0EF324056E050EF420066E0950A4
:10D230000524D96E000E0620DA6EDF50076E086AEC
:10D240000850000AD8A4E0D707500B0AD8B483D7F7
:10D25000060AD8B4A1D7D8D7D8C403F5BDA04AD000
:10D26000BD90AD900501E893000E0001416FFE0EE8
:10D27000436F030E446F380E456F3CD00201B2A3DA
:10D2800003D0B2930501E7830201B2A702D00501E2
:10D29000E781A1C204F5000E5924D96EDA6A080E9E
:10D2A000DA2204C5DFF43B0E0418D8B408D00A0E05
:10D2B0000418D8B404D00D0E0418D8A402D0050167
:10D2C000E62B592A585059C501F5026A015E000E35
:10D2D000025A02BE09D0025004E1CF0E015CD8A070
:10D2E00003D00000BF82000058505918D8A402D0C3
:10D2F0000501E785B2B0C2D7B2A23FD0CFA00AD015
:10D300000501E551D8A438D0E451D8A435D0020E97
:10D31000E56F32D056505718D8B42ED0000E57248F
:10D32000D96EDA6A0A0EDA22DF500201A36F572A99
:10D3300056505718D8A421D001016CB11ED0BFA2FD
:10D3400002D0010E01D0000EFF0A016E0146BF504F
:10D350000118FD0B0118BF6E00000000BFA202D033
:10D36000010E01D0000EFF0A016E0146BF500118E8
:10D37000FD0B0118BF6E01D0A29203C5D8F41100B5
:10D38000000E466E20EE08F03D50D9263E50DA22BF
:10D39000DEC43FF5DDC440F546503F24D96E000E93
:10D3A0004020DA6E46C5DFF43DC505F53EC506F5FD
:10D3B00046C507F521EC7FF005C51EF506C51FF52E
:10D3C000206A216A4650090DF3C43FF5F4C440F5C4
:10D3D00020EE06F03D50D9263E50DA22DEC441F55B
:10D3E000DDC442F53F504124226E40504220236E5E
:10D3F000000E256E080E246ED3EC72F03DC505F5C7
:10D400003EC506F546C507F544EC7FF03F6E465035
:10D41000090DF3C440F5F4C441F520EE06F03D508B
:10D42000D9263E50DA22DEC442F5DDC443F5405031
:10D430004224446E41504320456E080E4424D96E68
:10D44000000E4520DA6E3F50DF12462A070E466472
:10D4500099D720EE08F03D50D9263E50DA22DEC49E
:10D4600021F5DDC422F5000E246E080E236E000E99
:10D47000266E010E256E0A0E276EF00E286E000E27
:10D48000296E92EC54F01200000E0B6E07C5D9F411
:10D4900008C5DAF405C5E1F406C5E2F4DE50E61885
:10D4A000D8A472D020EE01F00750D9260850DA2215
:10D4B00010EE01F00550E1260650E222DE50E6189B
:10D4C000D8A462D020EE02F00750D9260850DA2204
:10D4D00010EE02F00550E1260650E222DE50E6187A
:10D4E000D8A452D020EE03F00750D9260850DA22F3
:10D4F00010EE03F00550E1260650E222DE50E61859
:10D50000D8A442D020EE04F00750D9260850DA22E1
:10D5100010EE04F00550E1260650E222DE50E61837
:10D52000D8A432D020EE05F00750D9260850DA22D0
:10D5300010EE05F00550E1260650E222DE50E61816
:10D54000D8A422D020EE06F00750D9260850DA22BF
:10D5500010EE06F00550E1260650E222DE50E618F5
:10D56000D8A412D020EE07F00750D9260850DA22AE
:10D5700010EE07F00550E1260650E222DE50E618D4
:10D58000D8A402D0010E0B6E0B501200000E0B6ED1
:10D5900005C5D9F406C5DAF410EE05F0DE50E12633
:10D5A000DD50E22207C5D9F408C5DAF4E650DE18EA
:10D5B000D8A466D005C5D9F406C5DAF410EE06F095
:10D5C000DE50E126DD50E22220EE01F00750D926A0
:10D5D0000850DA22E650DE18D8A452D005C5D9F496
:10D5E00006C5DAF410EE07F0DE50E126DD50E22247
:10D5F00020EE02F00750D9260850DA22E650DE1855
:10D60000D8A43ED005C5D9F406C5DAF410EE08F06A
:10D61000DE50E126DD50E22220EE03F00750D9264D
:10D620000850DA22E650DE18D8A42AD005C5D9F46D
:10D6300006C5DAF410EE09F0DE50E126DD50E222F4
:10D6400020EE04F00750D9260850DA22E650DE1802
:10D65000D8A416D005C5D9F406C5DAF410EE0AF040
:10D66000DE50E126DD50E22220EE05F00750D926FB
:10D670000850DA22E650DE18D8A402D0010E0B6E54
:10D680000B5012000101018F0351F80B0409036FC5
:10D690000239E832070B040AD8A4FAD7000E4C6FFF
:10D6A000380E4D6F000E4E6F000E4F6F600E006F04
:10D6B000870E016F100E026F0F0E03174F0E046FCF
:10D6C0004F0E056FEE0E066F000E076F800E506F47
:10D6D0005185610E526F030E536F800E5C6F5D8536
:10D6E000600E5E6F1F0E5F6F000E686F6985600EC3
:10D6F0006A6F1F0E6B6F000E806F000E8C6F000E36
:10D700008D6F000E8E6F000E8F6F000E906F000EEB
:10D71000916F000E926F400E936F820E806F000E1D
:10D72000816F000E946F000E956F000E966F400E85
:10D73000976F000E986F000E996F000E9A6F400E53
:10D740009B6F820E816F0351F80B0609036F066809
:10D7500007D0820E056EDE0EE82EFED7052EFCD712
:10D7600001010239E832070B060AD8B41200060696
:10D770000628D8B41200EDD7000E296E2D0E136EB8
:10D78000050E146E21C5D9F422C5DAF4DEC423F5E2
:10D79000DDC424F5050E2324156E000E2420166E1C
:10D7A000000E186E080E176EABEC7FF02B682C681D
:10D7B0003FD020EE08F01F50D9262050DA22DEC4D8
:10D7C00023F5DDC424F52B502324D96E2C502420BE
:10D7D000DA6EDF502A6E2A50090DF3C423F5F4C423
:10D7E00024F520EE06F01F50D9262050DA22DEC4A0
:10D7F00025F5DDC426F523502524276E2450262048
:10D80000286E080E2724D96E000E2820DA6EDFAAB3
:10D8100005D02A50ABEC84F0010E296E2B4A2C2A3D
:10D820002CBE06D02C501BE1080E2B5CD8B017D0B4
:10D830001FC50CF520C50DF52D0E0E6E050E0F6ED5
:10D840002BC510F52CC511F55EEC5FF00CC52BF562
:10D850000DC52CF52B28ADE12C28D8A4AAD729502A
:10D8600012002C0E136E050E146E21C5D9F422C5BC
:10D87000DAF4DEC423F5DDC424F5050E2324156E89
:10D88000000E2420166E000E186E080E176EABECFC
:10D890007FF02A682B683DD020EE08F01F50D92673
:10D8A0002050DA22DEC423F5DDC424F52A502324D7
:10D8B000D96E2B502420DA6EDF50296E2950090DC5
:10D8C000F3C423F5F4C424F520EE06F01F50D92646
:10D8D0002050DA22DEC425F5DDC426F523502524A8
:10D8E000276E24502620286E080E2724D96E000E9D
:10D8F0002820DA6EDFAA03D02950A4EC84F02A4A4B
:10D900002B2A2BBE06D02B501CE1080E2A5CD8B067
:10D9100012001FC50CF520C50DF52C0E0E6E050E60
:10D920000F6E2AC510F52BC511F55EEC5FF00CC526
:10D930002AF50DC52BF52A28AFE12B28D8B4120003
:10D94000ABD71200000E126E1250090DF3C40CF585
:10D95000F4C40DF520EE06F00A50D9260B50DA2259
:10D96000DEC40EF5DDC40FF50C500E24106E0D5004
:10D970000F20116E080E1024D96E000E1120DA6EE1
:10D98000DFBA1ED01250090DF3C40CF5F4C40DF526
:10D9900020EE06F00A50D9260B50DA22DEC40EF52E
:10D9A000DDC40FF50C500E24106E0D500F20116EBB
:10D9B000080E1024D96E000E1120DA6EDFAC24D0D0
:10D9C0001250F1EC80F00009D8B41ED01250090DAD
:10D9D000F3C40CF5F4C40DF520EE06F00A50D92678
:10D9E0000B50DA22DEC40EF5DDC40FF50C500E2408
:10D9F000106E0D500F20116E080E1024D96E000EFF
:10DA00001120DA6E000EDB80122A070E12649CD7FA
:10DA100020EE10F00A50D9260B50DA22DF6A1200ED
:10DA200007C50DF50DC508F5030E08160DC509F55A
:10DA3000D8900932D89009320950050DBC0EF32454
:10DA40000A6E050EF4200B6E08500A24D96E000EE3
:10DA50000B20DA6EDF500C6E0D40E8423F0BD8A46D
:10DA600004D02C0E0E6E070E03D0080E0E6E070E9D
:10DA70000F6E0C50D8A42BD0040E066EC70E056E88
:10DA8000120020EE0EF00E50D9260F50DA2210EEC2
:10DA900020F00E50E1260F50E222DE50E618D8B4F6
:10DAA00025D0040E066EC40E056E120020EE0EF098
:10DAB0000E50D9260F50DA2210EE20F00E50E1263B
:10DAC0000F50E222DE50E618D8B4EBD70FD00C503E
:10DAD000086E096A0950000AD8A4CED708500B0A6C
:10DAE000D8B4E4D7070AD8B4CCD7C6D7040E066E8C
:10DAF000C50E056E1200000E0301626F000E636F0B
:10DB0000000E646F000E656F000E656F000E666F8D
:10DB1000000E676F000E686F000E696F000E6A6F6F
:10DB2000000E6B6F000E6C6F000E6D6F000E6E6F4F
:10DB3000000E6F6F000E706F000E716F000E9F6E03
:10DB4000000EA06E000EA16E000EA26E000EA36E5F
:10DB5000000EA46E000EA56E000EA66E000EA76E3F
:10DB6000000EA86E000EA96E000EAA6E000EAB6E1F
:10DB7000000EAC6E000EAD6E000EAF6E000EB06EFD
:10DB8000000EB16E000EB26E000EB36E000EB46EDB
:10DB9000000EB56E000EB66E000EB76E000EB86EBB
:10DBA000000EB96E000EBA6E000EBB6E000EBC6E9B
:10DBB000000EBD6ED68A030E0501D76FE80ED66F34
:10DBC0003C0EE26F120020EE4EF0B451D926B55152
