:1080000002012C060000FF00FF00FF00FF00FF0040
:108100008EEF40F0FF00FF0054EFC2F0FF00FF00D1
:10811000FF00FF00FF00FF00D7EFCCF003EFB2F04D
:1081200000202020203C63646920786D6C6E733AD7
:108130007873693D27687474703A2F2F7777772E9C
:1081400077332E6F72672F323030312F584D4C53AA
:108150006368656D612D696E7374616E6365272058
:108160007873693A6E6F4E616D65737061636553C4
:108170006368656D614C6F636174696F6E3D2768FC
:108180007474703A2F2F6F70656E6C63622E6F720D
:10819000672F7472756E6B2F70726F746F74797055
:1081A00065732F786D6C2F736368656D612F6364E1
:1081B000692E787364273E0A202020203C6964657C
:1081C0006E74696669636174696F6E3E0A2020206F
:1081D00020202020203C6D616E756661637475728D
:1081E00065723E5350524F4720444343204C7464C1
:1081F0003C2F6D616E7566616374757265723E0ABF
:1082000020202020202020203C6D6F64656C3E499A
:108210004F2D4C43433C2F6D6F64656C3E0A20200C
:108220002020202020203C686172647761726556AE
:10823000657273696F6E3E312E303C2F68617264D7
:108240007761726556657273696F6E3E0A202020F1
:1082500020202020203C736F66747761726556651C
:108260007273696F6E3E322E323C2F736F66747775
:1082700061726556657273696F6E3E0A2020202018
:108280003C2F6964656E74696669636174696F6EB9
:108290003E0A202020203C616364692F3E0A202092
:1082A00020203C7365676D656E74206F7269676925
:1082B0006E3D2733272073706163653D2732353368
:1082C000273E203C212D2D2053706163652030789E
:1082D0004644202D2D3E0A20202020202020203C16
:1082E0006E616D653E4E6F646520446573637269AF
:1082F0007074696F6E3C2F6E616D653E0A202020A0
:1083000020202020203C6465736372697074696F5B
:108310006E3E557365722D70726F76696465642068
:108320006465736372697074696F6E206F66207420
:108330006865206E6F64653C2F6465736372697055
:1083400074696F6E3E0A20202020202020203C737C
:108350007472696E672073697A653D273633273EEC
:108360003C6E616D653E4E6F6465204E616D653C8F
:108370002F6E616D653E3C2F737472696E673E0AA5
:1083800020202020202020203C737472696E6720FA
:1083900073697A653D273634273E3C6E616D653ED4
:1083A0004E6F6465204465736372697074696F6EA3
:1083B0003C2F6E616D653E3C2F737472696E673E33
:1083C0000A202020203C2F7365676D656E743E0A7D
:1083D0000A20203C7365676D656E74206F72696753
:1083E000696E3D27313330272073706163653D2707
:1083F000323533273E0A202020203C6E616D653ED9
:1084000042616E6B2041203C2F6E616D653E0A20FB
:108410002020203C6465736372697074696F6E3EDE
:1084200053657420492F4F2066756E6374696F6EB3
:10843000616C6974793C2F646573637269707469E7
:108440006F6E3E0A202020203C696E742073697A8A
:10845000653D2731273E0A2020202020203C6E61E8
:108460006D653E42616E6B20547970653C2F6E6184
:108470006D653E0A2020202020203C6465666175E1
:108480006C743E303C2F64656661756C743E0A20E6
:1084900020202020203C6D61703E0A2020202020DA
:1084A0002020203C72656C6174696F6E3E3C707276
:1084B0006F70657274793E303C2F70726F706572A8
:1084C00074793E3C76616C75653E496E7075742FAB
:1084D0004F75747075743C2F76616C75653E3C2FDA
:1084E00072656C6174696F6E3E0A20202020202026
:1084F00020203C72656C6174696F6E3E3C70726FD7
:1085000070657274793E313C2F70726F7065727451
:10851000793E3C76616C75653E536572766F3C2F93
:1085200076616C75653E3C2F72656C6174696F6E27
:108530003E0A2020202020203C2F6D61703E0A2022
:108540002020203C2F696E743E0A202020203C67AA
:10855000726F7570207265706C69636174696F6E9B
:108560003D2738273E0A2020202020203C6E616DC8
:10857000653E4368616E6E656C2073657475703C12
:108580002F6E616D653E0A2020202020203C726500
:10859000706E616D653E413C2F7265706E616D65F8
:1085A0003E0A2020202020203C737472696E6720D0
:1085B00073697A653D273332273E3C6E616D653EB7
:1085C0004465736372697074696F6E3C2F6E616D80
:1085D000653E3C2F737472696E673E0A202020202E
:1085E00020203C696E742073697A653D2731273EEF
:1085F0000A20202020202020203C6E616D653E4610
:10860000756E6374696F6E3C2F6E616D653E0A20F6
:10861000202020202020203C64656661756C743E1B
:10862000323C2F64656661756C743E0A2020202000
:10863000202020203C6D61703E0A20202020202038
:10864000202020203C72656C6174696F6E3E3C7026
:10865000726F70657274793E303C2F70726F706506
:108660007274793E3C76616C75653E4E6F6E653C0A
:108670002F76616C75653E3C2F72656C6174696F15
:108680006E3E0A202020202020202020203C7265E1
:108690006C6174696F6E3E3C70726F706572747954
:1086A0003E313C2F70726F70657274793E3C76611A
:1086B0006C75653E496E7075743C2F76616C75659E
:1086C0003E3C2F72656C6174696F6E3E0A202020FB
:1086D000202020202020203C72656C6174696F6E20
:1086E0003E3C70726F70657274793E323C2F7072CE
:1086F0006F70657274793E3C76616C75653E4F753E
:10870000747075743C2F76616C75653E3C2F726594
:108710006C6174696F6E3E0A20202020202020208A
:1087200020203C72656C6174696F6E3E3C70726FA4
:1087300070657274793E333C2F70726F706572741D
:10874000793E3C76616C75653E427574746F6E2F30
:108750004C4544202D204F757470757420776974D2
:10876000682073616D706C656420696E7075743C0F
:108770002F76616C75653E3C2F72656C6174696F14
:108780006E3E0A202020202020202020203C7265E0
:108790006C6174696F6E3E3C70726F706572747953
:1087A0003E343C2F70726F70657274793E3C766116
:1087B0006C75653E4F75747075742073696E676C67
:1087C000652070756C73653C2F76616C75653E3CF9
:1087D0002F72656C6174696F6E3E0A202020202024
:1087E00020202020203C72656C6174696F6E3E3CD5
:1087F00070726F70657274793E353C2F70726F7055
:10880000657274793E3C76616C75653E4F75747027
:1088100075742073696E676C652070756C73652C58
:108820002072657472696767657261626C653C2F5E
:1088300076616C75653E3C2F72656C6174696F6E14
:108840003E0A202020202020202020203C72656C21
:108850006174696F6E3E3C70726F70657274793EC0
:10886000363C2F70726F70657274793E3C76616C25
:1088700075653E4F757470757420726570656174AE
:10888000696E672070756C7365733C2F76616C75CB
:10889000653E3C2F72656C6174696F6E3E0A2020E4
:1088A0002020202020203C2F6D61703E0A202020B7
:1088B0002020203C2F696E743E0A2020202020209A
:1088C0003C696E742073697A653D2731273E0A2022
:1088D000202020202020203C6E616D653E506F6C72
:1088E00061726974793C2F6E616D653E0A202020AB
:1088F00020202020203C64656661756C743E303C0D
:108900002F64656661756C743E0A2020202020204B
:1089100020203C6D61703E0A202020202020202055
:1089200020203C72656C6174696F6E3E3C70726FA2
:1089300070657274793E303C2F70726F706572741E
:10894000793E3C76616C75653E4E6F726D616C3C34
:108950002F76616C75653E3C2F72656C6174696F32
:108960006E3E0A202020202020202020203C7265FE
:108970006C6174696F6E3E3C70726F706572747971
:108980003E313C2F70726F70657274793E3C766137
:108990006C75653E496E7665727465643C2F7661D0
:1089A0006C75653E3C2F72656C6174696F6E3E0A32
:1089B00020202020202020203C2F6D61703E0A20A6
:1089C00020202020203C2F696E743E0A2020202089
:1089D00020203C696E742073697A653D2732273EFA
:1089E0000A20202020202020203C6E616D653E4F13
:1089F0007574707574204F6E20506572696F643C99
:108A00002F6E616D653E0A2020202020203C2F69BA
:108A10006E743E0A2020202020203C696E74207352
:108A2000697A653D2732273E0A2020202020202019
:108A3000203C6E616D653E4F7574707574204F6695
:108A40006620506572696F643C2F6E616D653E0AE9
:108A50002020202020203C2F696E743E0A202020F8
:108A60002020203C696E742073697A653D27312788
:108A70003E0A20202020202020203C6E616D653E93
:108A8000556E6974733C2F6E616D653E0A2020201F
:108A900020202020203C64656661756C743E303C6B
:108AA0002F64656661756C743E0A202020202020AA
:108AB00020203C6D61703E0A2020202020202020B4
:108AC00020203C72656C6174696F6E3E3C70726F01
:108AD00070657274793E303C2F70726F706572747D
:108AE000793E3C76616C75653E4D696C6C69736569
:108AF000636F6E647320286D73293C2F76616C75EB
:108B0000653E3C2F72656C6174696F6E3E0A202071
:108B100020202020202020203C72656C6174696F29
:108B20006E3E3C70726F70657274793E313C2F708E
:108B3000726F70657274793E3C76616C75653E53F8
:108B400065636F6E6473202873293C2F76616C75A2
:108B5000653E3C2F72656C6174696F6E3E0A202021
:108B600020202020202020203C72656C6174696FD9
:108B70006E3E3C70726F70657274793E323C2F703D
:108B8000726F70657274793E3C76616C75653E4DAE
:108B9000696E7574657320286D293C2F76616C753C
:108BA000653E3C2F72656C6174696F6E3E0A2020D1
:108BB0002020202020203C2F6D61703E0A202020A4
:108BC0002020203C2F696E743E0A20202020202087
:108BD0003C67726F7570207265706C69636174694F
:108BE0006F6E3D2736273E0A20202020202020209F
:108BF0003C6E616D653E436F6E73756D6572733C5F
:108C00002F6E616D653E0A20202020202020203C10
:108C10007265706E616D653E433C2F7265706E616A
:108C20006D653E0A20202020202020203C73747295
:108C3000696E672073697A653D273332273E3C6E43
:108C4000616D653E4576656E74204E616D653C2FA5
:108C50006E616D653E3C2F737472696E673E0A20CB
:108C6000202020202020203C6576656E7469643EBB
:108C70000A202020202020202020203C6E616D65CD
:108C80003E4576656E743C2F6E616D653E0A202010
:108C900020202020202020203C64657363726970AE
:108CA00074696F6E3E5768656E20746869732065DD
:108CB00076656E7420697320636F6E73756D65647D
:108CC0002E2E2E3C2F6465736372697074696F6E0B
:108CD0003E0A20202020202020203C2F6576656E33
:108CE0007469643E0A20202020202020203C696EE8
:108CF000742073697A653D2731273E0A20202020A1
:108D00002020202020203C6E616D653E4163746907
:108D10006F6E3C2F6E616D653E0A20202020202062
:108D2000202020203C6465736372697074696F6EE3
:108D30003E2E2E2E746865204F75747075742073E6
:108D4000746174652C20696620492F4F2069732057
:108D500073657420746F206F75747075742C207730
:108D6000696C6C2062653A3C2F646573637269704C
:108D700074696F6E3E0A20202020202020202020B1
:108D80003C64656661756C743E303C2F6465666159
:108D9000756C743E0A202020202020202020203CBA
:108DA0006D61703E0A2020202020202020202020DD
:108DB000203C72656C6174696F6E3E3C70726F70BE
:108DC000657274793E303C2F70726F706572747981
:108DD0003E3C76616C75653E556E6368616E676595
:108DE000643C2F76616C75653E3C2F72656C6174D6
:108DF000696F6E3E0A202020202020202020202085
:108E0000203C72656C6174696F6E3E3C70726F706D
:108E1000657274793E333C2F70726F70657274792D
:108E20003E3C76616C75653E4F6E3C2F76616C758D
:108E3000653E3C2F72656C6174696F6E3E0A20203E
:108E4000202020202020202020203C72656C61748E
:108E5000696F6E3E3C70726F70657274793E323C21
:108E60002F70726F70657274793E3C76616C7565B7
:108E70003E4F66663C2F76616C75653E3C2F726591
:108E80006C6174696F6E3E0A202020202020202013
:108E9000202020203C72656C6174696F6E3E3C70CE
:108EA000726F70657274793E343C2F70726F7065AA
:108EB0007274793E3C76616C75653E546F67676C81
:108EC00065643C2F76616C75653E3C2F72656C6104
:108ED00074696F6E3E0A2020202020202020202050
:108EE0003C2F6D61703E0A20202020202020203C55
:108EF0002F696E743E0A2020202020203C2F6772AC
:108F00006F75703E0A2020202020203C67726F750C
:108F100070207265706C69636174696F6E3D27368D
:108F2000273E0A20202020202020203C6E616D65F5
:108F30003E50726F6475636572733C2F6E616D6530
:108F40003E0A20202020202020203C7265706E6187
:108F50006D653E503C2F7265706E616D653E0A20F6
:108F6000202020202020203C737472696E672073BB
:108F7000697A653D273332273E3C6E616D653E451B
:108F800076656E74204E616D653C2F6E616D653E39
:108F90003C2F737472696E673E0A202020202020C7
:108FA00020203C696E742073697A653D2731273E25
:108FB0000A202020202020202020203C6E616D658A
:108FC0003E416374696F6E3C2F6E616D653E0A2091
:108FD0002020202020202020203C646573637269BB
:108FE0007074696F6E3E4F6E2074686973206163A0
:108FF00074696F6E2E2E2E3C2F64657363726970D8
:1090000074696F6E3E0A202020202020202020201E
:109010003C64656661756C743E303C2F64656661C6
:10902000756C743E0A202020202020202020203C27
:109030006D61703E0A20202020202020202020204A
:10904000203C72656C6174696F6E3E3C70726F702B
:10905000657274793E303C2F70726F7065727479EE
:109060003E3C76616C75653E4E6F6E6520286E6F76
:10907000206576656E742070726F6475636564290F
:109080003C2F76616C75653E3C2F72656C6174692E
:109090006F6E3E0A2020202020202020202020202B
:1090A0003C72656C6174696F6E3E3C70726F706586
:1090B0007274793E363C2F70726F70657274793EAF
:1090C0003C76616C75653E4F7574707574206F6E7B
:1090D000206576656E7420636F6E73756D65643C94
:1090E0002F76616C75653E3C2F72656C6174696F9B
:1090F0006E3E0A2020202020202020202020203CFE
:1091000072656C6174696F6E3E3C70726F706572EF
:1091100074793E353C2F70726F70657274793E3C85
:1091200076616C75653E4F7574707574206F6666F8
:10913000206576656E7420636F6E73756D65643C33
:109140002F76616C75653E3C2F72656C6174696F3A
:109150006E3E0A2020202020202020202020203C9D
:1091600072656C6174696F6E3E3C70726F7065728F
:1091700074793E33363C2F70726F70657274793E2D
:109180003C76616C75653E4F757470757420746FB4
:1091900067676C65206576656E7420636F6E7375A6
:1091A0006D65643C2F76616C75653E3C2F72656C15
:1091B0006174696F6E3E0A2020202020202020202C
:1091C0002020203C72656C6174696F6E3E3C707249
:1091D0006F70657274793E32383C2F70726F7065B3
:1091E0007274793E3C76616C75653E4F757470752E
:1091F00074206F6E206576656E7420636F6E737574
:109200006D656420666F7220636173636164653CA1
:109210002F76616C75653E3C2F72656C6174696F69
:109220006E3E0A2020202020202020202020203CCC
:1092300072656C6174696F6E3E3C70726F706572BE
:1092400074793E32373C2F70726F70657274793E5C
:109250003C76616C75653E4F7574707574206F66F1
:1092600066206576656E7420636F6E73756D6564D8
:1092700020666F7220636173636164653C2F766161
:109280006C75653E3C2F72656C6174696F6E3E0A49
:109290002020202020202020202020203C72656CCF
:1092A0006174696F6E3E3C70726F70657274793E66
:1092B00033353C2F70726F70657274793E3C766105
:1092C0006C75653E4F757470757420746F67676C4C
:1092D00065206576656E7420636F6E73756D656469
:1092E00020666F7220636173636164653C2F7661F1
:1092F0006C75653E3C2F72656C6174696F6E3E0AD9
:109300002020202020202020202020203C72656C5E
:109310006174696F6E3E3C70726F70657274793EF5
:1093200032363C2F70726F70657274793E3C766194
:109330006C75653E4F7574707574206368616E67F7
:109340006520746F206F6E3C2F76616C75653E3CB6
:109350002F72656C6174696F6E3E0A202020202098
:10936000202020202020203C72656C6174696F6E83
:109370003E3C70726F70657274793E32353C2F706E
:10938000726F70657274793E3C76616C75653E4FA4
:109390007574707574206368616E676520746F20E2
:1093A0006F66663C2F76616C75653E3C2F72656C0E
:1093B0006174696F6E3E0A2020202020202020202A
:1093C0002020203C72656C6174696F6E3E3C707247
:1093D0006F70657274793E383C2F70726F70657271
:1093E00074793E3C76616C75653E496E707574208B
:1093F0006F6E2028696620492F4F20656E61626C70
:10940000656420617320696E707574293C2F7661E4
:109410006C75653E3C2F72656C6174696F6E3E0AB7
:109420002020202020202020202020203C72656C3D
:109430006174696F6E3E3C70726F70657274793ED4
:10944000373C2F70726F70657274793E3C76616C38
:1094500075653E496E707574206F66662028696672
:1094600020492F4F20656E61626C65642061732016
:10947000696E707574293C2F76616C75653E3C2F62
:1094800072656C6174696F6E3E0A20202020202076
:109490002020202020203C72656C6174696F6E3E34
:1094A0003C70726F70657274793E31393C2F707206
:1094B0006F70657274793E3C76616C75653E53657C
:1094C00072766F206174206F666620656E64202856
:1094D000696620492F4F20656E61626C656420616A
:1094E0007320736572766F293C2F76616C75653ECB
:1094F0003C2F72656C6174696F6E3E0A20202020DB
:1095000020202020202020203C72656C6174696F2F
:109510006E3E3C70726F70657274793E32303C2FD3
:1095200070726F70657274793E3C76616C75653EE1
:10953000536572766F206C6561766573206F666621
:1095400020656E642028696620492F4F20656E6172
:10955000626C656420617320736572766F293C2F9D
:1095600076616C75653E3C2F72656C6174696F6ED7
:109570003E0A2020202020202020202020203C7275
:10958000656C6174696F6E3E3C70726F7065727469
:10959000793E32313C2F70726F70657274793E3C47
:1095A00076616C75653E536572766F206174206FCD
:1095B0006E20656E642028696620492F4F20656EF5
:1095C00061626C656420617320736572766F293CFB
:1095D0002F76616C75653E3C2F72656C6174696FA6
:1095E0006E3E0A2020202020202020202020203C09
:1095F00072656C6174696F6E3E3C70726F706572FB
:1096000074793E32323C2F70726F70657274793E9D
:109610003C76616C75653E536572766F206C656152
:10962000766573206F6E20656E6420286966204918
:109630002F4F20656E61626C6564206173207365D5
:1096400072766F293C2F76616C75653E3C2F726592
:109650006C6174696F6E3E0A20202020202020203B
:10966000202020203C72656C6174696F6E3E3C70F6
:10967000726F70657274793E32333C2F70726F7006
:10968000657274793E3C76616C75653E53657276A1
:109690006F206174206D69642D706F696E7420692C
:1096A0006E206F666620646972656374696F6E20F0
:1096B00028696620492F4F20656E61626C656420C1
:1096C000617320736572766F293C2F76616C7565C6
:1096D0003E3C2F72656C6174696F6E3E0A202020DB
:1096E0002020202020202020203C72656C6174699D
:1096F0006F6E3E3C70726F70657274793E32343CAE
:109700002F70726F70657274793E3C76616C75650E
:109710003E536572766F206174206D69642D706FA1
:10972000696E7420696E206F6E206469726563745F
:10973000696F6E2028696620492F4F20656E61622F
:109740006C656420617320736572766F293C2F7697
:10975000616C75653E3C2F72656C6174696F6E3E1D
:109760000A202020202020202020203C2F6D617006
:109770003E0A20202020202020203C2F696E743EAD
:109780000A20202020202020203C6576656E746908
:10979000643E0A202020202020202020203C6E61D2
:1097A0006D653E4576656E743C2F6E616D653E0A53
:1097B000202020202020202020203C64657363721C
:1097C000697074696F6E3E2E2E2E74686973206501
:1097D00076656E742077696C6C2062652070726F9C
:1097E00064756365643C2F64657363726970746942
:1097F0006F6E3E0A20202020202020203C2F6576FE
:10980000656E7469643E0A2020202020203C2F676A
:10981000726F75703E0A202020203C2F67726F7592
:10982000703E0A20203C2F7365676D656E743E0A9A
:109830000A20203C7365676D656E74206F726967DE
:10984000696E3D2734333739272073706163653D76
:1098500027323533273E0A202020203C6E616D657B
:109860003E42616E6B2042203C2F6E616D653E0A68
:10987000202020203C6465736372697074696F6E88
:109880003E53657420492F4F2066756E6374696F6F
:109890006E616C6974793C2F64657363726970746E
:1098A000696F6E3E0A202020203C696E7420736927
:1098B0007A653D2731273E0A2020202020203C6E5B
:1098C000616D653E42616E6B20547970653C2F6E10
:1098D000616D653E0A2020202020203C6465666181
:1098E000756C743E303C2F64656661756C743E0A1D
:1098F0002020202020203C6D61703E0A2020202066
:10990000202020203C72656C6174696F6E3E3C7053
:10991000726F70657274793E303C2F70726F706533
:109920007274793E3C76616C75653E496E707574F3
:109930002F4F75747075743C2F76616C75653E3C65
:109940002F72656C6174696F6E3E0A2020202020A2
:109950002020203C72656C6174696F6E3E3C7072B1
:109960006F70657274793E333C2F70726F706572E0
:1099700074793E3C76616C75653E536572766F20F6
:10998000736574757020287573696E6720427574ED
:10999000746F6E4C4544207465737420626F6172FD
:1099A00064293C2F76616C75653E3C2F72656C6155
:1099B00074696F6E3E0A2020202020203C2F6D61AC
:1099C000703E0A202020203C2F696E743E0A202021
:1099D00020203C67726F7570207265706C696361DE
:1099E00074696F6E3D2738273E0A202020202020F2
:1099F0003C6E616D653E4368616E6E656C2073659B
:109A00007475703C2F6E616D653E0A202020202009
:109A1000203C7265706E616D653E423C2F726570D0
:109A20006E616D653E0A2020202020203C737472F8
:109A3000696E672073697A653D273332273E3C6E35
:109A4000616D653E4465736372697074696F6E3CE5
:109A50002F6E616D653E3C2F737472696E673E0AAE
:109A60002020202020203C696E742073697A653D97
:109A70002731273E0A20202020202020203C6E6114
:109A80006D653E46756E6374696F6E3C2F6E616DD9
:109A9000653E0A20202020202020203C646566614D
:109AA000756C743E313C2F64656661756C743E0A5A
:109AB00020202020202020203C6D61703E0A2020A4
:109AC00020202020202020203C72656C6174696F6A
:109AD0006E3E3C70726F70657274793E303C2F70D0
:109AE000726F70657274793E3C76616C75653E4E3E
:109AF0006F6E653C2F76616C75653E3C2F72656CB0
:109B00006174696F6E3E0A202020202020202020D2
:109B1000203C72656C6174696F6E3E3C70726F7050
:109B2000657274793E313C2F70726F706572747912
:109B30003E3C76616C75653E496E7075743C2F765F
:109B4000616C75653E3C2F72656C6174696F6E3E29
:109B50000A202020202020202020203C72656C61DB
:109B600074696F6E3E3C70726F70657274793E32CC
:109B70003C2F70726F70657274793E3C76616C75C3
:109B8000653E4F75747075743C2F76616C75653EDB
:109B90003C2F72656C6174696F6E3E0A2020202034
:109BA0002020202020203C72656C6174696F6E3E1D
:109BB0003C70726F70657274793E333C2F70726FB7
:109BC00070657274793E3C76616C75653E42757461
:109BD000746F6E2F4C4544202D204F757470757432
:109BE00020776974682073616D706C656420696E9C
:109BF0007075743C2F76616C75653E3C2F72656C98
:109C00006174696F6E3E0A202020202020202020D1
:109C1000203C72656C6174696F6E3E3C70726F704F
:109C2000657274793E343C2F70726F70657274790E
:109C30003E3C76616C75653E4F757470757420732B
:109C4000696E676C652070756C73653C2F76616C0E
:109C500075653E3C2F72656C6174696F6E3E0A20BB
:109C60002020202020202020203C72656C61746917
:109C70006F6E3E3C70726F70657274793E353C2F2A
:109C800070726F70657274793E3C76616C75653E7A
:109C90004F75747075742073696E676C652070758C
:109CA0006C73652C20726574726967676572616296
:109CB0006C653C2F76616C75653E3C2F72656C61FE
:109CC00074696F6E3E0A2020202020202020202052
:109CD0003C72656C6174696F6E3E3C70726F70654A
:109CE0007274793E363C2F70726F70657274793E73
:109CF0003C76616C75653E4F757470757420726545
:109D000070656174696E672070756C7365733C2F44
:109D100076616C75653E3C2F72656C6174696F6E1F
:109D20003E0A20202020202020203C2F6D61703E04
:109D30000A2020202020203C2F696E743E0A20201B
:109D4000202020203C696E742073697A653D27319C
:109D5000273E0A20202020202020203C6E616D65B7
:109D60003E506F6C61726974793C2F6E616D653E17
:109D70000A20202020202020203C64656661756C2C
:109D8000743E303C2F64656661756C743E0A202019
:109D90002020202020203C6D61703E0A20202020C1
:109DA0002020202020203C72656C6174696F6E3E1B
:109DB0003C70726F70657274793E303C2F70726FB8
:109DC00070657274793E3C76616C75653E4E6F725B
:109DD0006D616C3C2F76616C75653E3C2F72656CD5
:109DE0006174696F6E3E0A202020202020202020F0
:109DF000203C72656C6174696F6E3E3C70726F706E
:109E0000657274793E313C2F70726F70657274792F
:109E10003E3C76616C75653E496E7665727465642C
:109E20003C2F76616C75653E3C2F72656C61746980
:109E30006F6E3E0A20202020202020203C2F6D61C4
:109E4000703E0A2020202020203C2F696E743E0A9C
:109E50002020202020203C696E742073697A653DA3
:109E60002732273E0A20202020202020203C6E611F
:109E70006D653E4F7574707574204F6E205065721D
:109E8000696F643C2F6E616D653E0A2020202020A2
:109E9000203C2F696E743E0A2020202020203C693F
:109EA0006E742073697A653D2732273E0A20202090
:109EB00020202020203C6E616D653E4F75747075CA
:109EC00074204F666620506572696F643C2F6E6126
:109ED0006D653E0A2020202020203C2F696E743EB4
:109EE0000A2020202020203C696E742073697A6546
:109EF0003D2731273E0A20202020202020203C6EB4
:109F0000616D653E556E6974733C2F6E616D653E83
:109F10000A20202020202020203C64656661756C8A
:109F2000743E303C2F64656661756C743E0A202077
:109F30002020202020203C6D61703E0A202020201F
:109F40002020202020203C72656C6174696F6E3E79
:109F50003C70726F70657274793E303C2F70726F16
:109F600070657274793E3C76616C75653E4D696CC6
:109F70006C697365636F6E647320286D73293C2F61
:109F800076616C75653E3C2F72656C6174696F6EAD
:109F90003E0A202020202020202020203C72656CBA
:109FA0006174696F6E3E3C70726F70657274793E59
:109FB000313C2F70726F70657274793E3C76616CC3
:109FC00075653E5365636F6E6473202873293C2F5B
:109FD00076616C75653E3C2F72656C6174696F6E5D
:109FE0003E0A202020202020202020203C72656C6A
:109FF0006174696F6E3E3C70726F70657274793E09
:10A00000323C2F70726F70657274793E3C76616C71
:10A0100075653E4D696E75746573202873293C2FF4
:10A0200076616C75653E3C2F72656C6174696F6E0C
:10A030003E0A20202020202020203C2F6D61703EF1
:10A040000A2020202020203C2F696E743E0A202008
:10A05000202020203C67726F7570207265706C69DB
:10A06000636174696F6E3D2736273E0A20202020E9
:10A07000202020203C6E616D653E436F6E73756DD0
:10A080006572733C2F6E616D653E0A202020202092
:10A090002020203C7265706E616D653E433C2F72DE
:10A0A00065706E616D653E0A2020202020202020F2
:10A0B0003C737472696E672073697A653D27333229
:10A0C000273E3C6E616D653E4576656E74204E613F
:10A0D0006D653C2F6E616D653E3C2F737472696EC9
:10A0E000673E0A20202020202020203C6576656ED7
:10A0F0007469643E0A202020202020202020203C5B
:10A100006E616D653E4576656E743C2F6E616D6562
:10A110003E0A202020202020202020203C6465733F
:10A120006372697074696F6E3E5768656E207468FB
:10A130006973206576656E7420697320636F6E7332
:10A14000756D65642E2E2E3C2F6465736372697085
:10A1500074696F6E3E0A20202020202020203C2F92
:10A160006576656E7469643E0A20202020202020D8
:10A17000203C696E742073697A653D2731273E0A59
:10A18000202020202020202020203C6E616D653E74
:10A19000416374696F6E3C2F6E616D653E0A2020CD
:10A1A00020202020202020203C6465736372697089
:10A1B00074696F6E3E2E2E2E74686520746865205B
:10A1C0004F75747075742073746174652C206966A2
:10A1D00020492F4F2069732073657420746F206F9E
:10A1E00075747075742C2077696C6C2062653A3CCC
:10A1F0002F6465736372697074696F6E3E0A202004
:10A2000020202020202020203C64656661756C742D
:10A210003E303C2F64656661756C743E0A202020D8
:10A22000202020202020203C6D61703E0A2020202C
:10A230002020202020202020203C72656C61746941
:10A240006F6E3E3C70726F70657274793E303C2F59
:10A2500070726F70657274793E3C76616C75653EA4
:10A26000556E6368616E6765643C2F76616C7565D9
:10A270003E3C2F72656C6174696F6E3E0A2020202F
:10A280002020202020202020203C72656C617469F1
:10A290006F6E3E3C70726F70657274793E333C2F06
:10A2A00070726F70657274793E3C76616C75653E54
:10A2B0004F6E3C2F76616C75653E3C2F72656C610C
:10A2C00074696F6E3E0A202020202020202020204C
:10A2D00020203C72656C6174696F6E3E3C70726FD9
:10A2E00070657274793E323C2F70726F7065727453
:10A2F000793E3C76616C75653E4F66663C2F7661B3
:10A300006C75653E3C2F72656C6174696F6E3E0AB8
:10A310002020202020202020202020203C72656C3E
:10A320006174696F6E3E3C70726F70657274793ED5
:10A33000343C2F70726F70657274793E3C76616C3C
:10A3400075653E546F67676C65643C2F76616C750C
:10A35000653E3C2F72656C6174696F6E3E0A202009
:10A3600020202020202020203C2F6D61703E0A20DC
:10A37000202020202020203C2F696E743E0A2020BF
:10A38000202020203C2F67726F75703E0A2020200D
:10A390002020203C67726F7570207265706C696355
:10A3A0006174696F6E3D2736273E0A2020202020E9
:10A3B0002020203C6E616D653E50726F6475636550
:10A3C00072733C2F6E616D653E0A20202020202094
:10A3D00020203C7265706E616D653E503C2F726549
:10A3E000706E616D653E0A20202020202020203CD8
:10A3F000737472696E672073697A653D27333227FB
:10A400003E3C6E616D653E4576656E74204E616DB5
:10A41000653C2F6E616D653E3C2F737472696E678B
:10A420003E0A20202020202020203C696E742073CA
:10A43000697A653D2731273E0A20202020202020F0
:10A440002020203C6E616D653E416374696F6E3CF7
:10A450002F6E616D653E0A202020202020202020C4
:10A46000203C6465736372697074696F6E3E4F6EF1
:10A47000207468697320616374696F6E2E2E2E3CA0
:10A480002F6465736372697074696F6E3E0A202071
:10A4900020202020202020203C64656661756C749B
:10A4A0003E303C2F64656661756C743E0A20202046
:10A4B000202020202020203C6D61703E0A2020209A
:10A4C0002020202020202020203C72656C617469AF
:10A4D0006F6E3E3C70726F70657274793E303C2FC7
:10A4E00070726F70657274793E3C76616C75653E12
:10A4F0004E6F6E6520286E6F206576656E742070D5
:10A50000726F6475636564293C2F76616C75653E76
:10A510003C2F72656C6174696F6E3E0A20202020AA
:10A5200020202020202020203C72656C6174696FFF
:10A530006E3E3C70726F70657274793E363C2F705F
:10A54000726F70657274793E3C76616C75653E4FD2
:10A550007574707574206F6E206576656E742063F7
:10A560006F6E73756D65643C2F76616C75653E3CEE
:10A570002F72656C6174696F6E3E0A202020202066
:10A58000202020202020203C72656C6174696F6E51
:10A590003E3C70726F70657274793E353C2F7072FC
:10A5A0006F70657274793E3C76616C75653E4F756F
:10A5B00074707574206F6666206576656E742063AE
:10A5C0006F6E73756D65643C2F76616C75653E3C8E
:10A5D0002F72656C6174696F6E3E0A202020202006
:10A5E000202020202020203C72656C6174696F6EF1
:10A5F0003E3C70726F70657274793E33363C2F70DA
:10A60000726F70657274793E3C76616C75653E4F11
:10A61000757470757420746F67676C6520657665F6
:10A620006E7420636F6E73756D65643C2F76616C1C
:10A6300075653E3C2F72656C6174696F6E3E0A20D1
:10A6400020202020202020202020203C72656C61CA
:10A6500074696F6E3E3C70726F70657274793E32D1
:10A66000383C2F70726F70657274793E3C76616C05
:10A6700075653E4F7574707574206F6E20657665D4
:10A680006E7420636F6E73756D656420666F7220E3
:10A69000636173636164653C2F76616C75653E3CF4
:10A6A0002F72656C6174696F6E3E0A202020202035
:10A6B000202020202020203C72656C6174696F6E20
:10A6C0003E3C70726F70657274793E32373C2F7009
:10A6D000726F70657274793E3C76616C75653E4F41
:10A6E0007574707574206F6666206576656E74206B
:10A6F000636F6E73756D656420666F72206361733E
:10A70000636164653C2F76616C75653E3C2F7265B4
:10A710006C6174696F6E3E0A20202020202020206A
:10A72000202020203C72656C6174696F6E3E3C7025
:10A73000726F70657274793E33353C2F70726F7032
:10A74000657274793E3C76616C75653E4F757470C8
:10A75000757420746F67676C65206576656E74200C
:10A76000636F6E73756D656420666F7220636173CD
:10A77000636164653C2F76616C75653E3C2F726544
:10A780006C6174696F6E3E0A2020202020202020FA
:10A79000202020203C72656C6174696F6E3E3C70B5
:10A7A000726F70657274793E32363C2F70726F70C2
:10A7B000657274793E3C76616C75653E4F75747058
:10A7C0007574206368616E676520746F206F6E3CDE
:10A7D0002F76616C75653E3C2F72656C6174696F94
:10A7E0006E3E0A2020202020202020202020203CF7
:10A7F00072656C6174696F6E3E3C70726F706572E9
:10A8000074793E32353C2F70726F70657274793E88
:10A810003C76616C75653E4F757470757420636825
:10A82000616E676520746F206F66663C2F76616C81
:10A8300075653E3C2F72656C6174696F6E3E0A20CF
:10A8400020202020202020202020203C72656C61C8
:10A8500074696F6E3E3C70726F70657274793E38C9
:10A860003C2F70726F70657274793E3C76616C75C6
:10A87000653E496E707574206F6E202869662049A8
:10A880002F4F20656E61626C656420617320696E74
:10A89000707574293C2F76616C75653E3C2F72652E
:10A8A0006C6174696F6E3E0A2020202020202020D9
:10A8B000202020203C72656C6174696F6E3E3C7094
:10A8C000726F70657274793E373C2F70726F70656D
:10A8D0007274793E3C76616C75653E496E70757434
:10A8E000206F66662028696620492F4F20656E61BB
:10A8F000626C656420617320696E707574293C2FE9
:10A9000076616C75653E3C2F72656C6174696F6E23
:10A910003E0A202020202020202020203C2F6D6176
:10A92000703E0A20202020202020203C2F696E74B9
:10A930003E0A20202020202020203C6576656E7471
:10A9400069643E0A202020202020202020203C6E08
:10A95000616D653E4576656E743C2F6E616D653E3A
:10A960000A202020202020202020203C64657363C2
:10A9700072697074696F6E3E2E2E2E746869732032
:10A980006576656E742077696C6C206265207072E4
:10A990006F64756365643C2F64657363726970747A
:10A9A000696F6E3E0A20202020202020203C2F6549
:10A9B00076656E7469643E0A2020202020203C2F9A
:10A9C00067726F75703E0A202020203C2F67726FDF
:10A9D00075703E0A20203C2F7365676D656E743E6E
:10A9E0000A0A20203C7365676D656E74206F72697A
:10A9F00067696E3D2738363238272073706163658A
:10AA00003D27323533273E0A202020203C6E616DE1
:10AA1000653E536572766F206F6E2062616E6B20AB
:10AA2000413C2F6E616D653E0A202020203C64650C
:10AA3000736372697074696F6E3E5768656E204209
:10AA4000616E6B2041206973207365747570206698
:10AA50006F7220736572766F20636F6E74726F6CA5
:10AA60002C2074686573652073657474696E6773F0
:10AA700020636F6E74726F6C2074686520736572EA
:10AA8000766F206F7065726174696F6E203C2F6401
:10AA900065736372697074696F6E3E0A20202020AE
:10AAA0003C67726F7570207265706C696361746960
:10AAB0006F6E3D2738273E0A2020202020203C6E44
:10AAC000616D653E536572766F2073657474696E4F
:10AAD00067733C2F6E616D653E0A20202020202088
:10AAE0003C6465736372697074696F6E3E5365741C
:10AAF00020536572766F20706F736974696F6E731F
:10AB00002C2073706565642C206574633C2F64652C
:10AB1000736372697074696F6E3E0A202020202072
:10AB2000203C7265706E616D653E533C2F7265709E
:10AB30006E616D653E0A2020202020203C696E74E5
:10AB40002073697A653D2731273E0A202020202086
:10AB50002020203C6E616D653E4F666620706F73ED
:10AB60006974696F6E3C2F6E616D653E0A2020200E
:10AB700020202020203C6465736372697074696FC3
:10AB80006E3E3020286D696E2C2031206D73292097
:10AB90002D2032353020286D61782C2032206D73C5
:10ABA000293C2F6465736372697074696F6E3E0A25
:10ABB00020202020202020203C6D696E3E303C2F3C
:10ABC0006D696E3E0A20202020202020203C6D61EF
:10ABD000783E3235303C2F6D61783E0A20202020AF
:10ABE000202020203C64656661756C743E313235EE
:10ABF0003C2F64656661756C743E0A20202020201D
:10AC00002020203C68696E74733E0A20202020209A
:10AC100020202020203C736C696465722064697672
:10AC20006973696F6E733D27352720696D6D6564A3
:10AC3000696174653D27796573272F3E0A202020BE
:10AC400020202020203C2F68696E74733E0A20204B
:10AC5000202020203C2F696E743E0A2020202020D6
:10AC6000203C696E742073697A653D2731273E0A5E
:10AC700020202020202020203C6E616D653E4F6EFC
:10AC800020706F736974696F6E3C2F6E616D653EE5
:10AC90000A20202020202020203C646573637269F4
:10ACA0007074696F6E3E3020286D696E696D756DC8
:10ACB0002031206D732070756C736529202D203232
:10ACC000353020286D6178696D756D2032206D7387
:10ACD0002070756C7365293C2F64657363726970AD
:10ACE00074696F6E3E0A20202020202020203C6DB9
:10ACF000696E3E303C2F6D696E3E0A202020202078
:10AD00002020203C6D61783E3235303C2F6D6178DB
:10AD10003E0A20202020202020203C6465666175AA
:10AD20006C743E3132353C2F64656661756C743EDF
:10AD30000A20202020202020203C68696E74733E69
:10AD40000A202020202020202020203C736C6964D1
:10AD50006572206469766973696F6E733D27352764
:10AD600020696D6D6564696174653D277965732738
:10AD70002F3E0A20202020202020203C2F68696EB2
:10AD800074733E0A2020202020203C2F696E743EE0
:10AD90000A2020202020203C696E742073697A6587
:10ADA0003D2731273E0A20202020202020203C6EF5
:10ADB000616D653E4F66662073706565643C2F6EFD
:10ADC000616D653E0A20202020202020203C646503
:10ADD000736372697074696F6E3E53706565642049
:10ADE0006F66206D6F76656D656E7420746F776128
:10ADF000726473206F666620706F736974696F6E1A
:10AE00002C20312028736C6F7765737429202D20D6
:10AE100037202866617374657374293C2F646573E9
:10AE20006372697074696F6E3E0A202020202020B2
:10AE300020203C6D696E3E313C2F6D696E3E0A20CC
:10AE4000202020202020203C6D61783E373C2F6D53
:10AE500061783E0A20202020202020203C64656666
:10AE600061756C743E343C2F64656661756C743E2C
:10AE70000A2020202020203C2F696E743E0A2020CA
:10AE8000202020203C696E742073697A653D27314B
:10AE9000273E0A20202020202020203C6E616D6566
:10AEA0003E4F6E2073706565643C2F6E616D653E2C
:10AEB0000A20202020202020203C646573637269D2
:10AEC0007074696F6E3E5370656564206F66206DA7
:10AED0006F76656D656E7420746F77617264732030
:10AEE0006F6E20706F736974696F6E2C203120282B
:10AEF000736C6F7765737429202D20372028666165
:10AF00007374657374293C2F64657363726970741C
:10AF1000696F6E3E0A20202020202020203C6D6991
:10AF20006E3E313C2F6D696E3E0A2020202020208D
:10AF300020203C6D61783E373C2F6D61783E0A20C1
:10AF4000202020202020203C64656661756C743EC2
:10AF5000343C2F64656661756C743E0A20202020A5
:10AF600020203C2F696E743E0A2020202020203CA7
:10AF7000696E742073697A653D2731273E0A202067
:10AF80002020202020203C6E616D653E537461724C
:10AF900074757020416374696F6E3C2F6E616D65CE
:10AFA0003E0A20202020202020203C64657363720C
:10AFB000697074696F6E3E536572766F2061637459
:10AFC000696F6E20617420737461727475703C2FA8
:10AFD0006465736372697074696F6E3E0A20202025
:10AFE00020202020203C64656661756C743E303CF6
:10AFF0002F64656661756C743E0A20202020202035
:10B0000020203C6D61703E0A20202020202020203E
:10B0100020203C72656C6174696F6E3E3C70726F8B
:10B0200070657274793E303C2F70726F7065727407
:10B03000793E3C76616C75653E4E6F6E653C2F7651
:10B04000616C75653E3C2F72656C6174696F6E3E14
:10B050000A202020202020202020203C72656C61C6
:10B0600074696F6E3E3C70726F70657274793E31B8
:10B070003C2F70726F70657274793E3C76616C75AE
:10B08000653E4D6F766520746F206C61737420701F
:10B090006F736974696F6E3C2F76616C75653E3CA9
:10B0A0002F72656C6174696F6E3E0A20202020202B
:10B0B00020202020203C72656C6174696F6E3E3CDC
:10B0C00070726F70657274793E323C2F70726F705F
:10B0D000657274793E3C76616C75653E4D6F766540
:10B0E00020746F206F666620706F736974696F6E6D
:10B0F0003C2F76616C75653E3C2F72656C6174699E
:10B100006F6E3E0A202020202020202020203C722C
:10B11000656C6174696F6E3E3C70726F70657274BD
:10B12000793E333C2F70726F70657274793E3C7655
:10B13000616C75653E4D6F766520746F206F6E2073
:10B14000706F736974696F6E3C2F76616C75653EC4
:10B150003C2F72656C6174696F6E3E0A202020205E
:10B16000202020203C2F6D61703E0A2020202020CE
:10B17000203C2F696E743E0A2020202020203C694C
:10B180006E742073697A653D2731273E0A2020209E
:10B1900020202020203C6E616D653E4D756C7469E9
:10B1A000706C6520536572766F20436F6E74726F9A
:10B1B0006C3C2F6E616D653E0A20202020202020EF
:10B1C000203C6465736372697074696F6E3E4D757F
:10B1D0006C7469706C6520536572766F732063615F
:10B1E0006E206D6F766520746F6765746865722078
:10B1F0006F722073657175656E7469616C6C79200E
:10B20000287265636F6D6D656E6465642C20746F64
:10B210002072656475636520706F776572292E3CB6
:10B220002F6465736372697074696F6E3E0A2020C3
:10B230002020202020203C64656661756C743E31BE
:10B240003C2F64656661756C743E0A2020202020C6
:10B250002020203C6D61703E0A20202020202020EC
:10B260002020203C72656C6174696F6E3E3C707288
:10B270006F70657274793E303C2F70726F706572BA
:10B2800074793E3C76616C75653E4D6F76652074D1
:10B290006F6765746865723C2F76616C75653E3CBE
:10B2A0002F72656C6174696F6E3E0A202020202029
:10B2B00020202020203C72656C6174696F6E3E3CDA
:10B2C00070726F70657274793E313C2F70726F705E
:10B2D000657274793E3C76616C75653E4D6F76653E
:10B2E0002073657175656E7469616C6C793C2F763D
:10B2F000616C75653E3C2F72656C6174696F6E3E62
:10B300000A20202020202020203C2F6D61703E0A42
:10B310002020202020203C2F696E743E0A2020200F
:10B320002020203C696E742073697A653D2731279F
:10B330003E0A20202020202020203C6E616D653EAA
:10B34000536572766F20706F7765722D646F776EBC
:10B350003C2F6E616D653E0A202020202020202099
:10B360003C6465736372697074696F6E3E416674A4
:10B370006572206D6F76696E6720736F6D652073DF
:10B380006572766F732063616E20626520706F77DF
:10B390006572656420646F776E20287265636F6DD7
:10B3A0006D656E64656420746F2072656475636595
:10B3B00020706F776572292E0A0A20446F6573200A
:10B3C0006E6F74206170706C7920746F206469678F
:10B3D0006974616C20736572766F732E3C2F64659F
:10B3E000736372697074696F6E3E0A20202020209A
:10B3F0002020203C64656661756C743E313C2F648E
:10B40000656661756C743E0A202020202020202073
:10B410003C6D61703E0A202020202020202020202A
:10B420003C72656C6174696F6E3E3C70726F7065E2
:10B430007274793E313C2F70726F70657274793E10
:10B440003C76616C75653E536572766F7320706FE4
:10B450007765722D646F776E20287265636F6D6DEE
:10B46000656E646564293C2F76616C75653E3C2F82
:10B4700072656C6174696F6E3E0A20202020202066
:10B48000202020203C72656C6174696F6E3E3C70B8
:10B49000726F70657274793E303C2F70726F706598
:10B4A0007274793E3C76616C75653E536572766F59
:10B4B0002072656D61696E206163746976653C2FE9
:10B4C00076616C75653E3C2F72656C6174696F6E58
:10B4D0003E0A20202020202020203C2F6D61703E3D
:10B4E0000A2020202020203C2F696E743E0A202054
:10B4F00020203C2F67726F75703E0A20203C2F730E
:10B5000065676D656E743E0A0A20203C7365676D41
:10B51000656E74206F726967696E3D2738363834FE
:10B52000272073706163653D27323533273E0A203B
:10B530002020203C6E616D653E427574746F6E73A1
:10B540003C2F6E616D653E0A202020203C67726FA3
:10B550007570207265706C69636174696F6E3D27E8
:10B5600032273E0A2020202020203C6E616D653E5F
:10B5700043686F6F7365206576656E7473207072B3
:10B580006F647563656420627920426C75652F472E
:10B590006F6C6420627574746F6E733C2F6E616D96
:10B5A000653E0A2020202020203C7265706E616D6F
:10B5B000653E423C2F7265706E616D653E0A2020CB
:10B5C000202020203C737472696E672073697A654D
:10B5D0003D273332273E3C6E616D653E4275747483
:10B5E0006F6E204E616D653C2F6E616D653E3C2F28
:10B5F000737472696E673E0A2020202020203C6709
:10B60000726F7570207265706C69636174696F6EBA
:10B610003D2732273E0A20202020202020203C6E7B
:10B62000616D653E427574746F6E204576656E740B
:10B63000733C2F6E616D653E0A2020202020202063
:10B64000203C7265706E616D653E503C2F72657076
:10B650006E616D653E0A20202020202020203C7352
:10B660007472696E672073697A653D273332273EAD
:10B670003C6E616D653E4576656E74204E616D650C
:10B680003C2F6E616D653E3C2F737472696E673E30
:10B690000A20202020202020203C696E742073691D
:10B6A0007A653D2731273E0A2020202020202020B7
:10B6B00020203C6E616D653E416374696F6E3C2F66
:10B6C0006E616D653E0A2020202020202020202051
:10B6D0003C6465736372697074696F6E3E4F6E206F
:10B6E0007468697320616374696F6E2E2E2E3C2F0F
:10B6F0006465736372697074696F6E3E0A202020FE
:10B70000202020202020203C64656661756C743EFA
:10B71000303C2F64656661756C743E0A20202020E1
:10B720002020202020203C6D61703E0A2020202017
:10B7300020202020202020203C72656C6174696FDD
:10B740006E3E3C70726F70657274793E303C2F7043
:10B75000726F70657274793E3C76616C75653E4EB1
:10B760006F6E6520286E6F206576656E742070722E
:10B770006F6475636564293C2F76616C75653E3C2A
:10B780002F72656C6174696F6E3E0A202020202044
:10B79000202020202020203C72656C6174696F6E2F
:10B7A0003E3C70726F70657274793E393C2F7072D6
:10B7B0006F70657274793E3C76616C75653E42755A
:10B7C00074746F6E20646F776E3C2F76616C756554
:10B7D0003E3C2F72656C6174696F6E3E0A202020BA
:10B7E0002020202020202020203C72656C6174697C
:10B7F0006F6E3E3C70726F70657274793E31303C92
:10B800002F70726F70657274793E3C76616C7565ED
:10B810003E427574746F6E2075703C2F76616C7546
:10B82000653E3C2F72656C6174696F6E3E0A202024
:10B8300020202020202020203C2F6D61703E0A20F7
:10B84000202020202020203C2F696E743E0A2020DA
:10B850002020202020203C6576656E7469643E0AB5
:10B86000202020202020202020203C6E616D653E7D
:10B870004576656E743C2F6E616D653E0A20202012
:10B88000202020202020203C64657363726970743E
:10B89000696F6E3E2E2E2E74686973206576656E14
:10B8A000742077696C6C2062652070726F647563B8
:10B8B00065643C2F6465736372697074696F6E3E72
:10B8C0000A20202020202020203C2F6576656E74E1
:10B8D00069643E0A2020202020203C2F67726F756B
:10B8E000703E0A202020203C2F67726F75703E0A40
:10B8F00020203C2F7365676D656E743E0A0A202018
:10B900003C7365676D656E74206F726967696E3D23
:10B910002738393132272073706163653D2732350E
:10B9200033273E0A202020203C6E616D653E4C4549
:10B930004420436F6E66696775726174696F6E3C0F
:10B940002F6E616D653E0A202020203C67726F7566
:10B9500070207265706C69636174696F6E3D273227
:10B96000273E0A2020202020203C6E616D653E533A
:10B97000657474696E67733C2F6E616D653E0A2055
:10B9800020202020203C6465736372697074696FA5
:10B990006E3E436F6E666967757265204C454473F1
:10B9A00020746F20726573706F6E6420746F2065F1
:10B9B00076656E7473206F7220696E64696361745A
:10B9C00065206E6574776F726B2073746174757324
:10B9D0000A2020202020203C2F6465736372697048
:10B9E00074696F6E3E0A2020202020203C72657012
:10B9F0006E616D653E4C45443C2F7265706E616DA5
:10BA0000653E0A2020202020203C737472696E67F6
:10BA10002073697A653D273332273E3C6E616D6540
:10BA20003E4C4544204E616D653C2F6E616D653E18
:10BA30003C2F737472696E673E0A202020202020FC
:10BA40003C67726F7570207265706C6963617469B0
:10BA50006F6E3D2734273E0A202020202020202002
:10BA60003C6E616D653E4C4544204576656E747351
:10BA70003C2F6E616D653E0A202020202020202072
:10BA80003C7265706E616D653E433C2F7265706EF1
:10BA9000616D653E0A20202020202020203C737408
:10BAA00072696E672073697A653D273332273E3CA1
:10BAB0006E616D653E4576656E74204E616D653CC8
:10BAC0002F6E616D653E3C2F737472696E673E0A1E
:10BAD00020202020202020203C6576656E7469643B
:10BAE0003E0A202020202020202020203C6E616D56
:10BAF000653E4576656E743C2F6E616D653E0A202D
:10BB00002020202020202020203C6465736372695F
:10BB10007074696F6E3E53706563696679207468EE
:10BB200065206576656E7420746861742028776876
:10BB3000656E20636F6E73756D6564292077696C1F
:10BB40006C20636175736520746865204C454420E2
:10BB5000616374696F6E3C2F64657363726970749E
:10BB6000696F6E3E0A20202020202020203C2F6577
:10BB700076656E7469643E0A2020202020202020F3
:10BB80003C696E742073697A653D2731273E0A202F
:10BB90002020202020202020203C6E616D653E4129
:10BBA0006374696F6E3C2F6E616D653E0A202020C4
:10BBB000202020202020203C64657363726970740B
:10BBC000696F6E3E53656C65637420746865204CC4
:10BBD000454420616374696F6E20746F2062652034
:10BBE000706572666F726D656420696E2072657330
:10BBF000706F6E736520746F206120636F6E737554
:10BC00006D6564206576656E742C0A206F722074F1
:10BC10006865206E6574776F726B206F72206D6F30
:10BC200064756C652073746174757320746F206221
:10BC30006520646973706C61796564206279207431
:10BC40006865204C45443A3C2F64657363726970A3
:10BC500074696F6E3E0A20202020202020202020A2
:10BC60003C64656661756C743E303C2F646566614A
:10BC7000756C743E0A202020202020202020203CAB
:10BC80006D61703E0A2020202020202020202020CE
:10BC9000203C72656C6174696F6E3E3C70726F70AF
:10BCA000657274793E303C2F70726F706572747972
:10BCB0003E3C76616C75653E4E6F20416374696FE2
:10BCC0006E3C2F76616C75653E3C2F72656C6174BD
:10BCD000696F6E3E0A202020202020202020202076
:10BCE000203C72656C6174696F6E3E3C70726F705F
:10BCF000657274793E31313C2F70726F7065727469
:10BD0000793E3C76616C75653E5475726E204C458B
:10BD100044206F6E206966206576656E7420636FBF
:10BD20006E73756D65643C2F76616C75653E3C2F56
:10BD300072656C6174696F6E3E0A2020202020209D
:10BD40002020202020203C72656C6174696F6E3E5B
:10BD50003C70726F70657274793E31323C2F707234
:10BD60006F70657274793E3C76616C75653E547592
:10BD7000726E204C4544206F6666206966206576A9
:10BD8000656E7420636F6E73756D65643C2F7661AC
:10BD90006C75653E3C2F72656C6174696F6E3E0A0E
:10BDA0002020202020202020202020203C72656C94
:10BDB0006174696F6E3E3C70726F70657274793E2B
:10BDC00031333C2F70726F70657274793E3C7661CE
:10BDD0006C75653E546F67676C65204C45442069FF
:10BDE00066206576656E7420636F6E73756D65642D
:10BDF0003C2F76616C75653E3C2F72656C61746991
:10BE00006F6E3E0A2020202020202020202020208D
:10BE10003C72656C6174696F6E3E3C70726F7065E8
:10BE20007274793E31353C2F70726F70657274791F
:10BE30003E3C76616C75653E53686F77204C43439A
:10BE4000207061636B657420726563657074696FDF
:10BE50006E3C2F76616C75653E3C2F72656C61742B
:10BE6000696F6E3E0A2020202020202020202020E4
:10BE7000203C72656C6174696F6E3E3C70726F70CD
:10BE8000657274793E31363C2F70726F70657274D2
:10BE9000793E3C76616C75653E53686F77204C4304
:10BEA00043207061636B6574207472616E736D6999
:10BEB0007373696F6E3C2F76616C75653E3C2F72B3
:10BEC000656C6174696F6E3E0A202020202020205E
:10BED00020202020203C72656C6174696F6E3E3CAE
:10BEE00070726F70657274793E31373C2F70726F6B
:10BEF00070657274793E3C76616C75653E53686F0F
:10BF00007720636F6D62696E6564204C43432072D5
:10BF10006563657074696F6E2F7472616E736D699D
:10BF20007373696F6E3C2F76616C75653E3C2F7242
:10BF3000656C6174696F6E3E0A20202020202020ED
:10BF400020202020203C72656C6174696F6E3E3C3D
:10BF500070726F70657274793E33373C2F70726FF8
:10BF600070657274793E3C76616C75653E53686F9E
:10BF700077207061636B6574732068616E646C65B3
:10BF8000642062792074686973206E6F64653C2F49
:10BF900076616C75653E3C2F72656C6174696F6E7D
:10BFA0003E0A2020202020202020202020203C721B
:10BFB000656C6174696F6E3E3C70726F706572740F
:10BFC000793E31383C2F70726F70657274793E3CE7
:10BFD00076616C75653E496E64696361746520665F
:10BFE00061756C7420696E20746865206D6F64756E
:10BFF0006C653C2F76616C75653E3C2F72656C619B
:10C0000074696F6E3E0A20202020202020202020EE
:10C010003C2F6D61703E0A20202020202020203CF3
:10C020002F696E743E0A2020202020203C2F67724A
:10C030006F75703E0A2020202020203C696E7420FD
:10C0400073697A653D2731273E0A20202020202071
:10C0500020203C6E616D653E4C45442050617474F7
:10C0600065726E3C2F6E616D653E0A202020202097
:10C070002020203C6465736372697074696F6E3E42
:10C0800053656C65637420746865204C4544206278
:10C090006C696E6B207061747465726E2C207265B1
:10C0A00070656174696E6720617070782E206576A6
:10C0B000657279203220733C2F64657363726970F6
:10C0C00074696F6E3E0A20202020202020203C64CE
:10C0D000656661756C743E313C2F64656661756C94
:10C0E000743E0A20202020202020203C6D61703EDC
:10C0F0000A202020202020202020203C72656C6116
:10C1000074696F6E3E3C70726F70657274793E3107
:10C110003C2F70726F70657274793E3C76616C75FD
:10C12000653E4C4544206F6E3C2F76616C75653ED4
:10C130003C2F72656C6174696F6E3E0A202020206E
:10C140002020202020203C72656C6174696F6E3E57
:10C150003C70726F70657274793E323C2F70726FF2
:10C1600070657274793E3C76616C75653E4C4544F1
:10C17000206F66663C2F76616C75653E3C2F72655C
:10C180006C6174696F6E3E0A2020202020202020E0
:10C1900020203C72656C6174696F6E3E3C70726FFA
:10C1A00070657274793E333C2F70726F7065727473
:10C1B000793E3C76616C75653E4F666620776974A2
:10C1C000682053686F727420283634206D732920DC
:10C1D000626C696E6B206F6E3C2F76616C75653E8C
:10C1E0003C2F72656C6174696F6E3E0A20202020BE
:10C1F0002020202020203C72656C6174696F6E3EA7
:10C200003C70726F70657274793E343C2F70726F3F
:10C2100070657274793E3C76616C75653E4F6666FA
:10C220002077697468204C6F6E6720283531322082
:10C230006D732920626C696E6B206F6E3C2F766186
:10C240006C75653E3C2F72656C6174696F6E3E0A59
:10C25000202020202020202020203C72656C61744A
:10C26000696F6E3E3C70726F70657274793E353CDA
:10C270002F70726F70657274793E3C76616C756573
:10C280003E457175616C206F6E2F6F66663C2F7630
:10C29000616C75653E3C2F72656C6174696F6E3EB2
:10C2A0000A202020202020202020203C72656C6164
:10C2B00074696F6E3E3C70726F70657274793E3651
:10C2C0003C2F70726F70657274793E3C76616C754C
:10C2D000653E457175616C206F6E2F6F66662C2010
:10C2E0006661737465723C2F76616C75653E3C2F98
:10C2F00072656C6174696F6E3E0A202020202020D8
:10C30000202020203C72656C6174696F6E3E3C7029
:10C31000726F70657274793E373C2F70726F706502
:10C320007274793E3C76616C75653E4F6E2077691C
:10C3300074682053686F727420283634206D732916
:10C3400020626C696E6B206F66663C2F76616C753F
:10C35000653E3C2F72656C6174696F6E3E0A2020E9
:10C3600020202020202020203C72656C6174696FA1
:10C370006E3E3C70726F70657274793E383C2F70FF
:10C38000726F70657274793E3C76616C75653E4F74
:10C390006E2077697468204C6F6E672028353132C3
:10C3A000206D732920626C696E6B206F66663C2F6E
:10C3B00076616C75653E3C2F72656C6174696F6E59
:10C3C0003E0A202020202020202020203C72656C66
:10C3D0006174696F6E3E3C70726F70657274793E05
:10C3E000303C2F70726F70657274793E3C76616C70
:10C3F00075653E55736520637573746F6D2070614C
:10C40000747465726E3C2F76616C75653E3C2F725C
:10C41000656C6174696F6E3E0A2020202020202008
:10C42000203C2F6D61703E0A2020202020203C2FD0
:10C43000696E743E0A202020203C2F67726F757051
:10C440003E0A20203C2F7365676D656E743E0A0AB4
:10C4500020203C7365676D656E74206F7269676933
:10C460006E3D2739333036272073706163653D2771
:10C47000323533273E0A202020203C6E616D653E18
:10C48000506F776572204D6F6E69746F723C2F6EBE
:10C49000616D653E0A202020203C646573637269EB
:10C4A0007074696F6E3E506F77657220646F776E3F
:10C4B000206576656E7473206D6179206E6F7420CF
:10C4C00062652070726F64756365642072656C6963
:10C4D00061626C793C2F6465736372697074696F13
:10C4E0006E3E0A202020203C696E742073697A65B4
:10C4F0003D2731273E0A2020202020203C6E616D00
:10C50000653E506F776572204576656E74733C2F7B
:10C510006E616D653E0A2020202020203C64656607
:10C5200061756C743E303C2F64656661756C743E59
:10C530000A2020202020203C6D61703E0A2020200F
:10C5400020202020203C72656C6174696F6E3E3C37
:10C5500070726F70657274793E303C2F70726F70BC
:10C56000657274793E3C76616C75653E4E6F6E65A2
:10C570003C2F76616C75653E3C2F72656C61746909
:10C580006F6E3E0A20202020202020203C72656C07
:10C590006174696F6E3E3C70726F70657274793E43
:10C5A000313C2F70726F70657274793E3C76616CAD
:10C5B00075653E506F77657220446F776E204F6EC1
:10C5C0006C793C2F76616C75653E3C2F72656C61B1
:10C5D00074696F6E3E0A20202020202020203C72AB
:10C5E000656C6174696F6E3E3C70726F70657274D9
:10C5F000793E323C2F70726F70657274793E3C7672
:10C60000616C75653E506F776572205570204F6E76
:10C610006C793C2F76616C75653E3C2F72656C6160
:10C6200074696F6E3E0A20202020202020203C725A
:10C63000656C6174696F6E3E3C70726F7065727488
:10C64000793E333C2F70726F70657274793E3C7620
:10C65000616C75653E416C6C3C2F76616C75653E16
:10C660003C2F72656C6174696F6E3E0A2020202039
:10C6700020203C2F6D61703E0A202020203C2F6935
:10C680006E743E0A202020203C6576656E746964D5
:10C690003E0A2020202020203C6E616D653E506FB8
:10C6A00077657220446F776E20286D61792062650E
:10C6B00020756E61626C6520746F2073656E6429ED
:10C6C0003C2F6E616D653E0A2020202020203C64B6
:10C6D00065736372697074696F6E3E5768656E202A
:10C6E0007468652043414E2062757320706F7765D2
:10C6F00072206661696C732C20746869732065769A
:10C70000656E742077696C6C2062652073656E7449
:10C710002E3C2F6465736372697074696F6E3E0A94
:10C72000202020203C2F6576656E7469643E0A20C7
:10C730002020203C6576656E7469643E0A202020C6
:10C740002020203C6E616D653E506F7765722055EC
:10C75000703C2F6E616D653E0A2020202020203C19
:10C760006465736372697074696F6E3E5768656E55
:10C77000207468652043414E2062757320706F7786
:10C780006572206973204F4B2C2074686973206593
:10C7900076656E742077696C6C2062652073656EB7
:10C7A000742E3C2F6465736372697074696F6E3E9A
:10C7B0000A202020203C2F6576656E7469643E0A4D
:10C7C00020203C2F7365676D656E743E0A20202023
:10C7D000203C7365676D656E74206F726967696E62
:10C7E0003D2732272073706163653D27323533273B
:10C7F0003E203C212D2D205370616365203078460A
:10C8000044207374756666206D6167696320746F78
:10C81000207472696767657220726573657473202E
:10C820002D2D3E0A20202020202020203C6E616DEE
:10C83000653E526573657420436F6E74726F6C3C15
:10C840002F6E616D653E0A20202020202020203C94
:10C850006465736372697074696F6E3E436F6E7462
:10C86000726F6C7320616374696F6E7320617420E2
:10C870006E65787420626F6172642072657365748E
:10C880003C2F6465736372697074696F6E3E0A2031
:10C89000202020202020203C696E742073697A6556
:10C8A0003D2731273E0A2020202020202020202044
:10C8B00020203C6E616D653E416374696F6E206F30
:10C8C0006E2072657365743C2F6E616D653E0A2043
:10C8D00020202020202020202020203C646566612C
:10C8E000756C743E3233383C2F64656661756C74C8
:10C8F0003E0A2020202020202020202020203C6DC7
:10C9000061703E0A2020202020202020202020208E
:10C91000202020203C72656C6174696F6E3E3C7013
:10C92000726F70657274793E3233383C2F70726F5B
:10C9300070657274793E3C76616C75653E4E6F72BF
:10C940006D616C204F7065726174696F6E3C2F76FB
:10C95000616C75653E3C2F72656C6174696F6E3EEB
:10C960000A202020202020202020202020202020DD
:10C97000203C72656C6174696F6E3E3C70726F70C2
:10C98000657274793E35313C2F70726F70657274C8
:10C99000793E3C76616C75653E436C6561722045FD
:10C9A000766572797468696E672062757420437267
:10C9B00065617465204E657720556E7573656420DA
:10C9C0004576656E744944733C2F76616C75653E9F
:10C9D0003C2F72656C6174696F6E3E0A20202020C6
:10C9E0002020202020202020202020203C72656C48
:10C9F0006174696F6E3E3C70726F70657274793EDF
:10CA00003235353C2F70726F70657274793E3C76AA
:10CA1000616C75653E436C6561722045766572791F
:10CA20007468696E67206261636B20746F20466171
:10CA300063746F72792044656661756C74733C2F02
:10CA400076616C75653E3C2F72656C6174696F6EC2
:10CA50003E0A2020202020202020202020202020CE
:10CA600020203C72656C6174696F6E3E3C70726F21
:10CA700070657274793E36383C2F70726F706572D3
:10CA800074793E3C76616C75653E526573657420C1
:10CA9000616E6420656E7465722074657374206DB8
:10CAA0006F6465202873656520646F63756D656EBE
:10CAB000746174696F6E20666972737421293C2FEA
:10CAC00076616C75653E3C2F72656C6174696F6E42
:10CAD0003E0A2020202020202020202020203C2F23
:10CAE0006D61703E0A20202020202020203C2F69EC
:10CAF0006E743E0A202020203C2F7365676D656EA2
:10CB0000743E0A202020203C2F6364693E0A000402
:10CB10005350524F4720444343204C74640000005C
:10CB20000000000000000000000000000000000005
:10CB3000000000000000000000494F2D4C4343005E
:10CB400000000000000000000000000000000000E5
:10CB500000000000000000000000000000000000D5
:10CB60000000312E30000000000000000000000036
:10CB700000000000000000322E3200000000000023
:10CB80000000000000000000000000000102040896
:10CB90001020408000FFAF7864554B3C0001020339
:10CBA00005070A14CA0020F300201C0120450120BB
:10CBB0006E0120970120C10140EA01401302403C70
:10CBC00002406502408E0240DD02200603202F0352
:10CBD00020580320810320AA0320D40340FD0340F2
:10CBE0002604404F0440780440A10440F00420197A
:10CBF00005204205206B0520940520BD0520E70592
:10CC0000401006403906406206408B0640B406409C
:10CC10000307202C07205507207E0720A70720D0D8
:10CC20000720FA07402308404C08407508409E083A
:10CC300040C708401609203F0920680920910920B3
:10CC4000BA0920E309200D0A40360A405F0A4088ED
:10CC50000A40B10A40DA0A40290B20520B207B0B14
:10CC600020A40B20CD0B20F60B20200C40490C40BB
:10CC7000720C409B0C40C40C40ED0C403C0D2065F8
:10CC80000D208E0D20B70D20E00D20090E20330E53
:10CC9000405C0E40850E40AE0E40D70E40000F4067
:10CCA0004F0F20780F20A10F20CA0F20F30F201C58
:10CCB00010204610406F1040981040C11040EA10FC
:10CCC000401311406311208C1120B51120DE11207A
:10CCD0000712203012205A1240831240AC1240D565
:10CCE0001240FE12402713407613209F1320C813D2
:10CCF00020F113201A14204314206D144096144080
:10CD0000BF1440E814401115403A1540891520B26F
:10CD10001520DB15200416202D162056162080160F
:10CD200040A91640D21640FB16402417404D17402C
:10CD30009C1720C51720EE172017182040182069CF
:10CD40001820931840BC1840E518400E19403719B8
:10CD500040601940AF1920D81920011A202A1A2042
:10CD6000531A207C1A20A61A40CF1A40F81A4021E4
:10CD70001B404A1B40731B40C21B20EB1B20141C92
:10CD8000203D1C20661C208F1C20B91C40E21C404A
:10CD90000B1D40341D405D1D40861D40D51D20FEED
:10CDA0001D20271E20501E20791E20A21E20CC1ED2
:10CDB00040F51E401E1F40471F40701F40991F40F6
:10CDC000E81F201120203A20206320208C2020B54D
:10CDD0002020DF20400821403121405A214083217A
:10CDE00040AC21402D22405622409F2240C8224084
:10CDF0001023203923206223208B2320D52320FEDB
:10CE000023202724205024205B2440632440476FA4
:10CE10006C6400426C7565000000030E05017C6FB8
:10CE2000000E7D6F000E7E6F000E7F6F120E806F02
:10CE3000CE0E816FC2ECB5F0420E05017C6F000E84
:10CE40007D6F000E7E6F000E7F6F120E806FCE0E14
:10CE5000816FC2ECB5F0820E0501756F000E766F22
:10CE6000000E776F000E786F000E796FCDECC0F07A
:10CE7000000E0501A26FA2C569F56A6B020E6C6F08
:10CE8000130E6B6FC4ECCCF0830E6925916F000E0E
:10CE90006A21926F91C57CF592C57DF57E6B7F6BA3
:10CEA000120E806FCE0E816FC2ECB5F0A2C569F58F
:10CEB00005016A6B020E6C6F130E6B6FC4ECCCF045
:10CEC000A30E6925916F000E6A21926F91C575F5C9
:10CED00092C576F5776B786B020E796FCDECC0F06A
:10CEE000A2C569F505016A6B020E6C6F130E6B6FBC
:10CEF000C4ECCCF0A40E6925916F000E6A21926FEC
:10CF000091C575F592C576F5776B786B000E796FE4
:10CF1000CDECC0F0A2C569F505016A6B020E6C6F1D
:10CF2000130E6B6FC4ECCCF0A50E6925916F000E4B
:10CF30006A21926F91C576F592C577F5786B796B1A
:10CF4000000E7B6F0A0E7A6F48ECBBF0A2C569F544
:10CF500005016A6B020E6C6F130E6B6FC4ECCCF0A4
:10CF6000A70E6925916F000E6A21926F91C576F523
:10CF700092C577F5786B796B000E7B6F0A0E7A6F2E
:10CF800048ECBBF0A2C569F505016A6B020E6C6F37
:10CF9000130E6B6FC4ECCCF0A90E6925916F000ED7
:10CFA0006A21926F91C575F592C576F5776B786BAE
:10CFB000000E796FCDECC0F0A2C569F505016A6B72
:10CFC000020E6C6F130E6B6FC4ECCCF0AA0E6925C9
:10CFD000916F000E6A21926F91C57CF592C57DF527
:10CFE0007E6B7F6B120E806FCE0E816FC2ECB5F040
:10CFF000A2C569F505016A6B020E6C6F130E6B6FAB
:10D00000C4ECCCF0D20E6925916F000E6A21926FAC
:10D0100091C575F592C576F5776B786B030E796FD0
:10D02000CDECC0F0A2C569F505016A6B020E6C6F0C
:10D03000130E6B6FC4ECCCF0D30E6925916F000E0C
:10D040006A21926F91C57CF592C57DF57E6B7F6BF1
:10D05000120E806FCE0E816FC2ECB5F0A2C569F5DD
:10D0600005016A6B020E6C6F130E6B6FC4ECCCF093
:10D07000FB0E6925916F000E6A21926F91C575F5BF
:10D0800092C576F5776B786B020E796FCDECC0F0B8
:10D09000020E0501A16FA2C569F56A6B020E6C6FE5
:10D0A000130E6B6FC4ECCCF0A151290DAA0EF32422
:10D0B000916F000EF420926F69519125936F6A5120
:10D0C0009221946F93C57CF594C57DF57E6B7F6B43
:10D0D000120E806FCE0E816FC2ECB5F0A2C569F55D
:10D0E00005016A6B020E6C6F130E6B6FC4ECCCF013
:10D0F000A151290DD20EF324916F000EF420926FEE
:10D1000069519125936F6A519221946F93C575F57A
:10D1100094C576F5776B786B000E796FCDECC0F027
:10D120000501A12B050EA165B6D7000EA16FA2C502
:10D1300069F56A6B020E6C6F130E6B6FC4ECCCF06A
:10D14000A151290DA00EF324916F010EF420926FCE
:10D1500069519125936F6A519221946F93C57CF523
:10D1600094C57DF57E6B7F6B120E806FCE0E816F46
:10D17000C2ECB5F0A2C569F505016A6B020E6C6FD1
:10D18000130E6B6FC4ECCCF0A151290DC00EF3242B
:10D19000916F010EF420926F69519125936F6A513E
:10D1A0009221946F93C575F594C576F5776B786B7E
:10D1B000000E796FCDECC0F00501A12B050EA16525
:10D1C000B6D7A22B070EA26556D61B0E756F110E91
:10D1D000766F000E776F000E786F000E796FCDECD2
:10D1E000C0F0000E0501A26FA2C569F56A6B020EC0
:10D1F0006C6F130E6B6FC4ECCCF01C0E6925916F35
:10D20000110E6A21926F91C57CF592C57DF57E6BFA
:10D210007F6B120E806FCE0E816FC2ECB5F0A2C58F
:10D2200069F505016A6B020E6C6F130E6B6FC4EC2F
:10D23000CCF03C0E6925916F110E6A21926F91C559
:10D2400075F592C576F5776B786B010E796FCDEC3D
:10D25000C0F0A2C569F505016A6B020E6C6F130E72
:10D260006B6FC4ECCCF03D0E6925916F110E6A21F5
:10D27000926F91C575F592C576F5776B786B000E58
:10D28000796FCDECC0F0A2C569F505016A6B020E9D
:10D290006C6F130E6B6FC4ECCCF03E0E6925916F72
:10D2A000110E6A21926F91C576F592C577F5786B6C
:10D2B000796B000E7B6F0A0E7A6F48ECBBF0A2C54B
:10D2C00069F505016A6B020E6C6F130E6B6FC4EC8F
:10D2D000CCF0400E6925916F110E6A21926F91C5B5
:10D2E00076F592C577F5786B796B000E7B6F0A0E39
:10D2F0007A6F48ECBBF0A2C569F505016A6B020EB6
:10D300006C6F130E6B6FC4ECCCF0420E6925916FFD
:10D31000110E6A21926F91C575F592C576F5776BFE
:10D32000786B000E796FCDECC0F0000E0501A16F97
:10D33000A2C569F56A6B020E6C6F130E6B6FC4ECBD
:10D34000CCF0A151290D430EF324916F110EF4205E
:10D35000926F69519125936F6A519221946F93C591
:10D360007CF594C57DF57E6B7F6B120E806FCE0EC3
:10D37000816FC2ECB5F0A2C569F505016A6B020EBA
:10D380006C6F130E6B6FC4ECCCF0A151290D6B0EBA
:10D39000F324916F110EF420926F69519125936FD0
:10D3A0006A519221946F93C575F594C576F5776BA4
:10D3B000786B000E796FCDECC0F00501A12B050E46
:10D3C000A165B6D7A2C569F56A6B020E6C6F130E24
:10D3D0006B6FC4ECCCF0390E6925916F120E6A2187
:10D3E000926F91C57CF592C57DF57E6B7F6B120EB9
:10D3F000806FCE0E816FC2ECB5F0A2C569F5050154
:10D400006A6B020E6C6F130E6B6FC4ECCCF0590E8E
:10D410006925916F120E6A21926F91C575F592C5BB
:10D4200076F5776B786B080E796FCDECC0F0A2C5FE
:10D4300069F505016A6B020E6C6F130E6B6FC4EC1D
:10D44000CCF0620E6925916F120E6A21926F91C520
:10D450007CF592C57DF57E6B7F6B120E806FCE0ED4
:10D46000816FC2ECB5F0A2C569F505016A6B020EC9
:10D470006C6F130E6B6FC4ECCCF0820E6925916F4C
:10D48000120E6A21926F91C575F592C576F5776B8C
:10D49000786B070E796FCDECC0F0020E0501A16F1D
:10D4A000A2C569F56A6B020E6C6F130E6B6FC4EC4C
:10D4B000CCF0A151290D390EF324916F120EF420F6
:10D4C000926F69519125936F6A519221946F93C520
:10D4D0007CF594C57DF57E6B7F6B120E806FCE0E52
:10D4E000816FC2ECB5F0A2C569F505016A6B020E49
:10D4F0006C6F130E6B6FC4ECCCF0A151290D590E5B
:10D50000F324916F120EF420926F69519125936F5D
:10D510006A519221946F93C575F594C576F5776B32
:10D52000786B000E796FCDECC0F00501A12B050ED4
:10D53000A165B6D7A22B070EA26556D6000EA26F24
:10D54000A251070DB40EF324916F210EF420926FB7
:10D5500091C575F592C576F5776B786B7D0E796F11
:10D56000CDECC0F00501A251070DB50EF324916F6B
:10D57000210EF420926F91C575F592C576F5776B03
:10D58000786B7D0E796FCDECC0F00501A251070DCF
:10D59000B60EF324916F210EF420926F91C575F5AC
:10D5A00092C576F5776B786B040E796FCDECC0F091
:10D5B0000501A251070DB70EF324916F210EF4203F
:10D5C000926F91C575F592C576F5776B786B040E01
:10D5D000796FCDECC0F00501A251070DB80EF32410
:10D5E000916F210EF420926F91C575F592C576F575
:10D5F000776B786B000E796FCDECC0F00501A2510E
:10D60000070DB90EF324916F210EF420926F91C58E
:10D6100075F592C576F5776B786B010E796FCDEC69
:10D62000C0F00501A251070DBA0EF324916F210E2F
:10D63000F420926F91C575F592C576F5776B786B8E
:10D64000010E796FCDECC0F00501A251916F926B84
:10D65000936BF00E91256F6F030E9221706F380E51
:10D660009321716F000E726F8FECC3F00501A22B36
:10D67000070EA26565D7000EA26FA251720DEC0EC7
:10D68000F324916F210EF420926F91C57CF592C521
:10D690007DF57E6B7F6B120E806FCE0E816FC2ECBC
:10D6A000B5F0000E0501A16FA151290DF3C491F54C
:10D6B000F4C492F5A251720D0C0EF324936F220E56
:10D6C000F420946F91519325956F92519421966F08
:10D6D00095C57CF596C57DF57E6B7F6B120E806FD0
:10D6E000CE0E816FC2ECB5F00501A12B010EA16534
:10D6F000DBD7A22B010EA265C0D7EC0E7C6F210EEA
:10D700007D6F000E7E6F000E7F6F130E806FCE0E4A
:10D71000816FC2ECB5F02C0E0501756F220E766F8D
:10D72000000E776F000E786F090E796FCDECC0F0A8
:10D73000550E0501756F220E766F000E776F000E85
:10D74000786F0A0E796FCDECC0F05E0E05017C6F2C
:10D75000220E7D6F000E7E6F000E7F6F0E0E806FAB
:10D76000CE0E816FC2ECB5F09E0E0501756F220ED4
:10D77000766F000E776F000E786F090E796FCDEC23
:10D78000C0F0C70E0501756F220E766F000E776F21
:10D79000000E786F0A0E796FCDECC0F0D00E050147
:10D7A0007C6F220E7D6F000E7E6F000E7F6F130E5A
:10D7B000806FCE0E816FC2ECB5F0950E05017C6FC7
:10D7C000230E7D6F000E7E6F000E7F6F0E0E806F3A
:10D7D000CE0E816FC2ECB5F0000E0501A26FA25112
:10D7E000C50D940EF324916F230EF420926F91C512
:10D7F00075F592C576F5776B786B030E796FCDEC86
:10D80000C0F0000E0501A16FA151290DF3C491F5DF
:10D81000F4C492F5A251C50DF00EF324936F220EBD
:10D82000F420946F91519325956F92519421966FA6
:10D8300095C57CF596C57DF57E6B7F6B120E806F6E
:10D84000CE0E816FC2ECB5F00501A151290DF3C4D4
:10D8500091F5F4C492F5A251C50D180EF324936FFF
:10D86000230EF420946F91519325956F925194213A
:10D87000966F95C575F596C576F5776B786B000E46
:10D88000796FCDECC0F00501A12B030EA165BCD7CB
:10D89000A22B010EA265A3D7180E756F230E766F0B
:10D8A000000E776F000E786F0F0E796FCDECC0F021
:10D8B000940E0501756F230E766F000E776F000EC4
:10D8C000786F030E796FCDECC0F0DD0E0501756F3A
:10D8D000230E766F000E776F000E786F100E796F43
:10D8E000CDECC0F0590E0501756F240E766F000E59
:10D8F000776F000E786F030E796FCDECC0F05A0E83
:10D900000501756F240E766F000E776F000E786F2D
:10D91000000E796FCDECC0F07F0E0501616F070E30
:10D92000626FCC0E636FAFECC8F061C597F562C54E
:10D9300098F5990E616F050E626F010E636F000E10
:10D94000646F000E656F000E666F000E676F000E4D
:10D95000686FFF0E696FF10E6A6FEDECBDF097C551
:10D960007AF598C57BF57C6B7D6B990E7E6F050E05
:10D970007F6F000E816F080E806FB1ECBAF012005D
:10D98000E6ECC1F061C57FF562C580F563C581F540
:10D9900064C582F548D2000EFB6F010E42D2FB51E6
:10D9A000240DF3C474F5F4C475F520EE05F00750AA
:10D9B000D9260850DA22DEC476F5DDC477F5745135
:10D9C0007625786F75517721796F210E7825D96E7C
:10D9D000000E7921DA6EDE04D8A488D0FC51240D23
:10D9E000F3C474F5F4C475F520EE05F00750D9269C
:10D9F0000850DA22DEC476F5DDC477F57451762559
:10DA0000786F75517721796F0F0E7825D96E000EDA
:10DA10007921DA6EDE6ADE6ADE6ADD6AFC51240D87
:10DA2000F3C474F5F4C475F520EE05F00950D92659
:10DA30000A50DA22DEC476F5DDC477F57451762516
:10DA4000786F75517721796F0F0E7825D96E000E9A
:10DA50007921DA6EDE6ADE6ADE6ADD6A20EE0FF0B8
:10DA60000B50D9260C50DA22DE6ADE6ADE6ADD6AE5
:10DA700020EE0FF00D50D9260E50DA22DE6ADE6A53
:10DA8000DE6ADD6AFB51240DF3C474F5F4C475F548
:10DA900020EE05F00750D9260850DA22DEC476F5CC
:10DAA000DDC477F574517625786F75517721796FDC
:10DAB0000F0E7825D96E000E7921DA6EFF0EDE6E1C
:10DAC000FF0EDE6EFF0EDE6EFF0EDD6EFBC5FCF59B
:10DAD000010E056E000E7F15016EFE0E8015026EA2
:10DAE000000E8115036E000E8215046EFB2B080ECE
:10DAF000FB19D8A4B0D1000EFB6F020E92D1FB51DE
:10DB0000240DF3C474F5F4C475F520EE05F0095046
:10DB1000D9260A50DA22DEC476F5DDC477F57451D1
:10DB20007625786F75517721796F210E7825D96E1A
:10DB3000000E7921DA6EDE04D8A488D0FC51240DC1
:10DB4000F3C474F5F4C475F520EE05F00750D9263A
:10DB50000850DA22DEC476F5DDC477F574517625F7
:10DB6000786F75517721796F0F0E7825D96E000E79
:10DB70007921DA6EDE6ADE6ADE6ADD6AFC51240D26
:10DB8000F3C474F5F4C475F520EE05F00950D926F8
:10DB90000A50DA22DEC476F5DDC477F574517625B5
:10DBA000786F75517721796F0F0E7825D96E000E39
:10DBB0007921DA6EDE6ADE6ADE6ADD6A20EE0FF057
:10DBC0000B50D9260C50DA22DE6ADE6ADE6ADD6A84
